{
  "address": "0x3cEF6b4a818fC29F7E5046DB55C50B226Df38934",
  "abi": [
    {
      "inputs": [
        {
          "internalType": "address",
          "name": "_feeTo",
          "type": "address"
        },
        {
          "internalType": "address",
          "name": "_upgrader",
          "type": "address"
        }
      ],
      "stateMutability": "nonpayable",
      "type": "constructor"
    },
    {
      "anonymous": false,
      "inputs": [
        {
          "indexed": true,
          "internalType": "address",
          "name": "who",
          "type": "address"
        }
      ],
      "name": "MembershipDowngraded",
      "type": "event"
    },
    {
      "anonymous": false,
      "inputs": [
        {
          "indexed": true,
          "internalType": "address",
          "name": "who",
          "type": "address"
        }
      ],
      "name": "MembershipUpgraded",
      "type": "event"
    },
    {
      "anonymous": false,
      "inputs": [
        {
          "indexed": true,
          "internalType": "address",
          "name": "previousOwner",
          "type": "address"
        },
        {
          "indexed": true,
          "internalType": "address",
          "name": "newOwner",
          "type": "address"
        }
      ],
      "name": "OwnershipTransferred",
      "type": "event"
    },
    {
      "anonymous": false,
      "inputs": [
        {
          "indexed": false,
          "internalType": "address",
          "name": "account",
          "type": "address"
        }
      ],
      "name": "Paused",
      "type": "event"
    },
    {
      "anonymous": false,
      "inputs": [
        {
          "indexed": false,
          "internalType": "address",
          "name": "account",
          "type": "address"
        }
      ],
      "name": "Unpaused",
      "type": "event"
    },
    {
      "inputs": [
        {
          "internalType": "string",
          "name": "name",
          "type": "string"
        },
        {
          "internalType": "string",
          "name": "aka",
          "type": "string"
        },
        {
          "internalType": "string",
          "name": "field",
          "type": "string"
        },
        {
          "internalType": "string",
          "name": "profileURI",
          "type": "string"
        },
        {
          "internalType": "string",
          "name": "avatar",
          "type": "string"
        }
      ],
      "name": "becomeAJobber",
      "outputs": [
        {
          "internalType": "bool",
          "name": "",
          "type": "bool"
        }
      ],
      "stateMutability": "payable",
      "type": "function"
    },
    {
      "inputs": [],
      "name": "counter",
      "outputs": [
        {
          "internalType": "uint256",
          "name": "",
          "type": "uint256"
        }
      ],
      "stateMutability": "view",
      "type": "function"
    },
    {
      "inputs": [],
      "name": "feeTo",
      "outputs": [
        {
          "internalType": "address",
          "name": "",
          "type": "address"
        }
      ],
      "stateMutability": "view",
      "type": "function"
    },
    {
      "inputs": [
        {
          "internalType": "address",
          "name": "_of",
          "type": "address"
        }
      ],
      "name": "getAvatarId",
      "outputs": [
        {
          "internalType": "uint256",
          "name": "",
          "type": "uint256"
        }
      ],
      "stateMutability": "view",
      "type": "function"
    },
    {
      "inputs": [
        {
          "internalType": "address",
          "name": "jobber",
          "type": "address"
        }
      ],
      "name": "getAvatarInfo",
      "outputs": [
        {
          "internalType": "uint256",
          "name": "",
          "type": "uint256"
        }
      ],
      "stateMutability": "view",
      "type": "function"
    },
    {
      "inputs": [],
      "name": "getJobbers",
      "outputs": [
        {
          "components": [
            {
              "internalType": "enum ICommon.Tier",
              "name": "status",
              "type": "uint8"
            },
            {
              "internalType": "uint256",
              "name": "avatarId",
              "type": "uint256"
            },
            {
              "components": [
                {
                  "internalType": "bytes",
                  "name": "name",
                  "type": "bytes"
                },
                {
                  "internalType": "bytes",
                  "name": "aka",
                  "type": "bytes"
                },
                {
                  "internalType": "bytes",
                  "name": "field",
                  "type": "bytes"
                },
                {
                  "internalType": "bytes",
                  "name": "profileURI",
                  "type": "bytes"
                },
                {
                  "internalType": "bytes",
                  "name": "avatar",
                  "type": "bytes"
                },
                {
                  "internalType": "uint8",
                  "name": "ratings",
                  "type": "uint8"
                },
                {
                  "internalType": "uint8",
                  "name": "level",
                  "type": "uint8"
                }
              ],
              "internalType": "struct ICommon.JobberData",
              "name": "other",
              "type": "tuple"
            }
          ],
          "internalType": "struct ICommon.Membership[]",
          "name": "_return",
          "type": "tuple[]"
        }
      ],
      "stateMutability": "view",
      "type": "function"
    },
    {
      "inputs": [
        {
          "internalType": "address",
          "name": "",
          "type": "address"
        }
      ],
      "name": "ids",
      "outputs": [
        {
          "internalType": "uint256",
          "name": "",
          "type": "uint256"
        }
      ],
      "stateMutability": "view",
      "type": "function"
    },
    {
      "inputs": [],
      "name": "mShip",
      "outputs": [
        {
          "internalType": "uint256",
          "name": "probFee",
          "type": "uint256"
        },
        {
          "internalType": "address",
          "name": "upgrader",
          "type": "address"
        }
      ],
      "stateMutability": "view",
      "type": "function"
    },
    {
      "inputs": [],
      "name": "myStatus",
      "outputs": [
        {
          "internalType": "string",
          "name": "",
          "type": "string"
        }
      ],
      "stateMutability": "view",
      "type": "function"
    },
    {
      "inputs": [],
      "name": "owner",
      "outputs": [
        {
          "internalType": "address",
          "name": "",
          "type": "address"
        }
      ],
      "stateMutability": "view",
      "type": "function"
    },
    {
      "inputs": [],
      "name": "paused",
      "outputs": [
        {
          "internalType": "bool",
          "name": "",
          "type": "bool"
        }
      ],
      "stateMutability": "view",
      "type": "function"
    },
    {
      "inputs": [
        {
          "internalType": "address",
          "name": "target",
          "type": "address"
        }
      ],
      "name": "queryStatus",
      "outputs": [
        {
          "internalType": "uint8",
          "name": "",
          "type": "uint8"
        }
      ],
      "stateMutability": "view",
      "type": "function"
    },
    {
      "inputs": [],
      "name": "renounceOwnership",
      "outputs": [],
      "stateMutability": "nonpayable",
      "type": "function"
    },
    {
      "inputs": [
        {
          "internalType": "address",
          "name": "newOwner",
          "type": "address"
        }
      ],
      "name": "transferOwnership",
      "outputs": [],
      "stateMutability": "nonpayable",
      "type": "function"
    },
    {
      "inputs": [],
      "name": "updateFee",
      "outputs": [
        {
          "internalType": "uint256",
          "name": "",
          "type": "uint256"
        }
      ],
      "stateMutability": "view",
      "type": "function"
    },
    {
      "inputs": [
        {
          "internalType": "uint256",
          "name": "_probFee",
          "type": "uint256"
        },
        {
          "internalType": "address",
          "name": "_upgrader",
          "type": "address"
        },
        {
          "internalType": "uint256",
          "name": "_updateFee",
          "type": "uint256"
        }
      ],
      "name": "updateMembershipInfo",
      "outputs": [],
      "stateMutability": "nonpayable",
      "type": "function"
    },
    {
      "inputs": [
        {
          "internalType": "string",
          "name": "field",
          "type": "string"
        },
        {
          "internalType": "string",
          "name": "profileURI",
          "type": "string"
        },
        {
          "internalType": "string",
          "name": "avatar",
          "type": "string"
        }
      ],
      "name": "updateProfileInfo",
      "outputs": [
        {
          "internalType": "bool",
          "name": "",
          "type": "bool"
        }
      ],
      "stateMutability": "payable",
      "type": "function"
    },
    {
      "inputs": [
        {
          "internalType": "address",
          "name": "target",
          "type": "address"
        },
        {
          "internalType": "uint8",
          "name": "upgrade_",
          "type": "uint8"
        }
      ],
      "name": "upgradeOrDowngradeUser",
      "outputs": [],
      "stateMutability": "nonpayable",
      "type": "function"
    },
    {
      "inputs": [
        {
          "internalType": "address",
          "name": "to",
          "type": "address"
        },
        {
          "internalType": "address",
          "name": "erc20",
          "type": "address"
        },
        {
          "internalType": "uint256",
          "name": "amount",
          "type": "uint256"
        }
      ],
      "name": "withdraw",
      "outputs": [],
      "stateMutability": "nonpayable",
      "type": "function"
    },
    {
      "stateMutability": "payable",
      "type": "receive"
    }
  ],
  "transactionHash": "0x4d825f099c9a8ee717122eb7c87fe6b3ffd50f797c3f941d90a7e1719e204bc8",
  "args": [
    "0xe09e23F8a8032BB39326098802c970f9b48D726C",
    "0xF1450c7F1CADE2Ff5Ec70e2Ffb191107352F4720"
  ],
  "numDeployments": 2,
  "solcInputHash": "fdcc4c431dfca7a36a76a71ee1d430a1",
  "bytecode": "0x60806040523480156200001157600080fd5b5060405162001f3438038062001f34833981016040819052620000349162000105565b6200003f3362000098565b6000805460ff60a01b19168155600580546001600160a01b039384166001600160a01b031991821617909155600380549490931693169290921790556007805460010181559052674563918244f400006002556200013d565b600080546001600160a01b038381166001600160a01b0319831681178455604051919092169283917f8be0079c531659141344cd1fd0a4f28419497f9722a3daafe3b4186f6b6457e09190a35050565b80516001600160a01b03811681146200010057600080fd5b919050565b600080604083850312156200011957600080fd5b6200012483620000e8565b91506200013460208401620000e8565b90509250929050565b611de7806200014d6000396000f3fe6080604052600436106101185760003560e01c80639ce85dff116100a0578063e4da53e811610064578063e4da53e814610332578063f0552c5414610368578063f2b2a09614610388578063f2fde38b1461039b578063ff5c1af6146103bb57600080fd5b80639ce85dff1461026a578063afe7b3021461028c578063c2c9aa7a146102be578063d9caed12146102ff578063ddd786e71461031f57600080fd5b806361bc221a116100e757806361bc221a146101e7578063715018a6146101fd578063758cdcf0146102145780637fb60eee1461022a5780638da5cb5b1461024c57600080fd5b8063017e7e58146101245780631847c06b1461016157806358e158691461019c5780635c975abb146101bc57600080fd5b3661011f57005b600080fd5b34801561013057600080fd5b50600354610144906001600160a01b031681565b6040516001600160a01b0390911681526020015b60405180910390f35b34801561016d57600080fd5b5061018e61017c36600461178f565b60066020526000908152604090205481565b604051908152602001610158565b3480156101a857600080fd5b5061018e6101b736600461178f565b6103db565b3480156101c857600080fd5b50600054600160a01b900460ff165b6040519015158152602001610158565b3480156101f357600080fd5b5061018e60015481565b34801561020957600080fd5b506102126103ec565b005b34801561022057600080fd5b5061018e60025481565b34801561023657600080fd5b5061023f610400565b604051610158919061180d565b34801561025857600080fd5b506000546001600160a01b0316610144565b34801561027657600080fd5b5061027f6107a8565b604051610158919061195a565b34801561029857600080fd5b506102ac6102a736600461178f565b6108a2565b60405160ff9091168152602001610158565b3480156102ca57600080fd5b506004546005546102e291906001600160a01b031682565b604080519283526001600160a01b03909116602083015201610158565b34801561030b57600080fd5b5061021261031a36600461196d565b6108e1565b6101d761032d366004611a4c565b610a81565b34801561033e57600080fd5b5061018e61034d36600461178f565b6001600160a01b031660009081526006602052604090205490565b34801561037457600080fd5b50610212610383366004611b1e565b610ab2565b6101d7610396366004611b5b565b610bc5565b3480156103a757600080fd5b506102126103b636600461178f565b610c9b565b3480156103c757600080fd5b506102126103d6366004611be3565b610d14565b60006103e682610d40565b92915050565b6103f4610d87565b6103fe6000610de1565b565b60606007805480602002602001604051908101604052809291908181526020016000905b8282101561079f576000848152602090206040805160608101909152600884029091018054829060ff16600281111561045f5761045f6117b1565b6002811115610470576104706117b1565b815260200160018201548152602001600282016040518060e001604052908160008201805461049e90611c08565b80601f01602080910402602001604051908101604052809291908181526020018280546104ca90611c08565b80156105175780601f106104ec57610100808354040283529160200191610517565b820191906000526020600020905b8154815290600101906020018083116104fa57829003601f168201915b5050505050815260200160018201805461053090611c08565b80601f016020809104026020016040519081016040528092919081815260200182805461055c90611c08565b80156105a95780601f1061057e576101008083540402835291602001916105a9565b820191906000526020600020905b81548152906001019060200180831161058c57829003601f168201915b505050505081526020016002820180546105c290611c08565b80601f01602080910402602001604051908101604052809291908181526020018280546105ee90611c08565b801561063b5780601f106106105761010080835404028352916020019161063b565b820191906000526020600020905b81548152906001019060200180831161061e57829003601f168201915b5050505050815260200160038201805461065490611c08565b80601f016020809104026020016040519081016040528092919081815260200182805461068090611c08565b80156106cd5780601f106106a2576101008083540402835291602001916106cd565b820191906000526020600020905b8154815290600101906020018083116106b057829003601f168201915b505050505081526020016004820180546106e690611c08565b80601f016020809104026020016040519081016040528092919081815260200182805461071290611c08565b801561075f5780601f106107345761010080835404028352916020019161075f565b820191906000526020600020905b81548152906001019060200180831161074257829003601f168201915b50505091835250506005919091015460ff808216602080850191909152610100909204166040909201919091529152918352506001929092019101610424565b50505050905090565b606060006040518060600160405280604051806040016040528060048152602001634e6f6e6560e01b815250815260200160405180604001604052806009815260200168283937b130ba34b7b760b91b815250815260200160405180604001604052806008815260200167105c1c1c9bdd995960c21b815250815250905060006007600660006108353390565b6001600160a01b03166001600160a01b03168152602001908152602001600020548154811061086657610866611c42565b6000918252602090912060089091020160070154610100900460ff16905081816003811061089657610896611c42565b60200201519250505090565b600060076108af83610d40565b815481106108bf576108bf611c42565b6000918252602090912060089091020160070154610100900460ff1692915050565b6108e9610d87565b6001600160a01b038316156109da576001600160a01b0382161580159061091957506001600160a01b0382163b15155b156109df5760405163a9059cbb60e01b81526001600160a01b0384811660048301526024820183905283169063a9059cbb906044016020604051808303816000875af115801561096d573d6000803e3d6000fd5b505050506040513d601f19601f820116820180604052508101906109919190611c58565b6109da5760405162461bcd60e51b8152602060048201526015602482015274115490cc8c08151c985b9cd9995c8819985a5b1959605a1b60448201526064015b60405180910390fd5b505050565b6000836001600160a01b03168260405160006040518083038185875af1925050503d8060008114610a2c576040519150601f19603f3d011682016040523d82523d6000602084013e610a31565b606091505b5050905080610a7b5760405162461bcd60e51b81526020600482015260166024820152752b30b63ab2902a3930b739b332b9103330b4b632b21760511b60448201526064016109d1565b50505050565b6000610a8b610e31565b600454610a989034610e7e565b610aa6338787878787610f1b565b50600195945050505050565b610aba610e31565b6005546001600160a01b031615801590610afb57506005546001600160a01b0316336001600160a01b03161480610afb57506000546001600160a01b031633145b610b385760405162461bcd60e51b815260206004820152600e60248201526d139bdd08185d5d1a1bdc9a5e995960921b60448201526064016109d1565b8060ff16600103610b8457610b4c82611116565b6040516001600160a01b038316907f2357e65ee335b2eaa66320de625fac0b6bd4d4e30ed11b2f88c227d0c875697990600090a25050565b610b8d82611204565b6040516001600160a01b038316907ff48f7ffebba51db7883b4acc519bc167419a218bc87db7900e1b5900100ca1e990600090a25050565b33600081815260066020526040812054909190610be18661165d565b60078281548110610bf457610bf4611c42565b90600052602060002090600802016002016002019081610c149190611cca565b50610c1e8561165d565b60078281548110610c3157610c31611c42565b90600052602060002090600802016002016003019081610c519190611cca565b50610c5b8461165d565b60078281548110610c6e57610c6e611c42565b90600052602060002090600802016002016004019081610c8e9190611cca565b50610aa660025434610e7e565b610ca3610d87565b6001600160a01b038116610d085760405162461bcd60e51b815260206004820152602660248201527f4f776e61626c653a206e6577206f776e657220697320746865207a65726f206160448201526564647265737360d01b60648201526084016109d1565b610d1181610de1565b50565b610d1c610d87565b8015610d285780610d33565b6802b5e3af16b18800005b6002556109da8383611686565b6001600160a01b038116600090815260066020526040812054600780549091908110610d6e57610d6e611c42565b9060005260206000209060080201600101549050919050565b6000546001600160a01b031633146103fe5760405162461bcd60e51b815260206004820181905260248201527f4f776e61626c653a2063616c6c6572206973206e6f7420746865206f776e657260448201526064016109d1565b600080546001600160a01b038381166001600160a01b0319831681178455604051919092169283917f8be0079c531659141344cd1fd0a4f28419497f9722a3daafe3b4186f6b6457e09190a35050565b600054600160a01b900460ff16156103fe5760405162461bcd60e51b815260206004820152601060248201526f14185d5cd8589b194e881c185d5cd95960821b60448201526064016109d1565b604080518082019091526016815275135cd9c81d985b1d59481a5b9cdd59999a58da595b9d60521b6020820152610eba908290849060016116db565b506003546040516000916001600160a01b03169083908381818185875af1925050503d8060008114610f08576040519150601f19603f3d011682016040523d82523d6000602084013e610f0d565b606091505b50509050806109da57600080fd5b610f2486611704565b600014604051806040016040528060118152602001700416c7265616479207369676e656420757607c1b815250818190610f715760405162461bcd60e51b81526004016109d1919061195a565b5060018054906000610f8283611d8a565b9091555050600180546001600160a01b038a1660009081526006602052604090819020829055805160608101909152909160079190819081526020018381526020016040518060e00160405280610fd88d61165d565b8152602001610fe68c61165d565b8152602001610ff48b61165d565b81526020016110028a61165d565b81526020016110108961165d565b815260006020808301829052600160409093018390529290935284548082018655948352912082516008909402018054929390929091839160ff19169083600281111561105f5761105f6117b1565b02179055506020820151600182015560408201518051600283019081906110869082611cca565b506020820151600182019061109b9082611cca565b50604082015160028201906110b09082611cca565b50606082015160038201906110c59082611cca565b50608082015160048201906110da9082611cca565b5060a08201516005909101805460c09093015160ff9081166101000261ffff199094169216919091179190911790555050505050505050505050565b61111f81611704565b6001146040518060400160405280601081526020016f2737ba1037b710383937b130ba34b7b760811b81525081819061116b5760405162461bcd60e51b81526004016109d1919061195a565b50600061117784610d40565b905060026007828154811061118e5761118e611c42565b906000526020600020906008020160020160050160016101000a81548160ff021916908360ff1602179055506002600782815481106111cf576111cf611c42565b60009182526020909120600890910201805460ff191660018360028111156111f9576111f96117b1565b021790555050505050565b600061120f82610d40565b1160405180604001604052806002815260200161062760f31b81525081819061124b5760405162461bcd60e51b81526004016109d1919061195a565b506001600160a01b03831660009081526006602052604081205460078054909190811061127a5761127a611c42565b6000918252602090912060408051606081019091526008909202018054829060ff1660028111156112ad576112ad6117b1565b60028111156112be576112be6117b1565b815260200160018201548152602001600282016040518060e00160405290816000820180546112ec90611c08565b80601f016020809104026020016040519081016040528092919081815260200182805461131890611c08565b80156113655780601f1061133a57610100808354040283529160200191611365565b820191906000526020600020905b81548152906001019060200180831161134857829003601f168201915b5050505050815260200160018201805461137e90611c08565b80601f01602080910402602001604051908101604052809291908181526020018280546113aa90611c08565b80156113f75780601f106113cc576101008083540402835291602001916113f7565b820191906000526020600020905b8154815290600101906020018083116113da57829003601f168201915b5050505050815260200160028201805461141090611c08565b80601f016020809104026020016040519081016040528092919081815260200182805461143c90611c08565b80156114895780601f1061145e57610100808354040283529160200191611489565b820191906000526020600020905b81548152906001019060200180831161146c57829003601f168201915b505050505081526020016003820180546114a290611c08565b80601f01602080910402602001604051908101604052809291908181526020018280546114ce90611c08565b801561151b5780601f106114f05761010080835404028352916020019161151b565b820191906000526020600020905b8154815290600101906020018083116114fe57829003601f168201915b5050505050815260200160048201805461153490611c08565b80601f016020809104026020016040519081016040528092919081815260200182805461156090611c08565b80156115ad5780601f10611582576101008083540402835291602001916115ad565b820191906000526020600020905b81548152906001019060200180831161159057829003601f168201915b50505091835250506005919091015460ff808216602084015261010090910416604090910152905250905060006115e385610d40565b90506000826040015160c0015160ff166002036115fe575060015b826040015160c0015160ff16600103611615575060005b806007838154811061162957611629611c42565b906000526020600020906008020160020160050160016101000a81548160ff021916908360ff160217905550505050505050565b606081604051602001611670919061195a565b6040516020818303038152906040529050919050565b60405180604001604052808360001461169f57836116a9565b67016345785d8a00005b81526001600160a01b0392831660209182015281516004550151600580546001600160a01b0319169190921617905550565b60006116ea8486101584611754565b60ff8216156116f957836116fb565b845b95945050505050565b6001600160a01b038116600090815260066020526040812054600780548290811061173157611731611c42565b6000918252602090912060089091020160070154610100900460ff169392505050565b80826109da5760405162461bcd60e51b81526004016109d1919061195a565b80356001600160a01b038116811461178a57600080fd5b919050565b6000602082840312156117a157600080fd5b6117aa82611773565b9392505050565b634e487b7160e01b600052602160045260246000fd5b6000815180845260005b818110156117ed576020818501810151868301820152016117d1565b506000602082860101526020601f19601f83011685010191505092915050565b600060208083018184528085518083526040925060408601915060408160051b8701018488016000805b8481101561194b57603f198a85030186528251606081516003811061186a57634e487b7160e01b85526021600452602485fd5b80875250898201518a8701528882015191508089870152815160e080838901526118986101408901836117c7565b91508b840151605f196080818b860301818c01526118b685846117c7565b94508d870151925060a0828c870301818d01526118d386856117c7565b955086880151965060c09350828c870301848d01526118f286886117c7565b9650818801519550828c880301858d015261190d87876117c7565b965060ff81890151166101008d015250505080850151945050505061193861012087018360ff169052565b9689019694505091870191600101611837565b50919998505050505050505050565b6020815260006117aa60208301846117c7565b60008060006060848603121561198257600080fd5b61198b84611773565b925061199960208501611773565b9150604084013590509250925092565b634e487b7160e01b600052604160045260246000fd5b600082601f8301126119d057600080fd5b813567ffffffffffffffff808211156119eb576119eb6119a9565b604051601f8301601f19908116603f01168101908282118183101715611a1357611a136119a9565b81604052838152866020858801011115611a2c57600080fd5b836020870160208301376000602085830101528094505050505092915050565b600080600080600060a08688031215611a6457600080fd5b853567ffffffffffffffff80821115611a7c57600080fd5b611a8889838a016119bf565b96506020880135915080821115611a9e57600080fd5b611aaa89838a016119bf565b95506040880135915080821115611ac057600080fd5b611acc89838a016119bf565b94506060880135915080821115611ae257600080fd5b611aee89838a016119bf565b93506080880135915080821115611b0457600080fd5b50611b11888289016119bf565b9150509295509295909350565b60008060408385031215611b3157600080fd5b611b3a83611773565b9150602083013560ff81168114611b5057600080fd5b809150509250929050565b600080600060608486031215611b7057600080fd5b833567ffffffffffffffff80821115611b8857600080fd5b611b94878388016119bf565b94506020860135915080821115611baa57600080fd5b611bb6878388016119bf565b93506040860135915080821115611bcc57600080fd5b50611bd9868287016119bf565b9150509250925092565b600080600060608486031215611bf857600080fd5b8335925061199960208501611773565b600181811c90821680611c1c57607f821691505b602082108103611c3c57634e487b7160e01b600052602260045260246000fd5b50919050565b634e487b7160e01b600052603260045260246000fd5b600060208284031215611c6a57600080fd5b815180151581146117aa57600080fd5b601f8211156109da576000816000526020600020601f850160051c81016020861015611ca35750805b601f850160051c820191505b81811015611cc257828155600101611caf565b505050505050565b815167ffffffffffffffff811115611ce457611ce46119a9565b611cf881611cf28454611c08565b84611c7a565b602080601f831160018114611d2d5760008415611d155750858301515b600019600386901b1c1916600185901b178555611cc2565b600085815260208120601f198616915b82811015611d5c57888601518255948401946001909101908401611d3d565b5085821015611d7a5787850151600019600388901b60f8161c191681555b5050505050600190811b01905550565b600060018201611daa57634e487b7160e01b600052601160045260246000fd5b506001019056fea2646970667358221220a6a1358c1f1cb5d22d2b3ecedcfe4a10582518d11f8d7c5223ee46571694b64664736f6c63430008180033",
  "devdoc": {
    "events": {
      "Paused(address)": {
        "details": "Emitted when the pause is triggered by `account`."
      },
      "Unpaused(address)": {
        "details": "Emitted when the pause is lifted by `account`."
      }
    },
    "kind": "dev",
    "methods": {
      "becomeAJobber(string,string,string,string,string)": {
        "details": "User sign up to be probation member. o Caller's current membership status must be null. o Must send along with call the sufficient value for signup fee. Note: Fee is denominated in stablecoin e.g uSDT"
      },
      "constructor": {
        "details": "We made an initial push to the jobbers array. This is to ensure  any unregistered user have a default id of 0."
      },
      "myStatus()": {
        "details": "View - Returns membership status of caller Using an array of string literal in memory, we return membership status."
      },
      "owner()": {
        "details": "Returns the address of the current owner."
      },
      "paused()": {
        "details": "Returns true if the contract is paused, and false otherwise."
      },
      "renounceOwnership()": {
        "details": "Leaves the contract without owner. It will not be possible to call `onlyOwner` functions. Can only be called by the current owner. NOTE: Renouncing ownership will leave the contract without an owner, thereby disabling any functionality that is only available to the owner."
      },
      "transferOwnership(address)": {
        "details": "Transfers ownership of the contract to a new account (`newOwner`). Can only be called by the current owner."
      },
      "updateProfileInfo(string,string,string)": {
        "details": "Jobbers can only update field, profileURI and avatar after sign up It costs something to do that"
      },
      "upgradeOrDowngradeUser(address,uint8)": {
        "details": "Upgrade or downgrade'target' o 'target' must be the probation member. o Upgrader must be approved client."
      }
    },
    "stateVariables": {
      "ids": {
        "details": "Membership zone"
      },
      "mShip": {
        "details": "Membership controller"
      }
    },
    "version": 1
  },
  "userdoc": {
    "kind": "user",
    "methods": {},
    "version": 1
  },
  "storageLayout": {
    "storage": [
      {
        "astId": 7,
        "contract": "contracts/jobbers/Jobbers.sol:Jobber",
        "label": "_owner",
        "offset": 0,
        "slot": "0",
        "type": "t_address"
      },
      {
        "astId": 142,
        "contract": "contracts/jobbers/Jobbers.sol:Jobber",
        "label": "_paused",
        "offset": 20,
        "slot": "0",
        "type": "t_bool"
      },
      {
        "astId": 4272,
        "contract": "contracts/jobbers/Jobbers.sol:Jobber",
        "label": "counter",
        "offset": 0,
        "slot": "1",
        "type": "t_uint256"
      },
      {
        "astId": 4274,
        "contract": "contracts/jobbers/Jobbers.sol:Jobber",
        "label": "updateFee",
        "offset": 0,
        "slot": "2",
        "type": "t_uint256"
      },
      {
        "astId": 4276,
        "contract": "contracts/jobbers/Jobbers.sol:Jobber",
        "label": "feeTo",
        "offset": 0,
        "slot": "3",
        "type": "t_address"
      },
      {
        "astId": 4280,
        "contract": "contracts/jobbers/Jobbers.sol:Jobber",
        "label": "mShip",
        "offset": 0,
        "slot": "4",
        "type": "t_struct(MembershipBase)3955_storage"
      },
      {
        "astId": 4285,
        "contract": "contracts/jobbers/Jobbers.sol:Jobber",
        "label": "ids",
        "offset": 0,
        "slot": "6",
        "type": "t_mapping(t_address,t_uint256)"
      },
      {
        "astId": 4289,
        "contract": "contracts/jobbers/Jobbers.sol:Jobber",
        "label": "jobbers",
        "offset": 0,
        "slot": "7",
        "type": "t_array(t_struct(Membership)3950_storage)dyn_storage"
      }
    ],
    "types": {
      "t_address": {
        "encoding": "inplace",
        "label": "address",
        "numberOfBytes": "20"
      },
      "t_array(t_struct(Membership)3950_storage)dyn_storage": {
        "base": "t_struct(Membership)3950_storage",
        "encoding": "dynamic_array",
        "label": "struct ICommon.Membership[]",
        "numberOfBytes": "32"
      },
      "t_bool": {
        "encoding": "inplace",
        "label": "bool",
        "numberOfBytes": "1"
      },
      "t_bytes_storage": {
        "encoding": "bytes",
        "label": "bytes",
        "numberOfBytes": "32"
      },
      "t_enum(Tier)3941": {
        "encoding": "inplace",
        "label": "enum ICommon.Tier",
        "numberOfBytes": "1"
      },
      "t_mapping(t_address,t_uint256)": {
        "encoding": "mapping",
        "key": "t_address",
        "label": "mapping(address => uint256)",
        "numberOfBytes": "32",
        "value": "t_uint256"
      },
      "t_struct(JobberData)3970_storage": {
        "encoding": "inplace",
        "label": "struct ICommon.JobberData",
        "members": [
          {
            "astId": 3957,
            "contract": "contracts/jobbers/Jobbers.sol:Jobber",
            "label": "name",
            "offset": 0,
            "slot": "0",
            "type": "t_bytes_storage"
          },
          {
            "astId": 3959,
            "contract": "contracts/jobbers/Jobbers.sol:Jobber",
            "label": "aka",
            "offset": 0,
            "slot": "1",
            "type": "t_bytes_storage"
          },
          {
            "astId": 3961,
            "contract": "contracts/jobbers/Jobbers.sol:Jobber",
            "label": "field",
            "offset": 0,
            "slot": "2",
            "type": "t_bytes_storage"
          },
          {
            "astId": 3963,
            "contract": "contracts/jobbers/Jobbers.sol:Jobber",
            "label": "profileURI",
            "offset": 0,
            "slot": "3",
            "type": "t_bytes_storage"
          },
          {
            "astId": 3965,
            "contract": "contracts/jobbers/Jobbers.sol:Jobber",
            "label": "avatar",
            "offset": 0,
            "slot": "4",
            "type": "t_bytes_storage"
          },
          {
            "astId": 3967,
            "contract": "contracts/jobbers/Jobbers.sol:Jobber",
            "label": "ratings",
            "offset": 0,
            "slot": "5",
            "type": "t_uint8"
          },
          {
            "astId": 3969,
            "contract": "contracts/jobbers/Jobbers.sol:Jobber",
            "label": "level",
            "offset": 1,
            "slot": "5",
            "type": "t_uint8"
          }
        ],
        "numberOfBytes": "192"
      },
      "t_struct(Membership)3950_storage": {
        "encoding": "inplace",
        "label": "struct ICommon.Membership",
        "members": [
          {
            "astId": 3944,
            "contract": "contracts/jobbers/Jobbers.sol:Jobber",
            "label": "status",
            "offset": 0,
            "slot": "0",
            "type": "t_enum(Tier)3941"
          },
          {
            "astId": 3946,
            "contract": "contracts/jobbers/Jobbers.sol:Jobber",
            "label": "avatarId",
            "offset": 0,
            "slot": "1",
            "type": "t_uint256"
          },
          {
            "astId": 3949,
            "contract": "contracts/jobbers/Jobbers.sol:Jobber",
            "label": "other",
            "offset": 0,
            "slot": "2",
            "type": "t_struct(JobberData)3970_storage"
          }
        ],
        "numberOfBytes": "256"
      },
      "t_struct(MembershipBase)3955_storage": {
        "encoding": "inplace",
        "label": "struct ICommon.MembershipBase",
        "members": [
          {
            "astId": 3952,
            "contract": "contracts/jobbers/Jobbers.sol:Jobber",
            "label": "probFee",
            "offset": 0,
            "slot": "0",
            "type": "t_uint256"
          },
          {
            "astId": 3954,
            "contract": "contracts/jobbers/Jobbers.sol:Jobber",
            "label": "upgrader",
            "offset": 0,
            "slot": "1",
            "type": "t_address"
          }
        ],
        "numberOfBytes": "64"
      },
      "t_uint256": {
        "encoding": "inplace",
        "label": "uint256",
        "numberOfBytes": "32"
      },
      "t_uint8": {
        "encoding": "inplace",
        "label": "uint8",
        "numberOfBytes": "1"
      }
    }
  }
}