{
  "address": "0x9F9f09832942E8A9030C089A589e4Be8AccC190C",
  "abi": [
    {
      "inputs": [
        {
          "internalType": "uint8",
          "name": "_initializer",
          "type": "uint8"
        },
        {
          "internalType": "address",
          "name": "_feeTo",
          "type": "address"
        },
        {
          "internalType": "address",
          "name": "token",
          "type": "address"
        },
        {
          "internalType": "address",
          "name": "_jobberContract",
          "type": "address"
        }
      ],
      "stateMutability": "nonpayable",
      "type": "constructor"
    },
    {
      "inputs": [
        {
          "internalType": "uint8",
          "name": "",
          "type": "uint8"
        }
      ],
      "name": "InvalidSelector",
      "type": "error"
    },
    {
      "inputs": [
        {
          "internalType": "address",
          "name": "pay",
          "type": "address"
        },
        {
          "internalType": "uint256",
          "name": "offer",
          "type": "uint256"
        },
        {
          "internalType": "address",
          "name": "caller",
          "type": "address"
        }
      ],
      "name": "TestError",
      "type": "error"
    },
    {
      "anonymous": false,
      "inputs": [
        {
          "indexed": false,
          "internalType": "uint256",
          "name": "jobId",
          "type": "uint256"
        },
        {
          "indexed": false,
          "internalType": "uint256",
          "name": "newSpotId",
          "type": "uint256"
        },
        {
          "indexed": true,
          "internalType": "address",
          "name": "_trustee",
          "type": "address"
        },
        {
          "indexed": true,
          "internalType": "address",
          "name": "hirer",
          "type": "address"
        }
      ],
      "name": "CompletedJob",
      "type": "event"
    },
    {
      "anonymous": false,
      "inputs": [
        {
          "indexed": false,
          "internalType": "uint256",
          "name": "jobId",
          "type": "uint256"
        },
        {
          "indexed": false,
          "internalType": "uint256",
          "name": "amountRefundToHirer",
          "type": "uint256"
        },
        {
          "indexed": false,
          "internalType": "uint256",
          "name": "amountPaidToJobbers",
          "type": "uint256"
        }
      ],
      "name": "JobCanceled",
      "type": "event"
    },
    {
      "anonymous": false,
      "inputs": [
        {
          "indexed": false,
          "internalType": "uint256",
          "name": "jobId",
          "type": "uint256"
        }
      ],
      "name": "JobCompleted",
      "type": "event"
    },
    {
      "anonymous": false,
      "inputs": [
        {
          "indexed": false,
          "internalType": "uint256",
          "name": "jobId",
          "type": "uint256"
        },
        {
          "indexed": false,
          "internalType": "uint256",
          "name": "offer",
          "type": "uint256"
        },
        {
          "indexed": false,
          "internalType": "address",
          "name": "trustee",
          "type": "address"
        },
        {
          "indexed": false,
          "internalType": "string",
          "name": "detail",
          "type": "string"
        }
      ],
      "name": "JobCreated",
      "type": "event"
    },
    {
      "anonymous": false,
      "inputs": [
        {
          "indexed": true,
          "internalType": "address",
          "name": "previousOwner",
          "type": "address"
        },
        {
          "indexed": true,
          "internalType": "address",
          "name": "newOwner",
          "type": "address"
        }
      ],
      "name": "OwnershipTransferred",
      "type": "event"
    },
    {
      "anonymous": false,
      "inputs": [
        {
          "indexed": false,
          "internalType": "address",
          "name": "account",
          "type": "address"
        }
      ],
      "name": "Paused",
      "type": "event"
    },
    {
      "anonymous": false,
      "inputs": [
        {
          "indexed": false,
          "internalType": "uint256",
          "name": "jobId",
          "type": "uint256"
        },
        {
          "indexed": false,
          "internalType": "uint8[]",
          "name": "jobbers",
          "type": "uint8[]"
        }
      ],
      "name": "RequestApproved",
      "type": "event"
    },
    {
      "anonymous": false,
      "inputs": [
        {
          "indexed": false,
          "internalType": "uint256",
          "name": "jobId",
          "type": "uint256"
        },
        {
          "indexed": true,
          "internalType": "address",
          "name": "jobber",
          "type": "address"
        }
      ],
      "name": "Submission",
      "type": "event"
    },
    {
      "anonymous": false,
      "inputs": [
        {
          "indexed": false,
          "internalType": "address",
          "name": "account",
          "type": "address"
        }
      ],
      "name": "Unpaused",
      "type": "event"
    },
    {
      "anonymous": false,
      "inputs": [
        {
          "indexed": false,
          "internalType": "uint256",
          "name": "jobId",
          "type": "uint256"
        },
        {
          "indexed": true,
          "internalType": "address",
          "name": "jobber",
          "type": "address"
        },
        {
          "indexed": false,
          "internalType": "uint256",
          "name": "actualOffer",
          "type": "uint256"
        },
        {
          "indexed": false,
          "internalType": "uint256",
          "name": "negotiatedPrice",
          "type": "uint256"
        },
        {
          "indexed": false,
          "internalType": "uint256",
          "name": "proposedCompletionDateInDays",
          "type": "uint256"
        }
      ],
      "name": "WorkRequested",
      "type": "event"
    },
    {
      "inputs": [
        {
          "internalType": "uint256",
          "name": "jobId",
          "type": "uint256"
        }
      ],
      "name": "approveCompletion",
      "outputs": [
        {
          "internalType": "bool",
          "name": "",
          "type": "bool"
        }
      ],
      "stateMutability": "nonpayable",
      "type": "function"
    },
    {
      "inputs": [
        {
          "internalType": "uint256",
          "name": "jobId",
          "type": "uint256"
        },
        {
          "internalType": "uint8[]",
          "name": "selectedPositions",
          "type": "uint8[]"
        }
      ],
      "name": "approveRequests",
      "outputs": [
        {
          "internalType": "bool",
          "name": "",
          "type": "bool"
        }
      ],
      "stateMutability": "nonpayable",
      "type": "function"
    },
    {
      "inputs": [],
      "name": "becomeACurator",
      "outputs": [],
      "stateMutability": "nonpayable",
      "type": "function"
    },
    {
      "inputs": [
        {
          "internalType": "address[]",
          "name": "targets",
          "type": "address[]"
        }
      ],
      "name": "blacklistCurators",
      "outputs": [],
      "stateMutability": "nonpayable",
      "type": "function"
    },
    {
      "inputs": [
        {
          "internalType": "uint256",
          "name": "jobId",
          "type": "uint256"
        }
      ],
      "name": "cancelJob",
      "outputs": [
        {
          "internalType": "bool",
          "name": "",
          "type": "bool"
        }
      ],
      "stateMutability": "nonpayable",
      "type": "function"
    },
    {
      "inputs": [],
      "name": "cancellationRate",
      "outputs": [
        {
          "internalType": "uint8",
          "name": "",
          "type": "uint8"
        }
      ],
      "stateMutability": "view",
      "type": "function"
    },
    {
      "inputs": [
        {
          "internalType": "uint256",
          "name": "",
          "type": "uint256"
        }
      ],
      "name": "curators",
      "outputs": [
        {
          "internalType": "enum Curators.Status",
          "name": "status",
          "type": "uint8"
        },
        {
          "internalType": "uint256",
          "name": "id",
          "type": "uint256"
        },
        {
          "internalType": "address",
          "name": "addr",
          "type": "address"
        }
      ],
      "stateMutability": "view",
      "type": "function"
    },
    {
      "inputs": [
        {
          "internalType": "address",
          "name": "",
          "type": "address"
        }
      ],
      "name": "curatorsId",
      "outputs": [
        {
          "internalType": "uint256",
          "name": "",
          "type": "uint256"
        }
      ],
      "stateMutability": "view",
      "type": "function"
    },
    {
      "inputs": [],
      "name": "deleteMe",
      "outputs": [],
      "stateMutability": "nonpayable",
      "type": "function"
    },
    {
      "inputs": [],
      "name": "feeTo",
      "outputs": [
        {
          "internalType": "address",
          "name": "",
          "type": "address"
        }
      ],
      "stateMutability": "view",
      "type": "function"
    },
    {
      "inputs": [
        {
          "internalType": "uint256",
          "name": "jobId",
          "type": "uint256"
        }
      ],
      "name": "getJobInfo",
      "outputs": [
        {
          "components": [
            {
              "components": [
                {
                  "internalType": "enum IJob.JobType",
                  "name": "jobType",
                  "type": "uint8"
                },
                {
                  "internalType": "bytes",
                  "name": "title",
                  "type": "bytes"
                },
                {
                  "internalType": "bytes",
                  "name": "jobRef",
                  "type": "bytes"
                },
                {
                  "internalType": "uint8",
                  "name": "signature",
                  "type": "uint8"
                },
                {
                  "internalType": "uint64",
                  "name": "datePosted",
                  "type": "uint64"
                },
                {
                  "internalType": "uint64",
                  "name": "proposeEnd",
                  "type": "uint64"
                },
                {
                  "internalType": "uint256",
                  "name": "offerPrice",
                  "type": "uint256"
                },
                {
                  "internalType": "address",
                  "name": "hirer",
                  "type": "address"
                },
                {
                  "internalType": "enum IJob.JobStatus",
                  "name": "jStatus",
                  "type": "uint8"
                }
              ],
              "internalType": "struct IJob.Metadata",
              "name": "job",
              "type": "tuple"
            },
            {
              "components": [
                {
                  "internalType": "uint64",
                  "name": "proposedJobEnd",
                  "type": "uint64"
                },
                {
                  "internalType": "uint256",
                  "name": "myBestPrice",
                  "type": "uint256"
                },
                {
                  "internalType": "address",
                  "name": "identifier",
                  "type": "address"
                },
                {
                  "internalType": "bool",
                  "name": "signed",
                  "type": "bool"
                },
                {
                  "internalType": "bool",
                  "name": "acceptance",
                  "type": "bool"
                }
              ],
              "internalType": "struct IJob.Jobber[]",
              "name": "requests",
              "type": "tuple[]"
            },
            {
              "internalType": "bytes[]",
              "name": "tags",
              "type": "bytes[]"
            },
            {
              "internalType": "address",
              "name": "curator",
              "type": "address"
            }
          ],
          "internalType": "struct IJob.JobMetadata",
          "name": "",
          "type": "tuple"
        }
      ],
      "stateMutability": "view",
      "type": "function"
    },
    {
      "inputs": [],
      "name": "getLastJobId",
      "outputs": [
        {
          "internalType": "uint256",
          "name": "",
          "type": "uint256"
        }
      ],
      "stateMutability": "view",
      "type": "function"
    },
    {
      "inputs": [
        {
          "internalType": "address",
          "name": "jobber",
          "type": "address"
        },
        {
          "internalType": "uint256",
          "name": "jobId",
          "type": "uint256"
        }
      ],
      "name": "getPosition",
      "outputs": [
        {
          "internalType": "uint8",
          "name": "",
          "type": "uint8"
        }
      ],
      "stateMutability": "view",
      "type": "function"
    },
    {
      "inputs": [
        {
          "internalType": "uint256",
          "name": "jobId",
          "type": "uint256"
        }
      ],
      "name": "getRequests",
      "outputs": [
        {
          "components": [
            {
              "internalType": "uint64",
              "name": "proposedJobEnd",
              "type": "uint64"
            },
            {
              "internalType": "uint256",
              "name": "myBestPrice",
              "type": "uint256"
            },
            {
              "internalType": "address",
              "name": "identifier",
              "type": "address"
            },
            {
              "internalType": "bool",
              "name": "signed",
              "type": "bool"
            },
            {
              "internalType": "bool",
              "name": "acceptance",
              "type": "bool"
            }
          ],
          "internalType": "struct IJob.Jobber[]",
          "name": "",
          "type": "tuple[]"
        }
      ],
      "stateMutability": "view",
      "type": "function"
    },
    {
      "inputs": [
        {
          "internalType": "uint8",
          "name": "_cancellationRate",
          "type": "uint8"
        },
        {
          "internalType": "uint256",
          "name": "_minimMumOffer",
          "type": "uint256"
        },
        {
          "internalType": "address",
          "name": "_paymentCurrency",
          "type": "address"
        },
        {
          "internalType": "address",
          "name": "_jobbersContract",
          "type": "address"
        }
      ],
      "name": "initialize",
      "outputs": [],
      "stateMutability": "nonpayable",
      "type": "function"
    },
    {
      "inputs": [],
      "name": "jobberContract",
      "outputs": [
        {
          "internalType": "address",
          "name": "",
          "type": "address"
        }
      ],
      "stateMutability": "view",
      "type": "function"
    },
    {
      "inputs": [],
      "name": "minimMumOffer",
      "outputs": [
        {
          "internalType": "uint256",
          "name": "",
          "type": "uint256"
        }
      ],
      "stateMutability": "view",
      "type": "function"
    },
    {
      "inputs": [],
      "name": "owner",
      "outputs": [
        {
          "internalType": "address",
          "name": "",
          "type": "address"
        }
      ],
      "stateMutability": "view",
      "type": "function"
    },
    {
      "inputs": [],
      "name": "pause",
      "outputs": [],
      "stateMutability": "nonpayable",
      "type": "function"
    },
    {
      "inputs": [],
      "name": "paused",
      "outputs": [
        {
          "internalType": "bool",
          "name": "",
          "type": "bool"
        }
      ],
      "stateMutability": "view",
      "type": "function"
    },
    {
      "inputs": [],
      "name": "paymentCurrency",
      "outputs": [
        {
          "internalType": "address",
          "name": "",
          "type": "address"
        }
      ],
      "stateMutability": "view",
      "type": "function"
    },
    {
      "inputs": [
        {
          "internalType": "uint8",
          "name": "jobType",
          "type": "uint8"
        },
        {
          "internalType": "string",
          "name": "title",
          "type": "string"
        },
        {
          "internalType": "string[]",
          "name": "tags",
          "type": "string[]"
        },
        {
          "internalType": "string",
          "name": "jobRef",
          "type": "string"
        },
        {
          "internalType": "uint16",
          "name": "proposedEndDateInDays",
          "type": "uint16"
        },
        {
          "internalType": "uint256",
          "name": "offerPrice",
          "type": "uint256"
        },
        {
          "internalType": "uint256",
          "name": "curatorId",
          "type": "uint256"
        }
      ],
      "name": "postJob",
      "outputs": [
        {
          "internalType": "uint256",
          "name": "jobId",
          "type": "uint256"
        }
      ],
      "stateMutability": "payable",
      "type": "function"
    },
    {
      "inputs": [],
      "name": "probationOfferLimit",
      "outputs": [
        {
          "internalType": "uint256",
          "name": "",
          "type": "uint256"
        }
      ],
      "stateMutability": "view",
      "type": "function"
    },
    {
      "inputs": [],
      "name": "renounceOwnership",
      "outputs": [],
      "stateMutability": "nonpayable",
      "type": "function"
    },
    {
      "inputs": [
        {
          "internalType": "uint256",
          "name": "jobId",
          "type": "uint256"
        },
        {
          "internalType": "uint16",
          "name": "proposedCompletionDateInDays",
          "type": "uint16"
        },
        {
          "internalType": "uint256",
          "name": "myBestPrice",
          "type": "uint256"
        }
      ],
      "name": "requestToWork",
      "outputs": [
        {
          "internalType": "bool",
          "name": "",
          "type": "bool"
        }
      ],
      "stateMutability": "nonpayable",
      "type": "function"
    },
    {
      "inputs": [
        {
          "internalType": "uint8",
          "name": "newRate",
          "type": "uint8"
        }
      ],
      "name": "setCancellationRate",
      "outputs": [],
      "stateMutability": "nonpayable",
      "type": "function"
    },
    {
      "inputs": [
        {
          "internalType": "uint256",
          "name": "_newLimit",
          "type": "uint256"
        }
      ],
      "name": "setOfferLimit",
      "outputs": [],
      "stateMutability": "nonpayable",
      "type": "function"
    },
    {
      "inputs": [
        {
          "internalType": "uint256",
          "name": "_newLimit",
          "type": "uint256"
        }
      ],
      "name": "setProbationOfferLimit",
      "outputs": [],
      "stateMutability": "nonpayable",
      "type": "function"
    },
    {
      "inputs": [
        {
          "internalType": "uint256",
          "name": "jobId",
          "type": "uint256"
        }
      ],
      "name": "submitAndSignCompletion",
      "outputs": [
        {
          "internalType": "bool",
          "name": "_return",
          "type": "bool"
        }
      ],
      "stateMutability": "nonpayable",
      "type": "function"
    },
    {
      "inputs": [
        {
          "internalType": "address",
          "name": "newOwner",
          "type": "address"
        }
      ],
      "name": "transferOwnership",
      "outputs": [],
      "stateMutability": "nonpayable",
      "type": "function"
    },
    {
      "inputs": [
        {
          "internalType": "address",
          "name": "",
          "type": "address"
        }
      ],
      "name": "trustees",
      "outputs": [
        {
          "internalType": "address",
          "name": "",
          "type": "address"
        }
      ],
      "stateMutability": "view",
      "type": "function"
    },
    {
      "inputs": [],
      "name": "unpause",
      "outputs": [],
      "stateMutability": "nonpayable",
      "type": "function"
    },
    {
      "inputs": [],
      "name": "viewJobs",
      "outputs": [
        {
          "components": [
            {
              "components": [
                {
                  "internalType": "enum IJob.JobType",
                  "name": "jobType",
                  "type": "uint8"
                },
                {
                  "internalType": "bytes",
                  "name": "title",
                  "type": "bytes"
                },
                {
                  "internalType": "bytes",
                  "name": "jobRef",
                  "type": "bytes"
                },
                {
                  "internalType": "uint8",
                  "name": "signature",
                  "type": "uint8"
                },
                {
                  "internalType": "uint64",
                  "name": "datePosted",
                  "type": "uint64"
                },
                {
                  "internalType": "uint64",
                  "name": "proposeEnd",
                  "type": "uint64"
                },
                {
                  "internalType": "uint256",
                  "name": "offerPrice",
                  "type": "uint256"
                },
                {
                  "internalType": "address",
                  "name": "hirer",
                  "type": "address"
                },
                {
                  "internalType": "enum IJob.JobStatus",
                  "name": "jStatus",
                  "type": "uint8"
                }
              ],
              "internalType": "struct IJob.Metadata",
              "name": "job",
              "type": "tuple"
            },
            {
              "components": [
                {
                  "internalType": "uint64",
                  "name": "proposedJobEnd",
                  "type": "uint64"
                },
                {
                  "internalType": "uint256",
                  "name": "myBestPrice",
                  "type": "uint256"
                },
                {
                  "internalType": "address",
                  "name": "identifier",
                  "type": "address"
                },
                {
                  "internalType": "bool",
                  "name": "signed",
                  "type": "bool"
                },
                {
                  "internalType": "bool",
                  "name": "acceptance",
                  "type": "bool"
                }
              ],
              "internalType": "struct IJob.Jobber[]",
              "name": "requests",
              "type": "tuple[]"
            },
            {
              "internalType": "bytes[]",
              "name": "tags",
              "type": "bytes[]"
            },
            {
              "internalType": "address",
              "name": "curator",
              "type": "address"
            }
          ],
          "internalType": "struct IJob.JobMetadata[]",
          "name": "all",
          "type": "tuple[]"
        }
      ],
      "stateMutability": "view",
      "type": "function"
    },
    {
      "inputs": [
        {
          "internalType": "address[]",
          "name": "targets",
          "type": "address[]"
        }
      ],
      "name": "whitelistCurators",
      "outputs": [],
      "stateMutability": "nonpayable",
      "type": "function"
    },
    {
      "inputs": [
        {
          "internalType": "address",
          "name": "to",
          "type": "address"
        },
        {
          "internalType": "uint256",
          "name": "amount",
          "type": "uint256"
        }
      ],
      "name": "withdraw",
      "outputs": [],
      "stateMutability": "nonpayable",
      "type": "function"
    },
    {
      "stateMutability": "payable",
      "type": "receive"
    }
  ],
  "transactionHash": "0xe64c402ac547fe1a4799cd6aadac2f05eafde58c4a5e7fa4669c0524b40e5402",
  "args": [
    50,
    "0xe09e23F8a8032BB39326098802c970f9b48D726C",
    "0x6c0DB3faE880a23f6b31e3DDa68866E3Ba2Bb57B",
    "0x3cEF6b4a818fC29F7E5046DB55C50B226Df38934"
  ],
  "numDeployments": 3,
  "solcInputHash": "285e7ab6365e8c9b93d6ff88e895f0c1",
  "bytecode": "0x60806040523480156200001157600080fd5b50604051620051cc380380620051cc83398101604081905262000034916200012d565b600280546001600160a01b038086166001600160a01b0319928316179092556003805483861690831617905560018054928416929091169190911790556008805460ff191690556200008d620000873390565b620000b6565b505060098054600101815560005250600c805460ff191660ff9290921691909117905562000191565b600880546001600160a01b03838116610100818102610100600160a81b031985161790945560405193909204169182907f8be0079c531659141344cd1fd0a4f28419497f9722a3daafe3b4186f6b6457e090600090a35050565b80516001600160a01b03811681146200012857600080fd5b919050565b600080600080608085870312156200014457600080fd5b845160ff811681146200015657600080fd5b9350620001666020860162000110565b9250620001766040860162000110565b9150620001866060860162000110565b905092959194509250565b61502b80620001a16000396000f3fe608060405260043610620002335760003560e01c8063710a676f116200012f578063cb3097e711620000ad578063e38f1ead1162000078578063e38f1ead14620006b9578063e6dcaca814620006d1578063eee608a414620006f8578063f2fde38b1462000732578063f3fef3a3146200075757600080fd5b8063cb3097e71462000608578063d5e78829146200062a578063dbce2465146200065e578063dff43434146200068357600080fd5b80638da5cb5b11620000fa5780638da5cb5b146200055e57806393a5bc41146200058357806395987e8114620005a8578063ab53249414620005c0578063bf9d486a14620005d757600080fd5b8063710a676f14620004d7578063715018a614620004fa5780637f4497d814620005125780638456cb59146200054657600080fd5b80633d15cc6d11620001bd57806350a40439116200018857806350a40439146200042957806355e8734e146200044e5780635c975abb14620004735780635d3757e2146200048d5780636a95d21414620004b257600080fd5b80633d15cc6d14620003b25780633f4ba83a14620003d457806346f51d8614620003ec5780634da97ac3146200040457600080fd5b80631dffa3dc11620001fe5780631dffa3dc146200030857806323d75d8a146200033e57806338624bf514620003555780633adbb5af146200037a57600080fd5b8063017e7e58146200025857806316b0232e1462000297578063176f836b14620002be5780631a1a4cbe14620002e357600080fd5b36620002535760025462000251906001600160a01b0316346200077c565b005b600080fd5b3480156200026557600080fd5b506002546200027a906001600160a01b031681565b6040516001600160a01b0390911681526020015b60405180910390f35b348015620002a457600080fd5b50620002af60045481565b6040519081526020016200028e565b348015620002cb57600080fd5b5062000251620002dd36600462003907565b620008a4565b348015620002f057600080fd5b50620002516200030236600462003931565b620008b3565b3480156200031557600080fd5b506200032d6200032736600462003907565b620008f6565b60405190151581526020016200028e565b3480156200034b57600080fd5b50600554620002af565b3480156200036257600080fd5b506200032d6200037436600462003970565b620009e1565b3480156200038757600080fd5b506200039f62000399366004620039c0565b62000c52565b60405160ff90911681526020016200028e565b348015620003bf57600080fd5b506003546200027a906001600160a01b031681565b348015620003e157600080fd5b506200025162000cb3565b348015620003f957600080fd5b506200025162000cc9565b3480156200041157600080fd5b506200032d6200042336600462003a5c565b62000dec565b3480156200043657600080fd5b50620002516200044836600462003907565b62001047565b3480156200045b57600080fd5b50620002516200046d36600462003b12565b62001056565b3480156200048057600080fd5b5060085460ff166200032d565b3480156200049a57600080fd5b506200032d620004ac36600462003907565b62001105565b348015620004bf57600080fd5b5062000251620004d136600462003b12565b6200134d565b348015620004e457600080fd5b506003546200039f90600160a01b900460ff1681565b3480156200050757600080fd5b506200025162001421565b3480156200051f57600080fd5b50620005376200053136600462003907565b62001437565b6040516200028e919062003e56565b3480156200055357600080fd5b506200025162001481565b3480156200056b57600080fd5b5060085461010090046001600160a01b03166200027a565b3480156200059057600080fd5b506200032d620005a236600462003907565b62001495565b348015620005b557600080fd5b506200025162001610565b620002af620005d136600462003ee1565b620016b7565b348015620005e457600080fd5b50620002af620005f63660046200402a565b600a6020526000908152604090205481565b3480156200061557600080fd5b506001546200027a906001600160a01b031681565b3480156200063757600080fd5b506200064f6200064936600462003907565b62001879565b6040516200028e919062004048565b3480156200066b57600080fd5b50620002516200067d3660046200405d565b620018b3565b3480156200069057600080fd5b50620006a8620006a236600462003907565b62001981565b6040516200028e93929190620040b3565b348015620006c657600080fd5b50620002af60005481565b348015620006de57600080fd5b50620006e9620019c2565b6040516200028e9190620040df565b3480156200070557600080fd5b506200027a620007173660046200402a565b600d602052600090815260409020546001600160a01b031681565b3480156200073f57600080fd5b5062000251620007513660046200402a565b620019d3565b3480156200076457600080fd5b506200025162000776366004620039c0565b62001a4f565b80471015620007d25760405162461bcd60e51b815260206004820152601d60248201527f416464726573733a20696e73756666696369656e742062616c616e636500000060448201526064015b60405180910390fd5b6000826001600160a01b03168260405160006040518083038185875af1925050503d806000811462000821576040519150601f19603f3d011682016040523d82523d6000602084013e62000826565b606091505b50509050806200089f5760405162461bcd60e51b815260206004820152603a60248201527f416464726573733a20756e61626c6520746f2073656e642076616c75652c207260448201527f6563697069656e74206d617920686176652072657665727465640000000000006064820152608401620007c9565b505050565b620008ae62001aca565b600455565b620008bd62001b22565b6040805180820190915260018152603760f81b6020820152620008e89060ff83169060649062001b84565b620008f38162001b98565b50565b60006200090262001bc2565b6005546040805180820190915260018152603760f81b60208201528391906200092f908390839062001c0a565b600080600080620009408862001c19565b93509350935093506000600d6000620009563390565b6001600160a01b0390811682526020820192909252604001600020546002549082169250620009909183918591879189918b911662001e6e565b604080518a8152602081018790529081018490527f84b8c0222d4c1d44e21e21825e6cd8cde10e6157958e14a5395cb00841bdbc25906060015b60405180910390a150600198975050505050505050565b6000620009ed62001bc2565b6000620009fa3362001ed6565b60ff161162000a1d5760405162461bcd60e51b8152600401620007c99062004147565b6005546040805180820190915260018152603760f81b602082015285919062000a4a908390839062001c0a565b85600160006005838154811062000a655762000a6562004162565b6000918252602090912060099091020160050154600160a01b900460ff16600481111562000a975762000a9762003ba9565b905062000ad782600481111562000ab25762000ab262003ba9565b604080518082019091526002815261189960f11b602082015260ff8416919062001f4e565b600062000ae48a62001f62565b9050336000891562000af7578962000afe565b825160c001515b9050600061ffff8c161562000b2b5762000b2061ffff8d16620151806200418e565b62ffffff1662000b32565b835160a001515b905062000b48846000015160c00151846200234e565b62000b5383620023fc565b60008c61ffff1611801562000b6f57506301e133808c61ffff16105b62000ba15760405162461bcd60e51b81526020600482015260016024820152603760f81b6044820152606401620007c9565b62000baf838e8385620024ef565b6001600160a01b0383166000908152600760205260409020805467ffffffffffffffff19164263ffffffff16179055835160c00151604080518f8152602081019290925281018c90526001600160401b03821660608201526001600160a01b038416907fcb3a8b1b7488bcb753797634e76ecdb5e46307f2bab7007ca115fd2efdd5676d9060800160405180910390a25060019c9b505050505050505050505050565b6005546040805180820190915260018152603760f81b6020820152600091839162000c81908390839062001c0a565b6001600160a01b038516600090815260066020908152604080832087845290915290205460ff1692505b505092915050565b62000cbd62001b22565b62000cc7620025e4565b565b604080518082019091526002815261191960f11b60208201526000908162000cf13362002638565b600281111562000d055762000d0562003ba9565b14819062000d285760405162461bcd60e51b8152600401620007c99190620041b0565b5060098054336000818152600a602090815260408083208590558051606081018252600180825292810186905290810184905281850186559490915283517f6e1540171b6c0c960b71a7020d9f60077f6af931a8bbf590da0223dacf75c7af600385020180549395939092839160ff19169083600281111562000daf5762000daf62003ba9565b021790555060208201516001820155604090910151600290910180546001600160a01b0319166001600160a01b0390921691909117905550505050565b600062000df862001bc2565b6005546040805180820190915260018152603760f81b602082015284919062000e25908390839062001c0a565b84600160006005838154811062000e405762000e4062004162565b6000918252602090912060099091020160050154600160a01b900460ff16600481111562000e725762000e7262003ba9565b905062000e8d82600481111562000ab25762000ab262003ba9565b600062000e9a8962001f62565b805160e0015190915062000eb790335b8360600151600162002683565b62000ef06001604051806040016040528060018152602001601960f91b81525060008460200151516200271e909392919063ffffffff16565b5060005b88518160ff16101562001005576000898260ff168151811062000f1b5762000f1b62004162565b6020026020010151905062000f866000604051806040016040528060018152602001600760fb1b81525085602001518460ff168151811062000f615762000f6162004162565b6020026020010151604001516001600160a01b03166200274b9092919063ffffffff16565b600083602001518260ff168151811062000fa45762000fa462004162565b602002602001015160000151905062000fbe8c836200276c565b836000015160a001516001600160401b0316816001600160401b0316111562000fed5762000fed8c82620027d8565b5050808062000ffc90620041c5565b91505062000ef4565b50620010138960026200282b565b507f3e1487bbb756f53171141096103d2b395d2c1cbe91cd7a53c7594c81d05097e98989604051620009ca929190620041e7565b6200105162001aca565b600055565b6200106062001b22565b60005b8151811015620011015760006009600a60008585815181106200108a576200108a62004162565b60200260200101516001600160a01b03166001600160a01b031681526020019081526020016000205481548110620010c657620010c662004162565b60009182526020909120600390910201805460ff19166001836002811115620010f357620010f362003ba9565b021790555060010162001063565b5050565b600080620011133362001ed6565b60ff1611620011365760405162461bcd60e51b8152600401620007c99062004147565b6005546040805180820190915260018152603760f81b602082015283919062001163908390839062001c0a565b6200116d62001bc2565b83600260006005838154811062001188576200118862004162565b6000918252602090912060099091020160050154600160a01b900460ff166004811115620011ba57620011ba62003ba9565b9050620011d582600481111562000ab25762000ab262003ba9565b6000620011e28862001f62565b3360008181526006602090815260408083208d8452909152812054929350909160ff169050620012616000604051806040016040528060018152602001603960f81b81525085602001518460ff168151811062001243576200124362004162565b6020026020010151606001511515620028889092919063ffffffff16565b82602001515160010362001287576200127c8a60036200282b565b985050505062001343565b8251606001516000906200129d9060016200422f565b60ff16600203620012bb57506002620012b88b60036200282b565b99505b835160600151600290620012d19060016200422f565b60ff161015620012e2575060019850885b620012ee8b826200289a565b620012fa8b83620028da565b826001600160a01b03167f125cc128025455cb458dc6ba80f03fcab9542337ffb7c6c798a2b3bc4d2fa20c8c6040516200133691815260200190565b60405180910390a2505050505b5050505050919050565b6200135762001b22565b60005b8151811015620011015760008282815181106200137b576200137b62004162565b6020908102919091018101516001600160a01b0381166000908152600a9092526040909120549091506001620013b18362002638565b6002811115620013c557620013c562003ba9565b036200141657600260098281548110620013e357620013e362004162565b60009182526020909120600390910201805460ff1916600183600281111562001410576200141062003ba9565b02179055505b50506001016200135a565b6200142b62001b22565b62000cc7600062002946565b6200144162003791565b6005546040805180820190915260018152603760f81b60208201528391906200146e908390839062001c0a565b620014798462001f62565b949350505050565b6200148b62001b22565b62000cc7620029a0565b6000620014a162001bc2565b816003600060058381548110620014bc57620014bc62004162565b6000918252602090912060099091020160050154600160a01b900460ff166004811115620014ee57620014ee62003ba9565b90506200150982600481111562000ab25762000ab262003ba9565b6005546040805180820190915260018152603760f81b602082015286919062001536908390839062001c0a565b6000620015438862001f62565b805160e0015190915062001558903362000eaa565b620015658860046200282b565b506000806200157c836000015160c00151620029e0565b845160e001516001600160a01b039081166000908152600d6020908152604082205490880151600254959750939550821693620015cc93859390928892670de0b6b3a76400008901921662001e6e565b6040518b81527f02244c8529cb95e213ee542e76e7776342b3dabd10203d01472bbf4441be89299060200160405180910390a15060019a9950505050505050505050565b336000818152600a602052604090205480620016545760405162461bcd60e51b8152602060048201526002602482015261323360f01b6044820152606401620007c9565b600981815481106200166a576200166a62004162565b600091825260208083206003909202909101805460ff191681556001810183905560020180546001600160a01b03191690556001600160a01b03939093168152600a909252506040812055565b6000620016c362001bc2565b336000908152600d60205260409020546001600160a01b0316806200175f5760035460405133916001600160a01b031690620016ff9062003800565b6001600160a01b03928316815291166020820152604001604051809103906000f08015801562001733573d6000803e3d6000fd5b50336000908152600d6020526040902080546001600160a01b0319166001600160a01b03831617905590505b600354620017ea906001600160a01b03163383620017e188604051806040016040528060028152602001610c4d60f21b8152506001620017d8600054604051806040016040528060028152602001610c4d60f21b8152506000620017d8620017c43390565b6003546001600160a01b0316903062002a64565b9291906200271e565b92919062002add565b50670de0b6b3a763ffff19909301926200182c898989896200181461ffff8b16620151806200418e565b62ffffff168933620018268b62002b6e565b62002be2565b91507f19cb863002dfd6c0c25bbc389f38108e7a792499c6dbf601f5086ca3cc915006828583896040516200186594939291906200424b565b60405180910390a150979650505050505050565b6005546040805180820190915260018152603760f81b60208201526060918391620018a8908390839062001c0a565b620014798462002f05565b620018bd62001b22565b600c5460ff16620018f65760405162461bcd60e51b8152602060048201526002602482015261313360f01b6044820152606401620007c9565b600c805460ff169060006200190b8362004284565b91906101000a81548160ff021916908360ff160217905550506200197b84848484600092909255600380546001600160a01b039283166001600160a01b031960ff909616600160a01b0286166001600160a81b031990921691909117179055600180549290911691909216179055565b50505050565b600981815481106200199257600080fd5b600091825260209091206003909102018054600182015460029092015460ff90911692506001600160a01b031683565b6060620019ce62002fde565b905090565b620019dd62001b22565b6001600160a01b03811662001a445760405162461bcd60e51b815260206004820152602660248201527f4f776e61626c653a206e6577206f776e657220697320746865207a65726f206160448201526564647265737360d01b6064820152608401620007c9565b620008f38162002946565b62001a5962001b22565b8047101562001a6757600080fd5b6000826001600160a01b03168260405160006040518083038185875af1925050503d806000811462001ab6576040519150601f19603f3d011682016040523d82523d6000602084013e62001abb565b606091505b50509050806200089f57600080fd5b60085461010090046001600160a01b03166001600160a01b0316336001600160a01b03161462000cc75760405162461bcd60e51b8152602060048201526002602482015261313760f01b6044820152606401620007c9565b6008546001600160a01b0361010090910416331462000cc75760405162461bcd60e51b815260206004820181905260248201527f4f776e61626c653a2063616c6c6572206973206e6f7420746865206f776e65726044820152606401620007c9565b6200089f8260ff168460ff161082620033eb565b62001ba262001aca565b6003805460ff909216600160a01b0260ff60a01b19909216919091179055565b60085460ff161562000cc75760405162461bcd60e51b815260206004820152601060248201526f14185d5cd8589b194e881c185d5cd95960821b6044820152606401620007c9565b6200089f8284111582620033eb565b6005546040805180820190915260018152603760f81b60208201526000918291829160609186919062001c50908390839062001c0a565b600062001c5d8862001f62565b905080602001519350806000015160c00151965062001cb2816000015160e00151604051806040016040528060018152602001603360f81b815250336001600160a01b03166200340d9092919063ffffffff16565b80516101000151600390600481111562001cd05762001cd062003ba9565b60ff161062001d075760405162461bcd60e51b8152602060048201526002602482015261189b60f11b6044820152606401620007c9565b600281516101000151600481111562001d245762001d2462003ba9565b148062001d56575080516080015162001d419062015180620042a4565b6001600160401b0316426001600160401b0316115b1562001da657600354600160a01b900460ff16801562001da4576000606462001d8360ff84168b620042ce565b62001d8f9190620042e8565b98899003986064600f82020498508890039650505b505b6005888154811062001dbc5762001dbc62004162565b600091825260208220600990910201805460ff1916815590818162001de560018301826200380e565b62001df56002830160006200380e565b5060038101805470ffffffffffffffffffffffffffffffffff19169055600060048201819055600590910180546001600160a81b031916905562001e3e9060068401906200384d565b62001e4e60078301600062003870565b5060080180546001600160a01b0319169055509496939550919350919050565b62001ece86632d5378e160e01b878787878760405160240162001e969594939291906200430b565b60408051601f198184030181529190526020810180516001600160e01b03166001600160e01b0319909316929092179091526200342d565b505050505050565b6001546040516357f3d98160e11b81526001600160a01b038381166004830152600092169063afe7b30290602401602060405180830381865afa15801562001f22573d6000803e3d6000fd5b505050506040513d601f19601f8201168201806040525081019062001f4891906200434d565b92915050565b6200089f8260ff168460ff161482620033eb565b62001f6c62003791565b6005828154811062001f825762001f8262004162565b60009182526020909120604080516101a081019091526009909202018054829060808201908390829060ff16600281111562001fc25762001fc262003ba9565b600281111562001fd65762001fd662003ba9565b815260200160018201805462001fec906200436d565b80601f01602080910402602001604051908101604052809291908181526020018280546200201a906200436d565b80156200206b5780601f106200203f576101008083540402835291602001916200206b565b820191906000526020600020905b8154815290600101906020018083116200204d57829003601f168201915b5050505050815260200160028201805462002086906200436d565b80601f0160208091040260200160405190810160405280929190818152602001828054620020b4906200436d565b8015620021055780601f10620020d95761010080835404028352916020019162002105565b820191906000526020600020905b815481529060010190602001808311620020e757829003601f168201915b5050509183525050600382015460ff80821660208401526001600160401b03610100830481166040850152600160481b9092049091166060830152600480840154608084015260058401546001600160a01b03811660a085015260c090930192600160a01b90049091169081111562002182576200218262003ba9565b600481111562002196576200219662003ba9565b81525050815260200160068201805480602002602001604051908101604052809291908181526020016000905b82821015620022485760008481526020908190206040805160a0810182526003860290920180546001600160401b03168352600180820154848601526002909101546001600160a01b0381169284019290925260ff600160a01b8304811615156060850152600160a81b909204909116151560808301529083529092019101620021c3565b50505050815260200160078201805480602002602001604051908101604052809291908181526020016000905b828210156200232b57838290600052602060002001805462002297906200436d565b80601f0160208091040260200160405190810160405280929190818152602001828054620022c5906200436d565b8015620023165780601f10620022ea5761010080835404028352916020019162002316565b820191906000526020600020905b815481529060010190602001808311620022f857829003601f168201915b50505050508152602001906001019062002275565b50505090825250600891909101546001600160a01b031660209091015292915050565b600154604051631c9b4a7d60e31b81526001600160a01b038381166004830152600092169063e4da53e890602401602060405180830381865afa1580156200239a573d6000803e3d6000fd5b505050506040513d601f19601f82011682018060405250810190620023c09190620043a9565b9050806001036200089f57600454156200089f576004546040805180820190915260018152600d60fa1b60208201526200089f91859162001c0a565b6000620024098262001ed6565b90508060ff16600103620024c9576001600160a01b0382166000908152600760205260408120546001600160401b0316908190036200247a576001600160a01b0383166000908152600760205260409020805467ffffffffffffffff1916426001600160401b0316179055620024c7565b6200248981624f1a00620042a4565b6001600160401b03164210620024c75760405162461bcd60e51b8152602060048201526002602482015261031360f41b6044820152606401620007c9565b505b8060ff16600003620011015760405162461bcd60e51b8152600401620007c99062004147565b620024fb848462003505565b506005838154811062002512576200251262004162565b600091825260208083206040805160a0810182526001600160401b0397881681528084019687526001600160a01b03998a169181019182526060810186815260808201878152600660099097029094019590950180546001818101835591885294909620905160039094020180549390971667ffffffffffffffff19909316929092178655935192850192909255905160029093018054915192511515600160a81b0260ff60a81b19931515600160a01b026001600160a81b0319909316949096169390931717169290921790915550565b620025ee6200354e565b6008805460ff191690557f5db9ee0a495bf2e6ff9c91a7834c1ba4fdd244a5e8aa4e537bd38aeae4b073aa335b6040516001600160a01b03909116815260200160405180910390a1565b6001600160a01b0381166000908152600a6020526040812054600980548290811062002668576200266862004162565b600091825260209091206003909102015460ff169392505050565b6000846001600160a01b0316846001600160a01b031603620026a3575060015b80158015620026af5750815b15620026e3576001600160a01b03831615620026e357826001600160a01b0316846001600160a01b031603620026e3575060015b80620027175760405162461bcd60e51b8152602060048201526002602482015261313560f01b6044820152606401620007c9565b5050505050565b60006200272f8486101584620033eb565b60ff82161562002740578362002742565b845b95945050505050565b6200089f826001600160a01b0316846001600160a01b0316141582620033eb565b60016005838154811062002784576200278462004162565b90600052602060002090600902016006018260ff1681548110620027ac57620027ac62004162565b906000526020600020906003020160020160156101000a81548160ff0219169083151502179055505050565b8060058381548110620027ef57620027ef62004162565b906000526020600020906009020160000160030160096101000a8154816001600160401b0302191690836001600160401b031602179055505050565b6000816005848154811062002844576200284462004162565b60009182526020909120600560099092020101805460ff60a01b1916600160a01b8360048111156200287a576200287a62003ba9565b021790555060019392505050565b6200089f8215158415151482620033eb565b8060058381548110620028b157620028b162004162565b60009182526020909120600990910201600301805460ff191660ff929092169190911790555050565b600160058381548110620028f257620028f262004162565b90600052602060002090600902016006018260ff16815481106200291a576200291a62004162565b906000526020600020906003020160020160146101000a81548160ff0219169083151502179055505050565b600880546001600160a01b03838116610100818102610100600160a81b031985161790945560405193909204169182907f8be0079c531659141344cd1fd0a4f28419497f9722a3daafe3b4186f6b6457e090600090a35050565b620029aa62001bc2565b6008805460ff191660011790557f62e78cea01bee320cd4e420270b5ea74000d11b0c9f74754ebdbfc544b05a2586200261b3390565b600080670de0b6b3a764000083101562002a345760405162461bcd60e51b8152602060048201526014602482015273125b9d985b1a590819dc9bdcdcc8185b5bdd5b9d60621b6044820152606401620007c9565b606462002a43846005620042ce565b62002a4f9190620042e8565b905062002a5d8184620043c3565b9150915091565b604051636eb1769f60e11b81526001600160a01b03838116600483015282811660248301526000919085169063dd62ed3e90604401602060405180830381865afa15801562002ab7573d6000803e3d6000fd5b505050506040513d601f19601f82011682018060405250810190620014799190620043a9565b6000841562002740576040516323b872dd60e01b81526001600160a01b0384811660048301528381166024830152604482018790528516906323b872dd906064016020604051808303816000875af115801562002b3e573d6000803e3d6000fd5b505050506040513d601f19601f8201168201806040525081019062002b649190620043d9565b6200274057600080fd5b600954600090821062002ba95760405162461bcd60e51b8152602060048201526002602482015261323160f01b6044820152606401620007c9565b6009828154811062002bbf5762002bbf62004162565b60009182526020909120600260039092020101546001600160a01b031692915050565b600060038960ff161062002c1e5760405162461bcd60e51b8152602060048201526002602482015261313960f01b6044820152606401620007c9565b50600580546001810182556000919091526040805161012081019091528060ff8b16600281111562002c545762002c5462003ba9565b600281111562002c685762002c6862003ba9565b815260200162002c788a62003599565b815260200162002c888862003599565b815260006020820152604001426001600160401b03908116825287166020820152604081018690526001600160a01b038516606082015260800160018152506005828154811062002cdd5762002cdd62004162565b6000918252602090912082516009909202018054909190829060ff1916600183600281111562002d115762002d1162003ba9565b02179055506020820151600182019062002d2c908262004449565b506040820151600282019062002d43908262004449565b506060820151600382018054608085015160a08601516001600160401b03908116600160481b0270ffffffffffffffff000000000000000000199190921661010090810268ffffffffffffffffff1990941660ff90961695909517929092179190911617905560c083015160048084019190915560e08401516005840180546001600160a01b039092166001600160a01b0319831681178255938601519390926001600160a81b03199092161790600160a01b90849081111562002e0b5762002e0b62003ba9565b0217905550905050816005828154811062002e2a5762002e2a62004162565b906000526020600020906009020160080160006101000a8154816001600160a01b0302191690836001600160a01b0316021790555060005b87518160ff16101562002ef8576005828154811062002e855762002e8562004162565b906000526020600020906009020160070162002ec0898360ff168151811062002eb25762002eb262004162565b602002602001015162003599565b8154600181018355600092835260209092209091019062002ee2908262004449565b508062002eef81620041c5565b91505062002e62565b5098975050505050505050565b60606005828154811062002f1d5762002f1d62004162565b9060005260206000209060090201600601805480602002602001604051908101604052809291908181526020016000905b8282101562002fd35760008481526020908190206040805160a0810182526003860290920180546001600160401b03168352600180820154848601526002909101546001600160a01b0381169284019290925260ff600160a01b8304811615156060850152600160a81b90920490911615156080830152908352909201910162002f4e565b505050509050919050565b60606005805480602002602001604051908101604052809291908181526020016000905b82821015620033e257600084815260209020604080516101a08101909152600984029091018054829060808201908390829060ff1660028111156200304b576200304b62003ba9565b60028111156200305f576200305f62003ba9565b815260200160018201805462003075906200436d565b80601f0160208091040260200160405190810160405280929190818152602001828054620030a3906200436d565b8015620030f45780601f10620030c857610100808354040283529160200191620030f4565b820191906000526020600020905b815481529060010190602001808311620030d657829003601f168201915b505050505081526020016002820180546200310f906200436d565b80601f01602080910402602001604051908101604052809291908181526020018280546200313d906200436d565b80156200318e5780601f1062003162576101008083540402835291602001916200318e565b820191906000526020600020905b8154815290600101906020018083116200317057829003601f168201915b5050509183525050600382015460ff80821660208401526001600160401b03610100830481166040850152600160481b9092049091166060830152600480840154608084015260058401546001600160a01b03811660a085015260c090930192600160a01b9004909116908111156200320b576200320b62003ba9565b60048111156200321f576200321f62003ba9565b81525050815260200160068201805480602002602001604051908101604052809291908181526020016000905b82821015620032d15760008481526020908190206040805160a0810182526003860290920180546001600160401b03168352600180820154848601526002909101546001600160a01b0381169284019290925260ff600160a01b8304811615156060850152600160a81b9092049091161515608083015290835290920191016200324c565b50505050815260200160078201805480602002602001604051908101604052809291908181526020016000905b82821015620033b457838290600052602060002001805462003320906200436d565b80601f01602080910402602001604051908101604052809291908181526020018280546200334e906200436d565b80156200339f5780601f1062003373576101008083540402835291602001916200339f565b820191906000526020600020905b8154815290600101906020018083116200338157829003601f168201915b505050505081526020019060010190620032fe565b50505090825250600891909101546001600160a01b0316602091820152908252600192909201910162003002565b50505050905090565b80826200089f5760405162461bcd60e51b8152600401620007c99190620041b0565b6200089f826001600160a01b0316846001600160a01b03161482620033eb565b600062003484826040518060400160405280601f81526020017f5361666543616c6c3a206c6f772d6c6576656c2063616c6c206661696c656400815250856001600160a01b0316620035c49092919063ffffffff16565b8051909150156200089f5780806020019051810190620034a59190620043d9565b6200089f5760405162461bcd60e51b815260206004820152602960248201527f5361666543616c6c3a204552433230206f7065726174696f6e20646964206e6f6044820152681d081cdd58d8d9595960ba1b6064820152608401620007c9565b6000806200351383620035d5565b6001600160a01b03851660009081526006602090815260408083208784529091529020805460ff831660ff1990911617905591505092915050565b60085460ff1662000cc75760405162461bcd60e51b815260206004820152601460248201527314185d5cd8589b194e881b9bdd081c185d5cd95960621b6044820152606401620007c9565b606081604051602001620035ae9190620041b0565b6040516020818303038152906040529050919050565b606062001479848460008562003607565b600060058281548110620035ed57620035ed62004162565b600091825260209091206006600990920201015492915050565b6060824710156200366a5760405162461bcd60e51b815260206004820152602660248201527f416464726573733a20696e73756666696369656e742062616c616e636520666f6044820152651c8818d85b1b60d21b6064820152608401620007c9565b600080866001600160a01b0316858760405162003688919062004515565b60006040518083038185875af1925050503d8060008114620036c7576040519150601f19603f3d011682016040523d82523d6000602084013e620036cc565b606091505b5091509150620036df87838387620036ea565b979650505050505050565b606083156200375e57825160000362003756576001600160a01b0385163b620037565760405162461bcd60e51b815260206004820152601d60248201527f416464726573733a2063616c6c20746f206e6f6e2d636f6e74726163740000006044820152606401620007c9565b508162001479565b620014798383815115620037755781518083602001fd5b8060405162461bcd60e51b8152600401620007c99190620041b0565b604080516101a08101909152600060808201818152606060a0840181905260c084015260e0830182905261010083018290526101208301829052610140830182905261016083018290526101808301919091528190815260606020820181905260408201819052600091015290565b610ac2806200453483390190565b5080546200381c906200436d565b6000825580601f106200382d575050565b601f016020900490600052602060002090810190620008f3919062003890565b5080546000825560030290600052602060002090810190620008f39190620038ab565b5080546000825590600052602060002090810190620008f39190620038e6565b5b80821115620038a7576000815560010162003891565b5090565b5b80821115620038a757805467ffffffffffffffff19168155600060018201556002810180546001600160b01b0319169055600301620038ac565b80821115620038a7576000620038fd82826200380e565b50600101620038e6565b6000602082840312156200391a57600080fd5b5035919050565b60ff81168114620008f357600080fd5b6000602082840312156200394457600080fd5b8135620039518162003921565b9392505050565b803561ffff811681146200396b57600080fd5b919050565b6000806000606084860312156200398657600080fd5b83359250620039986020850162003958565b9150604084013590509250925092565b80356001600160a01b03811681146200396b57600080fd5b60008060408385031215620039d457600080fd5b620039df83620039a8565b946020939093013593505050565b634e487b7160e01b600052604160045260246000fd5b604051601f8201601f191681016001600160401b038111828210171562003a2e5762003a2e620039ed565b604052919050565b60006001600160401b0382111562003a525762003a52620039ed565b5060051b60200190565b6000806040838503121562003a7057600080fd5b823591506020808401356001600160401b0381111562003a8f57600080fd5b8401601f8101861362003aa157600080fd5b803562003ab862003ab28262003a36565b62003a03565b81815260059190911b8201830190838101908883111562003ad857600080fd5b928401925b8284101562003b0357833562003af38162003921565b8252928401929084019062003add565b80955050505050509250929050565b6000602080838503121562003b2657600080fd5b82356001600160401b0381111562003b3d57600080fd5b8301601f8101851362003b4f57600080fd5b803562003b6062003ab28262003a36565b81815260059190911b8201830190838101908783111562003b8057600080fd5b928401925b82841015620036df5762003b9984620039a8565b8252928401929084019062003b85565b634e487b7160e01b600052602160045260246000fd5b60038110620008f357620008f362003ba9565b62003bdd8162003bbf565b9052565b60005b8381101562003bfe57818101518382015260200162003be4565b50506000910152565b6000815180845262003c2181602086016020860162003be1565b601f01601f19169290920160200192915050565b6005811062003bdd5762003bdd62003ba9565b60008151808452602080850194506020840160005b8381101562003cbb57815180516001600160401b0316885283810151848901526040808201516001600160a01b03169089015260608082015115159089015260809081015115159088015260a0909601959082019060010162003c5d565b509495945050505050565b60008282518085526020808601955060208260051b8401016020860160005b8481101562003d1757601f1986840301895262003d0483835162003c07565b9884019892509083019060010162003ce5565b5090979650505050505050565b600081516080845262003d3c60808501825162003bd2565b60208101516101208060a087015262003d5a6101a087018362003c07565b91506040830151607f198784030160c088015262003d79838262003c07565b925050606083015162003d9160e088018260ff169052565b50608083015161010062003daf818901836001600160401b03169052565b60a08501516001600160401b0316928801929092525060c083015161014087015260e08301516001600160a01b0316610160870152909101519062003df961018086018362003c35565b60208401519150848103602086015262003e14818362003c48565b9150506040830151848203604086015262003e30828262003cc6565b915050606083015162003e4e60608601826001600160a01b03169052565b509392505050565b60208152600062003951602083018462003d24565b600082601f83011262003e7d57600080fd5b81356001600160401b0381111562003e995762003e99620039ed565b62003eae601f8201601f191660200162003a03565b81815284602083860101111562003ec457600080fd5b816020850160208301376000918101602001919091529392505050565b600080600080600080600060e0888a03121562003efd57600080fd5b62003f09883562003921565b8735965060208801356001600160401b038082111562003f2857600080fd5b62003f368b838c0162003e6b565b975060408a013591508082111562003f4d57600080fd5b818a0191508a601f83011262003f6257600080fd5b813562003f7362003ab28262003a36565b8082825260208201915060208360051b86010192508d83111562003f9657600080fd5b602085015b8381101562003fd457848135111562003fb357600080fd5b62003fc58f6020833589010162003e6b565b83526020928301920162003f9b565b509850505060608a013591508082111562003fee57600080fd5b5062003ffd8a828b0162003e6b565b9450506200400e6080890162003958565b925060a0880135915060c0880135905092959891949750929550565b6000602082840312156200403d57600080fd5b6200395182620039a8565b60208152600062003951602083018462003c48565b600080600080608085870312156200407457600080fd5b8435620040818162003921565b9350602085013592506200409860408601620039a8565b9150620040a860608601620039a8565b905092959194509250565b60608101620040c28562003bbf565b93815260208101929092526001600160a01b031660409091015290565b600060208083016020845280855180835260408601915060408160051b87010192506020870160005b828110156200413a57603f198886030184526200412785835162003d24565b9450928501929085019060010162004108565b5092979650505050505050565b6020808252600190820152603160f81b604082015260600190565b634e487b7160e01b600052603260045260246000fd5b634e487b7160e01b600052601160045260246000fd5b62ffffff81811683821602808216919082811462000cab5762000cab62004178565b60208152600062003951602083018462003c07565b600060ff821660ff8103620041de57620041de62004178565b60010192915050565b60006040820184835260206040602085015281855180845260608601915060208701935060005b8181101562003d1757845160ff16835293830193918301916001016200420e565b60ff818116838216019081111562001f485762001f4862004178565b84815283602082015260018060a01b03831660408201526080606082015260006200427a608083018462003c07565b9695505050505050565b600060ff8216806200429a576200429a62004178565b6000190192915050565b6001600160401b03818116838216019080821115620042c757620042c762004178565b5092915050565b808202811582820484141762001f485762001f4862004178565b6000826200430657634e487b7160e01b600052601260045260246000fd5b500490565b60a0815260006200432060a083018862003c48565b602083019690965250604081019390935260608301919091526001600160a01b0316608090910152919050565b6000602082840312156200436057600080fd5b8151620039518162003921565b600181811c908216806200438257607f821691505b602082108103620043a357634e487b7160e01b600052602260045260246000fd5b50919050565b600060208284031215620043bc57600080fd5b5051919050565b8181038181111562001f485762001f4862004178565b600060208284031215620043ec57600080fd5b815180151581146200395157600080fd5b601f8211156200089f576000816000526020600020601f850160051c81016020861015620044285750805b601f850160051c820191505b8181101562001ece5782815560010162004434565b81516001600160401b03811115620044655762004465620039ed565b6200447d816200447684546200436d565b84620043fd565b602080601f831160018114620044b557600084156200449c5750858301515b600019600386901b1c1916600185901b17855562001ece565b600085815260208120601f198616915b82811015620044e657888601518255948401946001909101908401620044c5565b5085821015620045055787850151600019600388901b60f8161c191681555b5050505050600190811b01905550565b600082516200452981846020870162003be1565b919091019291505056fe608060405234801561001057600080fd5b50604051610ac2380380610ac283398101604081905261002f916100d9565b6100383361006d565b60018055600480546001600160a01b039384166001600160a01b0319918216179091556005805492909316911617905561010c565b600080546001600160a01b038381166001600160a01b0319831681178455604051919092169283917f8be0079c531659141344cd1fd0a4f28419497f9722a3daafe3b4186f6b6457e09190a35050565b80516001600160a01b03811681146100d457600080fd5b919050565b600080604083850312156100ec57600080fd5b6100f5836100bd565b9150610103602084016100bd565b90509250929050565b6109a78061011b6000396000f3fe6080604052600436106100955760003560e01c806350188301116100595780635018830114610167578063715018a61461017d5780638da5cb5b14610194578063f2fde38b146101b2578063f7462b2f146101d257600080fd5b806313a11be6146100a15780632d5378e1146100de5780632edd8b4d1461010e5780633b92f3df146101325780633ccfd60b1461015f57600080fd5b3661009c57005b600080fd5b3480156100ad57600080fd5b506005546100c1906001600160a01b031681565b6040516001600160a01b0390911681526020015b60405180910390f35b3480156100ea57600080fd5b506100fe6100f936600461077d565b6101f2565b60405190151581526020016100d5565b34801561011a57600080fd5b5061012460035481565b6040519081526020016100d5565b34801561013e57600080fd5b5061012461014d3660046108ba565b60066020526000908152604090205481565b6100fe610360565b34801561017357600080fd5b5061012460025481565b34801561018957600080fd5b506101926103fc565b005b3480156101a057600080fd5b506000546001600160a01b03166100c1565b3480156101be57600080fd5b506101926101cd3660046108ba565b610410565b3480156101de57600080fd5b506004546100c1906001600160a01b031681565b60006101fc610489565b60006102066104e3565b8751909150600061021782896108dc565b905061022387896108fe565b8310156102775760405162461bcd60e51b815260206004820152601960248201527f547275737465653a2042616c616e63657320746f6f206c6f770000000000000060448201526064015b60405180910390fd5b8615610287576102878588610569565b87156102ff5760005b828110156102fd5760008a82815181106102ac576102ac610925565b60200260200101516040015190508260066000836001600160a01b03166001600160a01b0316815260200190815260200160002060008282546102ef91906108fe565b909155505050600101610290565b505b851561035157856006600061031c6004546001600160a01b031690565b6001600160a01b03166001600160a01b03168152602001908152602001600020600082825461034b91906108fe565b90915550505b50600198975050505050505050565b600061036a61063a565b33600081815260066020526040902054806103c75760405162461bcd60e51b815260206004820152601c60248201527f547275737465653a204e6f7468696e6720746f20776974686472617700000000604482015260640161026e565b6001600160a01b0382166000908152600660205260408120556103ea8282610569565b6001925050506103f960018055565b90565b610404610489565b61040e6000610693565b565b610418610489565b6001600160a01b03811661047d5760405162461bcd60e51b815260206004820152602660248201527f4f776e61626c653a206e6577206f776e657220697320746865207a65726f206160448201526564647265737360d01b606482015260840161026e565b61048681610693565b50565b6000546001600160a01b0316331461040e5760405162461bcd60e51b815260206004820181905260248201527f4f776e61626c653a2063616c6c6572206973206e6f7420746865206f776e6572604482015260640161026e565b6000806104f86005546001600160a01b031690565b6040516370a0823160e01b81523060048201529091506001600160a01b038216906370a0823190602401602060405180830381865afa15801561053f573d6000803e3d6000fd5b505050506040513d601f19601f82011682018060405250810190610563919061093b565b91505090565b6005546001600160a01b031660405163a9059cbb60e01b81526001600160a01b03848116600483015260248201849052919091169063a9059cbb906044016020604051808303816000875af11580156105c6573d6000803e3d6000fd5b505050506040513d601f19601f820116820180604052508101906105ea9190610954565b6106365760405162461bcd60e51b815260206004820152601a60248201527f547275737465653a205769746864726177616c206661696c6564000000000000604482015260640161026e565b5050565b60026001540361068c5760405162461bcd60e51b815260206004820152601f60248201527f5265656e7472616e637947756172643a207265656e7472616e742063616c6c00604482015260640161026e565b6002600155565b600080546001600160a01b038381166001600160a01b0319831681178455604051919092169283917f8be0079c531659141344cd1fd0a4f28419497f9722a3daafe3b4186f6b6457e09190a35050565b634e487b7160e01b600052604160045260246000fd5b60405160a0810167ffffffffffffffff8111828210171561071c5761071c6106e3565b60405290565b604051601f8201601f1916810167ffffffffffffffff8111828210171561074b5761074b6106e3565b604052919050565b80356001600160a01b038116811461076a57600080fd5b919050565b801515811461048657600080fd5b600080600080600060a080878903121561079657600080fd5b863567ffffffffffffffff808211156107ae57600080fd5b818901915089601f8301126107c257600080fd5b81356020828211156107d6576107d66106e3565b6107e4818360051b01610722565b82815260a09092028401810191818101908d84111561080257600080fd5b948201945b838610156108885786868f03121561081f5760008081fd5b6108276106f9565b863586811681146108385760008081fd5b81528684013584820152604061084f818901610753565b908201526060878101356108628161076f565b908201526080878101356108758161076f565b9082015282529486019490820190610807565b9a50508a013597505050604088013594505050606086013591506108ae60808701610753565b90509295509295909350565b6000602082840312156108cc57600080fd5b6108d582610753565b9392505050565b6000826108f957634e487b7160e01b600052601260045260246000fd5b500490565b8082018082111561091f57634e487b7160e01b600052601160045260246000fd5b92915050565b634e487b7160e01b600052603260045260246000fd5b60006020828403121561094d57600080fd5b5051919050565b60006020828403121561096657600080fd5b81516108d58161076f56fea2646970667358221220e1ad620c31aefb90cf0c53706934e300455fe604fba858c1ab99b632a3c2545d64736f6c63430008180033a26469706673582212203b2ad35cc2d8b4fb7ce8b8617212ad4d25d9d9e1997df69fa36a1d0cb21286fe64736f6c63430008180033",
  "devdoc": {
    "events": {
      "Paused(address)": {
        "details": "Emitted when the pause is triggered by `account`."
      },
      "Unpaused(address)": {
        "details": "Emitted when the pause is lifted by `account`."
      }
    },
    "kind": "dev",
    "methods": {
      "approveCompletion(uint256)": {
        "params": {
          "jobId": "- Job index."
        }
      },
      "approveRequests(uint256,uint8[])": {
        "details": "Hirer accepts request (s) to work on job.",
        "params": {
          "jobId": "- Job index",
          "selectedPositions": "- List of jobbers hirer accepts  to collaborate on the job. It should contain jobbers'  position Id. Note - Caller be the creator of job at jobId - Job must be open. - There must be requests greater than 0. It is assumed Hirer has scrutinized properly, the interests shown in job at  jobId, hence, proposed completion time of each collaborator is  evaluated, and that best satisfy the hirer's interest."
        }
      },
      "cancelJob(uint256)": {
        "details": "Cancels job offer @param jobId - {Job index} Note  - Caller must be the hirer of Job with valid JobId. - Caller must not be a contract address. For more info, see { Storage.sol - _removeJob }"
      },
      "constructor": {
        "details": "Initialized storage vars ",
        "params": {
          "_initializer": ": Used to set initial parameters.   The parameters can only be altered the number of times the _initializer was set."
        }
      },
      "getJobInfo(uint256)": {
        "details": "Read single job from storage.",
        "params": {
          "jobId": "- Job index"
        }
      },
      "getPosition(address,uint256)": {
        "details": "See { Storage - _getPosition} ",
        "params": {
          "jobId": "- Job index/position."
        }
      },
      "getRequests(uint256)": {
        "details": "Returns list of interested participants for a job ",
        "params": {
          "jobId": "- {job index} "
        }
      },
      "owner()": {
        "details": "Returns the address of the current owner."
      },
      "pause()": {
        "details": "Halts contract execution  Note: Owner's privilege"
      },
      "paused()": {
        "details": "Returns true if the contract is paused, and false otherwise."
      },
      "postJob(uint8,string,string[],string,uint16,uint256,uint256)": {
        "details": "Posts new Job",
        "params": {
          "curatorId": ": On the frontend, curators are mapped to their respective ids, Hirers may add curator service or not.",
          "jobRef": "- Can be Job URL or any reference to the current job.",
          "offerPrice": ": The amount in stable coin the hirer is willing to pay for this job. Note - Hirer must have given approval to withdraw the offerPrice in cUSD, which must also be greater than minimum offer. Note : Payment currency is in cUSD. ",
          "proposedEndDateInDays": "- Expected duration to complete the job."
        }
      },
      "renounceOwnership()": {
        "details": "Leaves the contract without owner. It will not be possible to call `onlyOwner` functions. Can only be called by the current owner. NOTE: Renouncing ownership will leave the contract without an owner, thereby disabling any functionality that is only available to the owner."
      },
      "requestToWork(uint256,uint16,uint256)": {
        "details": "Jobbers show interest to work on a particular job",
        "params": {
          "jobId": "- The Job id Jobber is applying for. An id not greater than the job array  length is expected.",
          "myBestPrice": "- Best price jobber will accept the job. This enables better negotiation thereby protecting the interests and rights of both parties. Note: Intending Jobber applying for this job must either be on probation or approved member.  ",
          "proposedCompletionDateInDays": "- Jobbers can propose completion date. This however should not be confused for that of the hirer. Hirer will eventually accept or reject the proposal date.  Note: The parameter \"proposedCompletionDateInDays\" should be in days e.g 7"
        }
      },
      "setCancellationRate(uint8)": {
        "details": "Update cancellation fee. Note - Owner's privilege.",
        "params": {
          "newRate": "- Cancellation rate. Rate should not be greater than 100%."
        }
      },
      "submitAndSignCompletion(uint256)": {
        "details": "Utility to submit completed jobs. Note: We enforce strict rules that ensure caller is a  valid collaborator since position of any valid collaborator will always be greater than zero.  - If there is only one collaborator, we simply set  completion and exit the program. - If collaborator is more than one, we check that caller's  signature is not appended before now, otherwise the program reverts. Note If collaborator is more than one, then minimum of 2 signatures are required to  set job state to `completed`.",
        "params": {
          "jobId": "- Job index/position."
        }
      },
      "transferOwnership(address)": {
        "details": "Transfers ownership of the contract to a new account (`newOwner`). Can only be called by the current owner."
      },
      "unpause()": {
        "details": "Continues contract execution  Note: Owner's privilege"
      },
      "viewJobs()": {
        "details": "Read all jobs from storage."
      },
      "whitelistCurators(address[])": {
        "details": "Only Owner can whitelist curators. Such address must have been registered before the invocation can be  successful."
      },
      "withdraw(address,uint256)": {
        "details": "Withdraws from this contract if any. Note - Owner's privilege.",
        "params": {
          "amount": "- Amount to withdraw.",
          "to": "- Address to send funds to."
        }
      }
    },
    "version": 1
  },
  "userdoc": {
    "kind": "user",
    "methods": {
      "approveCompletion(uint256)": {
        "notice": "Hirer confirms and approve that job at jobId was completed and final. Note - Payment (less fee) is splitted among the jobbers. o Jobbers are able to withdraw payment from the trustee. o Rewards are minted to jobbers. Function is able to handle if there was collaboration or not."
      }
    },
    "notice": "ERROR CODE ---------- \"1\" : \"Not a member\". \"2\" : \"No interested participants yet\". \"4\" : \"Probation hit limit. \"6\" : \"Invalid caller\". \"7\" : \"Invalid entry\". \"8\" : \"Approval to zero address\". \"9\" : \"Already signed\". \"11\" : \"Insufficient value provided\". \"13\" : \"Time elapsed: Cannot initialize again\". \"14\" : \"Offer price less than minimumOffer\".  \"15\" : Only owner | curator. \"16\" : Low bal \"17\" : OnlyOwner",
    "version": 1
  },
  "storageLayout": {
    "storage": [
      {
        "astId": 2003,
        "contract": "contracts/JobberCraft.sol:JobberCraft",
        "label": "minimMumOffer",
        "offset": 0,
        "slot": "0",
        "type": "t_uint256"
      },
      {
        "astId": 2005,
        "contract": "contracts/JobberCraft.sol:JobberCraft",
        "label": "jobberContract",
        "offset": 0,
        "slot": "1",
        "type": "t_address"
      },
      {
        "astId": 2007,
        "contract": "contracts/JobberCraft.sol:JobberCraft",
        "label": "feeTo",
        "offset": 0,
        "slot": "2",
        "type": "t_address"
      },
      {
        "astId": 2009,
        "contract": "contracts/JobberCraft.sol:JobberCraft",
        "label": "paymentCurrency",
        "offset": 0,
        "slot": "3",
        "type": "t_address"
      },
      {
        "astId": 2012,
        "contract": "contracts/JobberCraft.sol:JobberCraft",
        "label": "cancellationRate",
        "offset": 20,
        "slot": "3",
        "type": "t_uint8"
      },
      {
        "astId": 2015,
        "contract": "contracts/JobberCraft.sol:JobberCraft",
        "label": "probationOfferLimit",
        "offset": 0,
        "slot": "4",
        "type": "t_uint256"
      },
      {
        "astId": 2019,
        "contract": "contracts/JobberCraft.sol:JobberCraft",
        "label": "jobs",
        "offset": 0,
        "slot": "5",
        "type": "t_array(t_struct(JobMetadata)3523_storage)dyn_storage"
      },
      {
        "astId": 2026,
        "contract": "contracts/JobberCraft.sol:JobberCraft",
        "label": "positions",
        "offset": 0,
        "slot": "6",
        "type": "t_mapping(t_address,t_mapping(t_uint256,t_uint8))"
      },
      {
        "astId": 2030,
        "contract": "contracts/JobberCraft.sol:JobberCraft",
        "label": "compliance",
        "offset": 0,
        "slot": "7",
        "type": "t_mapping(t_address,t_uint64)"
      },
      {
        "astId": 142,
        "contract": "contracts/JobberCraft.sol:JobberCraft",
        "label": "_paused",
        "offset": 0,
        "slot": "8",
        "type": "t_bool"
      },
      {
        "astId": 7,
        "contract": "contracts/JobberCraft.sol:JobberCraft",
        "label": "_owner",
        "offset": 1,
        "slot": "8",
        "type": "t_address"
      },
      {
        "astId": 3052,
        "contract": "contracts/JobberCraft.sol:JobberCraft",
        "label": "curators",
        "offset": 0,
        "slot": "9",
        "type": "t_array(t_struct(Curator)3048_storage)dyn_storage"
      },
      {
        "astId": 3056,
        "contract": "contracts/JobberCraft.sol:JobberCraft",
        "label": "curatorsId",
        "offset": 0,
        "slot": "10",
        "type": "t_mapping(t_address,t_uint256)"
      },
      {
        "astId": 3062,
        "contract": "contracts/JobberCraft.sol:JobberCraft",
        "label": "isCurator",
        "offset": 0,
        "slot": "11",
        "type": "t_mapping(t_address,t_mapping(t_uint256,t_bool))"
      },
      {
        "astId": 1011,
        "contract": "contracts/JobberCraft.sol:JobberCraft",
        "label": "initializer",
        "offset": 0,
        "slot": "12",
        "type": "t_uint8"
      },
      {
        "astId": 1015,
        "contract": "contracts/JobberCraft.sol:JobberCraft",
        "label": "trustees",
        "offset": 0,
        "slot": "13",
        "type": "t_mapping(t_address,t_address)"
      }
    ],
    "types": {
      "t_address": {
        "encoding": "inplace",
        "label": "address",
        "numberOfBytes": "20"
      },
      "t_array(t_bytes_storage)dyn_storage": {
        "base": "t_bytes_storage",
        "encoding": "dynamic_array",
        "label": "bytes[]",
        "numberOfBytes": "32"
      },
      "t_array(t_struct(Curator)3048_storage)dyn_storage": {
        "base": "t_struct(Curator)3048_storage",
        "encoding": "dynamic_array",
        "label": "struct Curators.Curator[]",
        "numberOfBytes": "32"
      },
      "t_array(t_struct(JobMetadata)3523_storage)dyn_storage": {
        "base": "t_struct(JobMetadata)3523_storage",
        "encoding": "dynamic_array",
        "label": "struct IJob.JobMetadata[]",
        "numberOfBytes": "32"
      },
      "t_array(t_struct(Jobber)3534_storage)dyn_storage": {
        "base": "t_struct(Jobber)3534_storage",
        "encoding": "dynamic_array",
        "label": "struct IJob.Jobber[]",
        "numberOfBytes": "32"
      },
      "t_bool": {
        "encoding": "inplace",
        "label": "bool",
        "numberOfBytes": "1"
      },
      "t_bytes_storage": {
        "encoding": "bytes",
        "label": "bytes",
        "numberOfBytes": "32"
      },
      "t_enum(JobStatus)3407": {
        "encoding": "inplace",
        "label": "enum IJob.JobStatus",
        "numberOfBytes": "1"
      },
      "t_enum(JobType)3411": {
        "encoding": "inplace",
        "label": "enum IJob.JobType",
        "numberOfBytes": "1"
      },
      "t_enum(Status)3040": {
        "encoding": "inplace",
        "label": "enum Curators.Status",
        "numberOfBytes": "1"
      },
      "t_mapping(t_address,t_address)": {
        "encoding": "mapping",
        "key": "t_address",
        "label": "mapping(address => address)",
        "numberOfBytes": "32",
        "value": "t_address"
      },
      "t_mapping(t_address,t_mapping(t_uint256,t_bool))": {
        "encoding": "mapping",
        "key": "t_address",
        "label": "mapping(address => mapping(uint256 => bool))",
        "numberOfBytes": "32",
        "value": "t_mapping(t_uint256,t_bool)"
      },
      "t_mapping(t_address,t_mapping(t_uint256,t_uint8))": {
        "encoding": "mapping",
        "key": "t_address",
        "label": "mapping(address => mapping(uint256 => uint8))",
        "numberOfBytes": "32",
        "value": "t_mapping(t_uint256,t_uint8)"
      },
      "t_mapping(t_address,t_uint256)": {
        "encoding": "mapping",
        "key": "t_address",
        "label": "mapping(address => uint256)",
        "numberOfBytes": "32",
        "value": "t_uint256"
      },
      "t_mapping(t_address,t_uint64)": {
        "encoding": "mapping",
        "key": "t_address",
        "label": "mapping(address => uint64)",
        "numberOfBytes": "32",
        "value": "t_uint64"
      },
      "t_mapping(t_uint256,t_bool)": {
        "encoding": "mapping",
        "key": "t_uint256",
        "label": "mapping(uint256 => bool)",
        "numberOfBytes": "32",
        "value": "t_bool"
      },
      "t_mapping(t_uint256,t_uint8)": {
        "encoding": "mapping",
        "key": "t_uint256",
        "label": "mapping(uint256 => uint8)",
        "numberOfBytes": "32",
        "value": "t_uint8"
      },
      "t_struct(Curator)3048_storage": {
        "encoding": "inplace",
        "label": "struct Curators.Curator",
        "members": [
          {
            "astId": 3043,
            "contract": "contracts/JobberCraft.sol:JobberCraft",
            "label": "status",
            "offset": 0,
            "slot": "0",
            "type": "t_enum(Status)3040"
          },
          {
            "astId": 3045,
            "contract": "contracts/JobberCraft.sol:JobberCraft",
            "label": "id",
            "offset": 0,
            "slot": "1",
            "type": "t_uint256"
          },
          {
            "astId": 3047,
            "contract": "contracts/JobberCraft.sol:JobberCraft",
            "label": "addr",
            "offset": 0,
            "slot": "2",
            "type": "t_address"
          }
        ],
        "numberOfBytes": "96"
      },
      "t_struct(JobMetadata)3523_storage": {
        "encoding": "inplace",
        "label": "struct IJob.JobMetadata",
        "members": [
          {
            "astId": 3513,
            "contract": "contracts/JobberCraft.sol:JobberCraft",
            "label": "job",
            "offset": 0,
            "slot": "0",
            "type": "t_struct(Metadata)3510_storage"
          },
          {
            "astId": 3517,
            "contract": "contracts/JobberCraft.sol:JobberCraft",
            "label": "requests",
            "offset": 0,
            "slot": "6",
            "type": "t_array(t_struct(Jobber)3534_storage)dyn_storage"
          },
          {
            "astId": 3520,
            "contract": "contracts/JobberCraft.sol:JobberCraft",
            "label": "tags",
            "offset": 0,
            "slot": "7",
            "type": "t_array(t_bytes_storage)dyn_storage"
          },
          {
            "astId": 3522,
            "contract": "contracts/JobberCraft.sol:JobberCraft",
            "label": "curator",
            "offset": 0,
            "slot": "8",
            "type": "t_address"
          }
        ],
        "numberOfBytes": "288"
      },
      "t_struct(Jobber)3534_storage": {
        "encoding": "inplace",
        "label": "struct IJob.Jobber",
        "members": [
          {
            "astId": 3525,
            "contract": "contracts/JobberCraft.sol:JobberCraft",
            "label": "proposedJobEnd",
            "offset": 0,
            "slot": "0",
            "type": "t_uint64"
          },
          {
            "astId": 3527,
            "contract": "contracts/JobberCraft.sol:JobberCraft",
            "label": "myBestPrice",
            "offset": 0,
            "slot": "1",
            "type": "t_uint256"
          },
          {
            "astId": 3529,
            "contract": "contracts/JobberCraft.sol:JobberCraft",
            "label": "identifier",
            "offset": 0,
            "slot": "2",
            "type": "t_address"
          },
          {
            "astId": 3531,
            "contract": "contracts/JobberCraft.sol:JobberCraft",
            "label": "signed",
            "offset": 20,
            "slot": "2",
            "type": "t_bool"
          },
          {
            "astId": 3533,
            "contract": "contracts/JobberCraft.sol:JobberCraft",
            "label": "acceptance",
            "offset": 21,
            "slot": "2",
            "type": "t_bool"
          }
        ],
        "numberOfBytes": "96"
      },
      "t_struct(Metadata)3510_storage": {
        "encoding": "inplace",
        "label": "struct IJob.Metadata",
        "members": [
          {
            "astId": 3492,
            "contract": "contracts/JobberCraft.sol:JobberCraft",
            "label": "jobType",
            "offset": 0,
            "slot": "0",
            "type": "t_enum(JobType)3411"
          },
          {
            "astId": 3494,
            "contract": "contracts/JobberCraft.sol:JobberCraft",
            "label": "title",
            "offset": 0,
            "slot": "1",
            "type": "t_bytes_storage"
          },
          {
            "astId": 3496,
            "contract": "contracts/JobberCraft.sol:JobberCraft",
            "label": "jobRef",
            "offset": 0,
            "slot": "2",
            "type": "t_bytes_storage"
          },
          {
            "astId": 3498,
            "contract": "contracts/JobberCraft.sol:JobberCraft",
            "label": "signature",
            "offset": 0,
            "slot": "3",
            "type": "t_uint8"
          },
          {
            "astId": 3500,
            "contract": "contracts/JobberCraft.sol:JobberCraft",
            "label": "datePosted",
            "offset": 1,
            "slot": "3",
            "type": "t_uint64"
          },
          {
            "astId": 3502,
            "contract": "contracts/JobberCraft.sol:JobberCraft",
            "label": "proposeEnd",
            "offset": 9,
            "slot": "3",
            "type": "t_uint64"
          },
          {
            "astId": 3504,
            "contract": "contracts/JobberCraft.sol:JobberCraft",
            "label": "offerPrice",
            "offset": 0,
            "slot": "4",
            "type": "t_uint256"
          },
          {
            "astId": 3506,
            "contract": "contracts/JobberCraft.sol:JobberCraft",
            "label": "hirer",
            "offset": 0,
            "slot": "5",
            "type": "t_address"
          },
          {
            "astId": 3509,
            "contract": "contracts/JobberCraft.sol:JobberCraft",
            "label": "jStatus",
            "offset": 20,
            "slot": "5",
            "type": "t_enum(JobStatus)3407"
          }
        ],
        "numberOfBytes": "192"
      },
      "t_uint256": {
        "encoding": "inplace",
        "label": "uint256",
        "numberOfBytes": "32"
      },
      "t_uint64": {
        "encoding": "inplace",
        "label": "uint64",
        "numberOfBytes": "8"
      },
      "t_uint8": {
        "encoding": "inplace",
        "label": "uint8",
        "numberOfBytes": "1"
      }
    }
  }
}