{
  "address": "0xd8Ec81E357A5EC642EEbf16E95c7e054C381F46E",
  "abi": [
    {
      "inputs": [
        {
          "internalType": "address",
          "name": "_factoryAddr",
          "type": "address"
        },
        {
          "internalType": "address",
          "name": "_probationer",
          "type": "address"
        }
      ],
      "stateMutability": "nonpayable",
      "type": "constructor"
    },
    {
      "anonymous": false,
      "inputs": [
        {
          "indexed": true,
          "internalType": "address",
          "name": "owner",
          "type": "address"
        },
        {
          "indexed": true,
          "internalType": "address",
          "name": "approved",
          "type": "address"
        },
        {
          "indexed": true,
          "internalType": "uint256",
          "name": "tokenId",
          "type": "uint256"
        }
      ],
      "name": "Approval",
      "type": "event"
    },
    {
      "anonymous": false,
      "inputs": [
        {
          "indexed": true,
          "internalType": "address",
          "name": "owner",
          "type": "address"
        },
        {
          "indexed": true,
          "internalType": "address",
          "name": "operator",
          "type": "address"
        },
        {
          "indexed": false,
          "internalType": "bool",
          "name": "approved",
          "type": "bool"
        }
      ],
      "name": "ApprovalForAll",
      "type": "event"
    },
    {
      "anonymous": false,
      "inputs": [
        {
          "indexed": true,
          "internalType": "address",
          "name": "previousOwner",
          "type": "address"
        },
        {
          "indexed": true,
          "internalType": "address",
          "name": "newOwner",
          "type": "address"
        }
      ],
      "name": "OwnershipTransferred",
      "type": "event"
    },
    {
      "anonymous": false,
      "inputs": [
        {
          "indexed": false,
          "internalType": "address",
          "name": "account",
          "type": "address"
        }
      ],
      "name": "Paused",
      "type": "event"
    },
    {
      "anonymous": false,
      "inputs": [
        {
          "indexed": true,
          "internalType": "address",
          "name": "from",
          "type": "address"
        },
        {
          "indexed": true,
          "internalType": "address",
          "name": "to",
          "type": "address"
        },
        {
          "indexed": true,
          "internalType": "uint256",
          "name": "tokenId",
          "type": "uint256"
        }
      ],
      "name": "Transfer",
      "type": "event"
    },
    {
      "anonymous": false,
      "inputs": [
        {
          "indexed": false,
          "internalType": "address",
          "name": "account",
          "type": "address"
        }
      ],
      "name": "Unpaused",
      "type": "event"
    },
    {
      "inputs": [
        {
          "internalType": "address",
          "name": "to",
          "type": "address"
        },
        {
          "internalType": "uint256",
          "name": "tokenId",
          "type": "uint256"
        }
      ],
      "name": "approve",
      "outputs": [],
      "stateMutability": "nonpayable",
      "type": "function"
    },
    {
      "inputs": [
        {
          "internalType": "address",
          "name": "owner",
          "type": "address"
        }
      ],
      "name": "balanceOf",
      "outputs": [
        {
          "internalType": "uint256",
          "name": "",
          "type": "uint256"
        }
      ],
      "stateMutability": "view",
      "type": "function"
    },
    {
      "inputs": [
        {
          "internalType": "uint256",
          "name": "tokenId",
          "type": "uint256"
        }
      ],
      "name": "burn",
      "outputs": [
        {
          "internalType": "bool",
          "name": "",
          "type": "bool"
        }
      ],
      "stateMutability": "nonpayable",
      "type": "function"
    },
    {
      "inputs": [
        {
          "internalType": "uint256",
          "name": "tokenId",
          "type": "uint256"
        }
      ],
      "name": "getApproved",
      "outputs": [
        {
          "internalType": "address",
          "name": "",
          "type": "address"
        }
      ],
      "stateMutability": "view",
      "type": "function"
    },
    {
      "inputs": [
        {
          "internalType": "address",
          "name": "owner",
          "type": "address"
        },
        {
          "internalType": "address",
          "name": "operator",
          "type": "address"
        }
      ],
      "name": "isApprovedForAll",
      "outputs": [
        {
          "internalType": "bool",
          "name": "",
          "type": "bool"
        }
      ],
      "stateMutability": "view",
      "type": "function"
    },
    {
      "inputs": [
        {
          "internalType": "address",
          "name": "to",
          "type": "address"
        },
        {
          "internalType": "uint256",
          "name": "tokenId",
          "type": "uint256"
        }
      ],
      "name": "mint",
      "outputs": [
        {
          "internalType": "bool",
          "name": "_return",
          "type": "bool"
        }
      ],
      "stateMutability": "nonpayable",
      "type": "function"
    },
    {
      "inputs": [],
      "name": "name",
      "outputs": [
        {
          "internalType": "string",
          "name": "",
          "type": "string"
        }
      ],
      "stateMutability": "view",
      "type": "function"
    },
    {
      "inputs": [
        {
          "internalType": "address",
          "name": "operator",
          "type": "address"
        },
        {
          "internalType": "address",
          "name": "from",
          "type": "address"
        },
        {
          "internalType": "uint256",
          "name": "tokenId",
          "type": "uint256"
        },
        {
          "internalType": "bytes",
          "name": "data",
          "type": "bytes"
        }
      ],
      "name": "onERC721Received",
      "outputs": [
        {
          "internalType": "bytes4",
          "name": "",
          "type": "bytes4"
        }
      ],
      "stateMutability": "nonpayable",
      "type": "function"
    },
    {
      "inputs": [],
      "name": "owner",
      "outputs": [
        {
          "internalType": "address",
          "name": "",
          "type": "address"
        }
      ],
      "stateMutability": "view",
      "type": "function"
    },
    {
      "inputs": [
        {
          "internalType": "uint256",
          "name": "tokenId",
          "type": "uint256"
        }
      ],
      "name": "ownerOf",
      "outputs": [
        {
          "internalType": "address",
          "name": "",
          "type": "address"
        }
      ],
      "stateMutability": "view",
      "type": "function"
    },
    {
      "inputs": [],
      "name": "pause",
      "outputs": [],
      "stateMutability": "nonpayable",
      "type": "function"
    },
    {
      "inputs": [],
      "name": "paused",
      "outputs": [
        {
          "internalType": "bool",
          "name": "",
          "type": "bool"
        }
      ],
      "stateMutability": "view",
      "type": "function"
    },
    {
      "inputs": [],
      "name": "probationer",
      "outputs": [
        {
          "internalType": "address",
          "name": "",
          "type": "address"
        }
      ],
      "stateMutability": "view",
      "type": "function"
    },
    {
      "inputs": [],
      "name": "renounceOwnership",
      "outputs": [],
      "stateMutability": "nonpayable",
      "type": "function"
    },
    {
      "inputs": [
        {
          "internalType": "address",
          "name": "from",
          "type": "address"
        },
        {
          "internalType": "address",
          "name": "to",
          "type": "address"
        },
        {
          "internalType": "uint256",
          "name": "tokenId",
          "type": "uint256"
        }
      ],
      "name": "safeTransferFrom",
      "outputs": [],
      "stateMutability": "nonpayable",
      "type": "function"
    },
    {
      "inputs": [
        {
          "internalType": "address",
          "name": "from",
          "type": "address"
        },
        {
          "internalType": "address",
          "name": "to",
          "type": "address"
        },
        {
          "internalType": "uint256",
          "name": "tokenId",
          "type": "uint256"
        },
        {
          "internalType": "bytes",
          "name": "data",
          "type": "bytes"
        }
      ],
      "name": "safeTransferFrom",
      "outputs": [],
      "stateMutability": "nonpayable",
      "type": "function"
    },
    {
      "inputs": [
        {
          "internalType": "address",
          "name": "operator",
          "type": "address"
        },
        {
          "internalType": "bool",
          "name": "approved",
          "type": "bool"
        }
      ],
      "name": "setApprovalForAll",
      "outputs": [],
      "stateMutability": "nonpayable",
      "type": "function"
    },
    {
      "inputs": [
        {
          "internalType": "bytes4",
          "name": "interfaceId",
          "type": "bytes4"
        }
      ],
      "name": "supportsInterface",
      "outputs": [
        {
          "internalType": "bool",
          "name": "",
          "type": "bool"
        }
      ],
      "stateMutability": "view",
      "type": "function"
    },
    {
      "inputs": [],
      "name": "symbol",
      "outputs": [
        {
          "internalType": "string",
          "name": "",
          "type": "string"
        }
      ],
      "stateMutability": "view",
      "type": "function"
    },
    {
      "inputs": [
        {
          "internalType": "uint256",
          "name": "tokenId",
          "type": "uint256"
        }
      ],
      "name": "tokenURI",
      "outputs": [
        {
          "internalType": "string",
          "name": "",
          "type": "string"
        }
      ],
      "stateMutability": "view",
      "type": "function"
    },
    {
      "inputs": [
        {
          "internalType": "address",
          "name": "from",
          "type": "address"
        },
        {
          "internalType": "address",
          "name": "to",
          "type": "address"
        },
        {
          "internalType": "uint256",
          "name": "tokenId",
          "type": "uint256"
        }
      ],
      "name": "transferFrom",
      "outputs": [],
      "stateMutability": "nonpayable",
      "type": "function"
    },
    {
      "inputs": [
        {
          "internalType": "address",
          "name": "newOwner",
          "type": "address"
        }
      ],
      "name": "transferOwnership",
      "outputs": [],
      "stateMutability": "nonpayable",
      "type": "function"
    },
    {
      "inputs": [],
      "name": "unpause",
      "outputs": [],
      "stateMutability": "nonpayable",
      "type": "function"
    },
    {
      "stateMutability": "payable",
      "type": "receive"
    }
  ],
  "transactionHash": "0x1eb0854cc71e3afc915577a66d85ee70b0e546bc26b94b9b5820b7f1c2d57072",
  "args": [
    "0xD33c63E09c928A173e6771E05E1e8E5eb9db3E99",
    "0xFd2Cb1b3FcE0fBb504841d3103389a0F166594a2"
  ],
  "numDeployments": 4,
  "solcInputHash": "f75e3be0c0670a6ce8a3fe6de17168ac",
  "bytecode": "0x60806040523480156200001157600080fd5b506040516200229e3803806200229e833981016040819052620000349162000392565b6040518060400160405280600f81526020017f417070726f766564204d656d62657200000000000000000000000000000000008152506040518060400160405280600381526020017f48414d0000000000000000000000000000000000000000000000000000000000815250620000cc620000bd620001ad640100000000026401000000009004565b640100000000620001b1810204565b6001620000da8382620004a1565b506002620000e98282620004a1565b50506007805460ff19169055506200010a8264010000000062000201810204565b600160a060020a03811662000180576040517f08c379a000000000000000000000000000000000000000000000000000000000815260206004820152601660248201527f417070726f7665643a205a65726f20616464726573730000000000000000000060448201526064015b60405180910390fd5b60078054600160a060020a039092166101000261010060a860020a03199092169190911790555062000574565b3390565b60008054600160a060020a03838116600160a060020a0319831681178455604051919092169283917f8be0079c531659141344cd1fd0a4f28419497f9722a3daafe3b4186f6b6457e09190a35050565b62000214640100000000620002c3810204565b600160a060020a038116620002ac576040517f08c379a000000000000000000000000000000000000000000000000000000000815260206004820152602660248201527f4f776e61626c653a206e6577206f776e657220697320746865207a65726f206160448201527f6464726573730000000000000000000000000000000000000000000000000000606482015260840162000177565b620002c081640100000000620001b1810204565b50565b620002d6640100000000620001ad810204565b600160a060020a0316620002f264010000000062000366810204565b600160a060020a03161462000364576040517f08c379a000000000000000000000000000000000000000000000000000000000815260206004820181905260248201527f4f776e61626c653a2063616c6c6572206973206e6f7420746865206f776e6572604482015260640162000177565b565b600054600160a060020a031690565b8051600160a060020a03811681146200038d57600080fd5b919050565b60008060408385031215620003a657600080fd5b620003b18362000375565b9150620003c16020840162000375565b90509250929050565b7f4e487b7100000000000000000000000000000000000000000000000000000000600052604160045260246000fd5b6002810460018216806200040e57607f821691505b60208210810362000448577f4e487b7100000000000000000000000000000000000000000000000000000000600052602260045260246000fd5b50919050565b601f8211156200049c576000818152602081206020601f86010481016020861015620004775750805b6020601f860104820191505b81811015620004985782815560010162000483565b5050505b505050565b815167ffffffffffffffff811115620004be57620004be620003ca565b620004d681620004cf8454620003f9565b846200044e565b602080601f831160018114620005125760008415620004f55750858301515b60028086026008870290910a600019041982161786555062000498565b600085815260208120601f198616915b82811015620005435788860151825594840194600190910190840162000522565b50858210156200056457878501516008601f88160260020a60001904191681555b5050505050600202600101905550565b611d1a80620005846000396000f3fe608060405260043610610161576000357c0100000000000000000000000000000000000000000000000000000000900480636352211e116100d3578063a22cb4651161008c578063a22cb465146103b8578063b88d4fde146103d8578063ba3a876a146103f8578063c87b56dd1461041d578063e985e9c51461043d578063f2fde38b1461045d57600080fd5b80636352211e1461030d57806370a082311461032d578063715018a61461035b5780638456cb59146103705780638da5cb5b1461038557806395d89b41146103a357600080fd5b806323b872dd1161012557806323b872dd146102605780633f4ba83a1461028057806340c10f191461029557806342842e0e146102b557806342966c68146102d55780635c975abb146102f557600080fd5b806301ffc9a71461017057806306fdde03146101a5578063081812fc146101c7578063095ea7b3146101ff578063150b7a021461022157600080fd5b3661016b57600080fd5b600080fd5b34801561017c57600080fd5b5061019061018b36600461178b565b61047d565b60405190151581526020015b60405180910390f35b3480156101b157600080fd5b506101ba61051a565b60405161019c91906117f8565b3480156101d357600080fd5b506101e76101e236600461180b565b6105ac565b604051600160a060020a03909116815260200161019c565b34801561020b57600080fd5b5061021f61021a366004611839565b6105d3565b005b34801561022d57600080fd5b5061024761023c366004611865565b600095945050505050565b604051600160e060020a0319909116815260200161019c565b34801561026c57600080fd5b5061021f61027b366004611904565b61070f565b34801561028c57600080fd5b5061021f610743565b3480156102a157600080fd5b506101906102b0366004611839565b610755565b3480156102c157600080fd5b5061021f6102d0366004611904565b610825565b3480156102e157600080fd5b506101906102f036600461180b565b610840565b34801561030157600080fd5b5060075460ff16610190565b34801561031957600080fd5b506101e761032836600461180b565b61085b565b34801561033957600080fd5b5061034d610348366004611945565b6108c3565b60405190815260200161019c565b34801561036757600080fd5b5061021f610960565b34801561037c57600080fd5b5061021f610972565b34801561039157600080fd5b50600054600160a060020a03166101e7565b3480156103af57600080fd5b506101ba610982565b3480156103c457600080fd5b5061021f6103d3366004611962565b610991565b3480156103e457600080fd5b5061021f6103f33660046119cf565b6109a0565b34801561040457600080fd5b506007546101e7906101009004600160a060020a031681565b34801561042957600080fd5b506101ba61043836600461180b565b6109db565b34801561044957600080fd5b50610190610458366004611aaf565b610a4f565b34801561046957600080fd5b5061021f610478366004611945565b610a7d565b6000600160e060020a031982167f80ac58cd0000000000000000000000000000000000000000000000000000000014806104e05750600160e060020a031982167f5b5e139f00000000000000000000000000000000000000000000000000000000145b8061051457507f01ffc9a700000000000000000000000000000000000000000000000000000000600160e060020a03198316145b92915050565b60606001805461052990611add565b80601f016020809104026020016040519081016040528092919081815260200182805461055590611add565b80156105a25780601f10610577576101008083540402835291602001916105a2565b820191906000526020600020905b81548152906001019060200180831161058557829003601f168201915b5050505050905090565b60006105b782610b10565b50600090815260056020526040902054600160a060020a031690565b60006105de8261085b565b905080600160a060020a031683600160a060020a03160361066f5760405160e560020a62461bcd02815260206004820152602160248201527f4552433732313a20617070726f76616c20746f2063757272656e74206f776e6560448201527f720000000000000000000000000000000000000000000000000000000000000060648201526084015b60405180910390fd5b33600160a060020a038216148061068b575061068b8133610a4f565b6107005760405160e560020a62461bcd02815260206004820152603e60248201527f4552433732313a20617070726f76652063616c6c6572206973206e6f7420746f60448201527f6b656e206f776e6572206e6f7220617070726f76656420666f7220616c6c00006064820152608401610666565b61070a8383610b77565b505050565b6107193382610bf2565b6107385760405160e560020a62461bcd02815260040161066690611b30565b61070a838383610c51565b61074b610c8b565b610753610ce8565b565b600061075f610c8b565b6007546040517f6352211e000000000000000000000000000000000000000000000000000000008152600481018490526000916101009004600160a060020a031690636352211e90602401602060405180830381865afa1580156107c7573d6000803e3d6000fd5b505050506040513d601f19601f820116820180604052508101906107eb9190611b8d565b905083600160a060020a031681600160a060020a0316149150811561081e576108148484610d3a565b61081e3384610b77565b5092915050565b61070a838383604051806020016040528060008152506109a0565b600061084a610c8b565b61085382610d54565b506001919050565b600081815260036020526040812054600160a060020a0316806105145760405160e560020a62461bcd02815260206004820152601860248201527f4552433732313a20696e76616c696420746f6b656e20494400000000000000006044820152606401610666565b6000600160a060020a0382166109445760405160e560020a62461bcd02815260206004820152602960248201527f4552433732313a2061646472657373207a65726f206973206e6f74206120766160448201527f6c6964206f776e657200000000000000000000000000000000000000000000006064820152608401610666565b50600160a060020a031660009081526004602052604090205490565b610968610c8b565b6107536000610e08565b61097a610c8b565b610753610e65565b60606002805461052990611add565b61099c338383610ea2565b5050565b6109aa3383610bf2565b6109c95760405160e560020a62461bcd02815260040161066690611b30565b6109d584848484610f73565b50505050565b60606109e682610b10565b60006109fd60408051602081019091526000815290565b90506000815111610a1d5760405180602001604052806000815250610a48565b80610a2784610fa9565b604051602001610a38929190611baa565b6040516020818303038152906040525b9392505050565b600160a060020a03918216600090815260066020908152604080832093909416825291909152205460ff1690565b610a85610c8b565b600160a060020a038116610b045760405160e560020a62461bcd02815260206004820152602660248201527f4f776e61626c653a206e6577206f776e657220697320746865207a65726f206160448201527f64647265737300000000000000000000000000000000000000000000000000006064820152608401610666565b610b0d81610e08565b50565b600081815260036020526040902054600160a060020a0316610b0d5760405160e560020a62461bcd02815260206004820152601860248201527f4552433732313a20696e76616c696420746f6b656e20494400000000000000006044820152606401610666565b6000818152600560205260409020805473ffffffffffffffffffffffffffffffffffffffff1916600160a060020a0384169081179091558190610bb98261085b565b600160a060020a03167f8c5be1e5ebec7d5bd14f71427d1e84f3dd0314c0f7b2291e5b200ac8c7c3b92560405160405180910390a45050565b600080610bfe8361085b565b905080600160a060020a031684600160a060020a03161480610c255750610c258185610a4f565b80610c49575083600160a060020a0316610c3e846105ac565b600160a060020a0316145b949350505050565b60075460ff16610c805760405160e560020a62461bcd0281526020600482015260006024820152604401610666565b61070a838383611049565b600054600160a060020a031633146107535760405160e560020a62461bcd02815260206004820181905260248201527f4f776e61626c653a2063616c6c6572206973206e6f7420746865206f776e65726044820152606401610666565b610cf0611234565b6007805460ff191690557f5db9ee0a495bf2e6ff9c91a7834c1ba4fdd244a5e8aa4e537bd38aeae4b073aa335b604051600160a060020a03909116815260200160405180910390a1565b61099c828260405180602001604052806000815250611289565b6000610d5f8261085b565b9050610d6d816000846112bf565b610d78600083610b77565b600160a060020a0381166000908152600460205260408120805460019290610da1908490611c08565b9091555050600082815260036020526040808220805473ffffffffffffffffffffffffffffffffffffffff1916905551839190600160a060020a038416907fddf252ad1be2c89b69c2b068fc378daa952ba7f163c4a11628f55a4df523b3ef908390a45050565b60008054600160a060020a0383811673ffffffffffffffffffffffffffffffffffffffff19831681178455604051919092169283917f8be0079c531659141344cd1fd0a4f28419497f9722a3daafe3b4186f6b6457e09190a35050565b610e6d61133b565b6007805460ff191660011790557f62e78cea01bee320cd4e420270b5ea74000d11b0c9f74754ebdbfc544b05a258610d1d3390565b81600160a060020a031683600160a060020a031603610f065760405160e560020a62461bcd02815260206004820152601960248201527f4552433732313a20617070726f766520746f2063616c6c6572000000000000006044820152606401610666565b600160a060020a03838116600081815260066020908152604080832094871680845294825291829020805460ff191686151590811790915591519182527f17307eab39ab6107e8899845ad3d59bd9653f200f220920489ca2b5937696c31910160405180910390a3505050565b610f7e848484610c51565b610f8a84848484611391565b6109d55760405160e560020a62461bcd02815260040161066690611c1b565b60606000610fb6836114c7565b600101905060008167ffffffffffffffff811115610fd657610fd66119a0565b6040519080825280601f01601f191660200182016040528015611000576020820181803683370190505b5090508181016020015b600019017f3031323334353637383961626364656600000000000000000000000000000000600a86061a8153600a850494508461100a57509392505050565b82600160a060020a031661105c8261085b565b600160a060020a0316146110db5760405160e560020a62461bcd02815260206004820152602560248201527f4552433732313a207472616e736665722066726f6d20696e636f72726563742060448201527f6f776e65720000000000000000000000000000000000000000000000000000006064820152608401610666565b600160a060020a0382166111595760405160e560020a62461bcd028152602060048201526024808201527f4552433732313a207472616e7366657220746f20746865207a65726f2061646460448201527f72657373000000000000000000000000000000000000000000000000000000006064820152608401610666565b6111648383836112bf565b61116f600082610b77565b600160a060020a0383166000908152600460205260408120805460019290611198908490611c08565b9091555050600160a060020a03821660009081526004602052604081208054600192906111c6908490611c78565b9091555050600081815260036020526040808220805473ffffffffffffffffffffffffffffffffffffffff1916600160a060020a0386811691821790925591518493918716917fddf252ad1be2c89b69c2b068fc378daa952ba7f163c4a11628f55a4df523b3ef91a4505050565b60075460ff166107535760405160e560020a62461bcd02815260206004820152601460248201527f5061757361626c653a206e6f74207061757365640000000000000000000000006044820152606401610666565b61129383836115a9565b6112a06000848484611391565b61070a5760405160e560020a62461bcd02815260040161066690611c1b565b60075460ff161561070a5760405160e560020a62461bcd02815260206004820152602b60248201527f4552433732315061757361626c653a20746f6b656e207472616e73666572207760448201527f68696c65207061757365640000000000000000000000000000000000000000006064820152608401610666565b60075460ff16156107535760405160e560020a62461bcd02815260206004820152601060248201527f5061757361626c653a20706175736564000000000000000000000000000000006044820152606401610666565b6000600160a060020a0384163b156114bc576040517f150b7a02000000000000000000000000000000000000000000000000000000008152600160a060020a0385169063150b7a02906113ee903390899088908890600401611c8b565b6020604051808303816000875af1925050508015611429575060408051601f3d908101601f1916820190925261142691810190611cc7565b60015b611489573d808015611457576040519150601f19603f3d011682016040523d82523d6000602084013e61145c565b606091505b5080516000036114815760405160e560020a62461bcd02815260040161066690611c1b565b805181602001fd5b600160e060020a0319167f150b7a0200000000000000000000000000000000000000000000000000000000149050610c49565b506001949350505050565b6000807a184f03e93ff9f4daa797ed6e38ed64bf6a1f0100000000000000008310611510577a184f03e93ff9f4daa797ed6e38ed64bf6a1f010000000000000000830492506040015b6d04ee2d6d415b85acef8100000000831061153c576d04ee2d6d415b85acef8100000000830492506020015b662386f26fc10000831061155a57662386f26fc10000830492506010015b6305f5e1008310611572576305f5e100830492506008015b612710831061158657612710830492506004015b60648310611598576064830492506002015b600a83106105145760010192915050565b600160a060020a0382166116025760405160e560020a62461bcd02815260206004820181905260248201527f4552433732313a206d696e7420746f20746865207a65726f20616464726573736044820152606401610666565b600081815260036020526040902054600160a060020a03161561166a5760405160e560020a62461bcd02815260206004820152601c60248201527f4552433732313a20746f6b656e20616c7265616479206d696e746564000000006044820152606401610666565b600160a060020a0382166000908152600460205260409020546001036116d55760405160e560020a62461bcd02815260206004820152601060248201527f4d756c7469706c6520617474656d7074000000000000000000000000000000006044820152606401610666565b6116e1600083836112bf565b600160a060020a038216600090815260046020526040812080546001929061170a908490611c78565b9091555050600081815260036020526040808220805473ffffffffffffffffffffffffffffffffffffffff1916600160a060020a03861690811790915590518392907fddf252ad1be2c89b69c2b068fc378daa952ba7f163c4a11628f55a4df523b3ef908290a45050565b600160e060020a031981168114610b0d57600080fd5b60006020828403121561179d57600080fd5b8135610a4881611775565b60005b838110156117c35781810151838201526020016117ab565b50506000910152565b600081518084526117e48160208601602086016117a8565b601f01601f19169290920160200192915050565b602081526000610a4860208301846117cc565b60006020828403121561181d57600080fd5b5035919050565b600160a060020a0381168114610b0d57600080fd5b6000806040838503121561184c57600080fd5b823561185781611824565b946020939093013593505050565b60008060008060006080868803121561187d57600080fd5b853561188881611824565b9450602086013561189881611824565b935060408601359250606086013567ffffffffffffffff808211156118bc57600080fd5b818801915088601f8301126118d057600080fd5b8135818111156118df57600080fd5b8960208285010111156118f157600080fd5b9699959850939650602001949392505050565b60008060006060848603121561191957600080fd5b833561192481611824565b9250602084013561193481611824565b929592945050506040919091013590565b60006020828403121561195757600080fd5b8135610a4881611824565b6000806040838503121561197557600080fd5b823561198081611824565b91506020830135801515811461199557600080fd5b809150509250929050565b7f4e487b7100000000000000000000000000000000000000000000000000000000600052604160045260246000fd5b600080600080608085870312156119e557600080fd5b84356119f081611824565b93506020850135611a0081611824565b925060408501359150606085013567ffffffffffffffff80821115611a2457600080fd5b818701915087601f830112611a3857600080fd5b813581811115611a4a57611a4a6119a0565b604051601f8201601f19908116603f01168101908382118183101715611a7257611a726119a0565b816040528281528a6020848701011115611a8b57600080fd5b82602086016020830137600060208483010152809550505050505092959194509250565b60008060408385031215611ac257600080fd5b8235611acd81611824565b9150602083013561199581611824565b600281046001821680611af157607f821691505b602082108103611b2a577f4e487b7100000000000000000000000000000000000000000000000000000000600052602260045260246000fd5b50919050565b6020808252602e908201527f4552433732313a2063616c6c6572206973206e6f7420746f6b656e206f776e6560408201527f72206e6f7220617070726f766564000000000000000000000000000000000000606082015260800190565b600060208284031215611b9f57600080fd5b8151610a4881611824565b60008351611bbc8184602088016117a8565b835190830190611bd08183602088016117a8565b01949350505050565b7f4e487b7100000000000000000000000000000000000000000000000000000000600052601160045260246000fd5b8181038181111561051457610514611bd9565b60208082526032908201527f4552433732313a207472616e7366657220746f206e6f6e20455243373231526560408201527f63656976657220696d706c656d656e7465720000000000000000000000000000606082015260800190565b8082018082111561051457610514611bd9565b6000600160a060020a03808716835280861660208401525083604083015260806060830152611cbd60808301846117cc565b9695505050505050565b600060208284031215611cd957600080fd5b8151610a488161177556fea26469706673582212200ac73d4fd551c5bf50ab2af586f90a1670423d724633689d0f932af6047f9ac964736f6c63430008130033",
  "devdoc": {
    "author": ": Bobeu Github: https://github.com/bobeu",
    "events": {
      "Approval(address,address,uint256)": {
        "details": "Emitted when `owner` enables `approved` to manage the `tokenId` token."
      },
      "ApprovalForAll(address,address,bool)": {
        "details": "Emitted when `owner` enables or disables (`approved`) `operator` to manage all of its assets."
      },
      "Paused(address)": {
        "details": "Emitted when the pause is triggered by `account`."
      },
      "Transfer(address,address,uint256)": {
        "details": "Emitted when `tokenId` token is transferred from `from` to `to`."
      },
      "Unpaused(address)": {
        "details": "Emitted when the pause is lifted by `account`."
      }
    },
    "kind": "dev",
    "methods": {
      "approve(address,uint256)": {
        "details": "See {IERC721-approve}."
      },
      "balanceOf(address)": {
        "details": "See {IERC721-balanceOf}."
      },
      "burn(uint256)": {
        "details": "Downgrades user mapped to 'tokenId' Note - Owner's privilege"
      },
      "getApproved(uint256)": {
        "details": "See {IERC721-getApproved}."
      },
      "isApprovedForAll(address,address)": {
        "details": "See {IERC721-isApprovedForAll}."
      },
      "name()": {
        "details": "See {IERC721Metadata-name}."
      },
      "onERC721Received(address,address,uint256,bytes)": {
        "details": "Whenever an {IERC721} `tokenId` token is transferred to this contract via {IERC721-safeTransferFrom} by `operator` from `from`, this function is called. It must return its Solidity selector to confirm the token transfer. If any other value is returned or the interface is not implemented by the recipient, the transfer will be reverted. The selector can be obtained in Solidity with `IERC721Receiver.onERC721Received.selector`."
      },
      "owner()": {
        "details": "Returns the address of the current owner."
      },
      "ownerOf(uint256)": {
        "details": "See {IERC721-ownerOf}."
      },
      "pause()": {
        "details": "halts contract execution "
      },
      "paused()": {
        "details": "Returns true if the contract is paused, and false otherwise."
      },
      "renounceOwnership()": {
        "details": "Leaves the contract without owner. It will not be possible to call `onlyOwner` functions anymore. Can only be called by the current owner. NOTE: Renouncing ownership will leave the contract without an owner, thereby removing any functionality that is only available to the owner."
      },
      "safeTransferFrom(address,address,uint256)": {
        "details": "See {IERC721-safeTransferFrom}."
      },
      "safeTransferFrom(address,address,uint256,bytes)": {
        "details": "See {IERC721-safeTransferFrom}."
      },
      "setApprovalForAll(address,bool)": {
        "details": "See {IERC721-setApprovalForAll}."
      },
      "supportsInterface(bytes4)": {
        "details": "See {IERC165-supportsInterface}."
      },
      "symbol()": {
        "details": "See {IERC721Metadata-symbol}."
      },
      "tokenURI(uint256)": {
        "details": "See {IERC721Metadata-tokenURI}."
      },
      "transferFrom(address,address,uint256)": {
        "details": "See {IERC721-transferFrom}."
      },
      "transferOwnership(address)": {
        "details": "Transfers ownership of the contract to a new account (`newOwner`). Can only be called by the current owner."
      },
      "unpause()": {
        "details": "Continues contract execution "
      }
    },
    "version": 1
  },
  "userdoc": {
    "kind": "user",
    "methods": {
      "mint(address,uint256)": {
        "notice": "Mint HiWork Approved Membership NFT Owner's privilege. Note: Can only upgrade user that was already on probation. o Here, we are simply migrating owner of 'tokenId' to approved member. o 'TokenId' must not have been approved before now. o No user can have more than one approved membership NFT."
      }
    },
    "notice": "HiWork Approved Membership GoodWill",
    "version": 1
  },
  "storageLayout": {
    "storage": [
      {
        "astId": 9679,
        "contract": "contracts/tokens/erc721/Approved.sol:Approved",
        "label": "_owner",
        "offset": 0,
        "slot": "0",
        "type": "t_address"
      },
      {
        "astId": 7358,
        "contract": "contracts/tokens/erc721/Approved.sol:Approved",
        "label": "_name",
        "offset": 0,
        "slot": "1",
        "type": "t_string_storage"
      },
      {
        "astId": 7360,
        "contract": "contracts/tokens/erc721/Approved.sol:Approved",
        "label": "_symbol",
        "offset": 0,
        "slot": "2",
        "type": "t_string_storage"
      },
      {
        "astId": 7364,
        "contract": "contracts/tokens/erc721/Approved.sol:Approved",
        "label": "_owners",
        "offset": 0,
        "slot": "3",
        "type": "t_mapping(t_uint256,t_address)"
      },
      {
        "astId": 7368,
        "contract": "contracts/tokens/erc721/Approved.sol:Approved",
        "label": "_balances",
        "offset": 0,
        "slot": "4",
        "type": "t_mapping(t_address,t_uint256)"
      },
      {
        "astId": 7372,
        "contract": "contracts/tokens/erc721/Approved.sol:Approved",
        "label": "_tokenApprovals",
        "offset": 0,
        "slot": "5",
        "type": "t_mapping(t_uint256,t_address)"
      },
      {
        "astId": 7378,
        "contract": "contracts/tokens/erc721/Approved.sol:Approved",
        "label": "_operatorApprovals",
        "offset": 0,
        "slot": "6",
        "type": "t_mapping(t_address,t_mapping(t_address,t_bool))"
      },
      {
        "astId": 9226,
        "contract": "contracts/tokens/erc721/Approved.sol:Approved",
        "label": "_paused",
        "offset": 0,
        "slot": "7",
        "type": "t_bool"
      },
      {
        "astId": 7177,
        "contract": "contracts/tokens/erc721/Approved.sol:Approved",
        "label": "probationer",
        "offset": 1,
        "slot": "7",
        "type": "t_address"
      }
    ],
    "types": {
      "t_address": {
        "encoding": "inplace",
        "label": "address",
        "numberOfBytes": "20"
      },
      "t_bool": {
        "encoding": "inplace",
        "label": "bool",
        "numberOfBytes": "1"
      },
      "t_mapping(t_address,t_bool)": {
        "encoding": "mapping",
        "key": "t_address",
        "label": "mapping(address => bool)",
        "numberOfBytes": "32",
        "value": "t_bool"
      },
      "t_mapping(t_address,t_mapping(t_address,t_bool))": {
        "encoding": "mapping",
        "key": "t_address",
        "label": "mapping(address => mapping(address => bool))",
        "numberOfBytes": "32",
        "value": "t_mapping(t_address,t_bool)"
      },
      "t_mapping(t_address,t_uint256)": {
        "encoding": "mapping",
        "key": "t_address",
        "label": "mapping(address => uint256)",
        "numberOfBytes": "32",
        "value": "t_uint256"
      },
      "t_mapping(t_uint256,t_address)": {
        "encoding": "mapping",
        "key": "t_uint256",
        "label": "mapping(uint256 => address)",
        "numberOfBytes": "32",
        "value": "t_address"
      },
      "t_string_storage": {
        "encoding": "bytes",
        "label": "string",
        "numberOfBytes": "32"
      },
      "t_uint256": {
        "encoding": "inplace",
        "label": "uint256",
        "numberOfBytes": "32"
      }
    }
  }
}