{
  "address": "0x0E2884a840CeEbC4628Bf3D18a8b5069746c5660",
  "abi": [
    {
      "inputs": [
        {
          "internalType": "address",
          "name": "_cUSD",
          "type": "address"
        }
      ],
      "stateMutability": "nonpayable",
      "type": "constructor"
    },
    {
      "inputs": [],
      "name": "cUSD",
      "outputs": [
        {
          "internalType": "address",
          "name": "",
          "type": "address"
        }
      ],
      "stateMutability": "view",
      "type": "function"
    },
    {
      "inputs": [],
      "name": "owner",
      "outputs": [
        {
          "internalType": "address",
          "name": "",
          "type": "address"
        }
      ],
      "stateMutability": "view",
      "type": "function"
    },
    {
      "inputs": [
        {
          "internalType": "address",
          "name": "to",
          "type": "address"
        },
        {
          "internalType": "uint256",
          "name": "amount",
          "type": "uint256"
        }
      ],
      "name": "withdraw",
      "outputs": [
        {
          "internalType": "bool",
          "name": "_return",
          "type": "bool"
        }
      ],
      "stateMutability": "nonpayable",
      "type": "function"
    },
    {
      "stateMutability": "payable",
      "type": "receive"
    }
  ],
  "transactionHash": "0xc416bd905d3c9d0a9a9025a3f1d6169050c625f30811251ab520dd9cf18ca6b1",
  "args": [
    "0x874069Fa1Eb16D44d622F2e0Ca25eeA172369bC1"
  ],
  "numDeployments": 1,
  "solcInputHash": "6d59d7a9c5638fa29563e8a6d04818fc",
  "bytecode": "0x608060405234801561001057600080fd5b5060405161041038038061041083398101604081905261002f9161005d565b60008054600160a060020a03909216600160a060020a0319928316179055600180549091163317905561008d565b60006020828403121561006f57600080fd5b8151600160a060020a038116811461008657600080fd5b9392505050565b6103748061009c6000396000f3fe608060405260043610610054577c010000000000000000000000000000000000000000000000000000000060003504631fccf67281146100605780638da5cb5b1461009d578063f3fef3a3146100bd57600080fd5b3661005b57005b600080fd5b34801561006c57600080fd5b5060005461008090600160a060020a031681565b604051600160a060020a0390911681526020015b60405180910390f35b3480156100a957600080fd5b5060015461008090600160a060020a031681565b3480156100c957600080fd5b506100dd6100d83660046102dd565b6100ed565b6040519015158152602001610094565b600154600090600160a060020a0316158015906101145750600154600160a060020a031633145b61017f576040517f08c379a000000000000000000000000000000000000000000000000000000000815260206004820152600a60248201527f4f6e6c79206f776e65720000000000000000000000000000000000000000000060448201526064015b60405180910390fd5b6000546040517fa9059cbb000000000000000000000000000000000000000000000000000000008152600160a060020a038581166004830152602482018590529091169063a9059cbb906044016020604051808303816000875af11580156101eb573d6000803e3d6000fd5b505050506040513d601f19601f8201168201806040525081019061020f9190610315565b610275576040517f08c379a000000000000000000000000000000000000000000000000000000000815260206004820152600f60248201527f5472616e73666572206661696c656400000000000000000000000000000000006044820152606401610176565b303180156102d657600084600160a060020a03168260405160006040518083038185875af1925050503d80600081146102ca576040519150601f19603f3d011682016040523d82523d6000602084013e6102cf565b606091505b5090935050505b5092915050565b600080604083850312156102f057600080fd5b8235600160a060020a038116811461030757600080fd5b946020939093013593505050565b60006020828403121561032757600080fd5b8151801515811461033757600080fd5b939250505056fea264697066735822122088aec1c9e88cb8f91d42f8dfab0f20e9e54ab641dba60dc59d815ef8f2372f3864736f6c63430008130033",
  "devdoc": {
    "kind": "dev",
    "methods": {},
    "version": 1
  },
  "userdoc": {
    "kind": "user",
    "methods": {},
    "version": 1
  },
  "storageLayout": {
    "storage": [
      {
        "astId": 5082,
        "contract": "contracts/main/feeReceiver/FeeTo.sol:FeeTo",
        "label": "cUSD",
        "offset": 0,
        "slot": "0",
        "type": "t_address"
      },
      {
        "astId": 5084,
        "contract": "contracts/main/feeReceiver/FeeTo.sol:FeeTo",
        "label": "owner",
        "offset": 0,
        "slot": "1",
        "type": "t_address"
      }
    ],
    "types": {
      "t_address": {
        "encoding": "inplace",
        "label": "address",
        "numberOfBytes": "20"
      }
    }
  }
}