{
  "address": "0x8fdde70A135E510129d751FbC74Ec6B03b6654D7",
  "abi": [
    {
      "inputs": [
        {
          "internalType": "address",
          "name": "_feeTo",
          "type": "address"
        },
        {
          "internalType": "address",
          "name": "_upgrader",
          "type": "address"
        }
      ],
      "stateMutability": "nonpayable",
      "type": "constructor"
    },
    {
      "anonymous": false,
      "inputs": [
        {
          "indexed": true,
          "internalType": "address",
          "name": "who",
          "type": "address"
        }
      ],
      "name": "MembershipDowngraded",
      "type": "event"
    },
    {
      "anonymous": false,
      "inputs": [
        {
          "indexed": true,
          "internalType": "address",
          "name": "who",
          "type": "address"
        }
      ],
      "name": "MembershipUpgraded",
      "type": "event"
    },
    {
      "anonymous": false,
      "inputs": [
        {
          "indexed": true,
          "internalType": "address",
          "name": "previousOwner",
          "type": "address"
        },
        {
          "indexed": true,
          "internalType": "address",
          "name": "newOwner",
          "type": "address"
        }
      ],
      "name": "OwnershipTransferred",
      "type": "event"
    },
    {
      "anonymous": false,
      "inputs": [
        {
          "indexed": false,
          "internalType": "address",
          "name": "account",
          "type": "address"
        }
      ],
      "name": "Paused",
      "type": "event"
    },
    {
      "anonymous": false,
      "inputs": [
        {
          "indexed": false,
          "internalType": "address",
          "name": "account",
          "type": "address"
        }
      ],
      "name": "Unpaused",
      "type": "event"
    },
    {
      "inputs": [
        {
          "internalType": "string",
          "name": "name",
          "type": "string"
        },
        {
          "internalType": "string",
          "name": "aka",
          "type": "string"
        },
        {
          "internalType": "string",
          "name": "field",
          "type": "string"
        },
        {
          "internalType": "string",
          "name": "profileURI",
          "type": "string"
        },
        {
          "internalType": "string",
          "name": "avatar",
          "type": "string"
        }
      ],
      "name": "becomeAJobber",
      "outputs": [
        {
          "internalType": "bool",
          "name": "",
          "type": "bool"
        }
      ],
      "stateMutability": "payable",
      "type": "function"
    },
    {
      "inputs": [],
      "name": "counter",
      "outputs": [
        {
          "internalType": "uint256",
          "name": "",
          "type": "uint256"
        }
      ],
      "stateMutability": "view",
      "type": "function"
    },
    {
      "inputs": [],
      "name": "feeDenom",
      "outputs": [
        {
          "internalType": "contract IERC20",
          "name": "",
          "type": "address"
        }
      ],
      "stateMutability": "view",
      "type": "function"
    },
    {
      "inputs": [],
      "name": "feeTo",
      "outputs": [
        {
          "internalType": "address",
          "name": "",
          "type": "address"
        }
      ],
      "stateMutability": "view",
      "type": "function"
    },
    {
      "inputs": [
        {
          "internalType": "address",
          "name": "_of",
          "type": "address"
        }
      ],
      "name": "getAvatarId",
      "outputs": [
        {
          "internalType": "uint256",
          "name": "",
          "type": "uint256"
        }
      ],
      "stateMutability": "view",
      "type": "function"
    },
    {
      "inputs": [
        {
          "internalType": "address",
          "name": "jobber",
          "type": "address"
        }
      ],
      "name": "getAvatarInfo",
      "outputs": [
        {
          "internalType": "uint256",
          "name": "",
          "type": "uint256"
        }
      ],
      "stateMutability": "view",
      "type": "function"
    },
    {
      "inputs": [],
      "name": "getJobbers",
      "outputs": [
        {
          "components": [
            {
              "internalType": "enum ICommon.Tier",
              "name": "status",
              "type": "uint8"
            },
            {
              "internalType": "uint256",
              "name": "avatarId",
              "type": "uint256"
            },
            {
              "components": [
                {
                  "internalType": "bytes",
                  "name": "name",
                  "type": "bytes"
                },
                {
                  "internalType": "bytes",
                  "name": "aka",
                  "type": "bytes"
                },
                {
                  "internalType": "bytes",
                  "name": "field",
                  "type": "bytes"
                },
                {
                  "internalType": "bytes",
                  "name": "profileURI",
                  "type": "bytes"
                },
                {
                  "internalType": "bytes",
                  "name": "avatar",
                  "type": "bytes"
                },
                {
                  "internalType": "uint8",
                  "name": "ratings",
                  "type": "uint8"
                },
                {
                  "internalType": "uint8",
                  "name": "level",
                  "type": "uint8"
                }
              ],
              "internalType": "struct ICommon.JobberData",
              "name": "other",
              "type": "tuple"
            }
          ],
          "internalType": "struct ICommon.Membership[]",
          "name": "_return",
          "type": "tuple[]"
        }
      ],
      "stateMutability": "view",
      "type": "function"
    },
    {
      "inputs": [
        {
          "internalType": "address",
          "name": "",
          "type": "address"
        }
      ],
      "name": "ids",
      "outputs": [
        {
          "internalType": "uint256",
          "name": "",
          "type": "uint256"
        }
      ],
      "stateMutability": "view",
      "type": "function"
    },
    {
      "inputs": [],
      "name": "mShip",
      "outputs": [
        {
          "internalType": "uint256",
          "name": "probFee",
          "type": "uint256"
        },
        {
          "internalType": "address",
          "name": "upgrader",
          "type": "address"
        }
      ],
      "stateMutability": "view",
      "type": "function"
    },
    {
      "inputs": [],
      "name": "myStatus",
      "outputs": [
        {
          "internalType": "string",
          "name": "",
          "type": "string"
        }
      ],
      "stateMutability": "view",
      "type": "function"
    },
    {
      "inputs": [],
      "name": "owner",
      "outputs": [
        {
          "internalType": "address",
          "name": "",
          "type": "address"
        }
      ],
      "stateMutability": "view",
      "type": "function"
    },
    {
      "inputs": [],
      "name": "paused",
      "outputs": [
        {
          "internalType": "bool",
          "name": "",
          "type": "bool"
        }
      ],
      "stateMutability": "view",
      "type": "function"
    },
    {
      "inputs": [
        {
          "internalType": "address",
          "name": "target",
          "type": "address"
        }
      ],
      "name": "queryStatus",
      "outputs": [
        {
          "internalType": "uint8",
          "name": "",
          "type": "uint8"
        }
      ],
      "stateMutability": "view",
      "type": "function"
    },
    {
      "inputs": [],
      "name": "renounceOwnership",
      "outputs": [],
      "stateMutability": "nonpayable",
      "type": "function"
    },
    {
      "inputs": [
        {
          "internalType": "address",
          "name": "newOwner",
          "type": "address"
        }
      ],
      "name": "transferOwnership",
      "outputs": [],
      "stateMutability": "nonpayable",
      "type": "function"
    },
    {
      "inputs": [],
      "name": "updateFee",
      "outputs": [
        {
          "internalType": "uint256",
          "name": "",
          "type": "uint256"
        }
      ],
      "stateMutability": "view",
      "type": "function"
    },
    {
      "inputs": [
        {
          "internalType": "uint256",
          "name": "_probFee",
          "type": "uint256"
        },
        {
          "internalType": "address",
          "name": "_upgrader",
          "type": "address"
        },
        {
          "internalType": "contract IERC20",
          "name": "_feeDenom",
          "type": "address"
        },
        {
          "internalType": "uint256",
          "name": "_updateFee",
          "type": "uint256"
        }
      ],
      "name": "updateMembershipInfo",
      "outputs": [],
      "stateMutability": "nonpayable",
      "type": "function"
    },
    {
      "inputs": [
        {
          "internalType": "string",
          "name": "field",
          "type": "string"
        },
        {
          "internalType": "string",
          "name": "profileURI",
          "type": "string"
        },
        {
          "internalType": "string",
          "name": "avatar",
          "type": "string"
        }
      ],
      "name": "updateProfileInfo",
      "outputs": [
        {
          "internalType": "bool",
          "name": "",
          "type": "bool"
        }
      ],
      "stateMutability": "nonpayable",
      "type": "function"
    },
    {
      "inputs": [
        {
          "internalType": "address",
          "name": "target",
          "type": "address"
        },
        {
          "internalType": "uint8",
          "name": "upgrade_",
          "type": "uint8"
        }
      ],
      "name": "upgradeOrDowngradeUser",
      "outputs": [],
      "stateMutability": "nonpayable",
      "type": "function"
    },
    {
      "inputs": [
        {
          "internalType": "address",
          "name": "to",
          "type": "address"
        },
        {
          "internalType": "address",
          "name": "erc20",
          "type": "address"
        },
        {
          "internalType": "uint256",
          "name": "amount",
          "type": "uint256"
        }
      ],
      "name": "withdraw",
      "outputs": [],
      "stateMutability": "nonpayable",
      "type": "function"
    },
    {
      "stateMutability": "payable",
      "type": "receive"
    }
  ],
  "transactionHash": "0xb019230f96ce356a659af671f15ed444edaaa8c527cd880a52f6615e9ce16d2b",
  "args": [
    "0x0E2884a840CeEbC4628Bf3D18a8b5069746c5660",
    "0xA7B2387bF4C259e188751B46859fcA7E2043FEFD"
  ],
  "numDeployments": 4,
  "solcInputHash": "88377406f63a0e1fffb781988fd95e98",
  "bytecode": "0x60806040523480156200001157600080fd5b506040516200225938038062002259833981016040819052620000349162000128565b6200005a6200004b640100000000620000b7810204565b640100000000620000bb810204565b6000805460a060020a60ff021916815560068054600160a060020a03938416600160a060020a0319918216179091556003805494909316931692909217905560088054600101815590526802b5e3af16b188000060025562000160565b3390565b60008054600160a060020a03838116600160a060020a0319831681178455604051919092169283917f8be0079c531659141344cd1fd0a4f28419497f9722a3daafe3b4186f6b6457e09190a35050565b8051600160a060020a03811681146200012357600080fd5b919050565b600080604083850312156200013c57600080fd5b62000147836200010b565b915062000157602084016200010b565b90509250929050565b6120e980620001706000396000f3fe608060405260043610610140576000357c0100000000000000000000000000000000000000000000000000000000900480638da5cb5b116100bd578063ddd786e711610081578063ddd786e714610398578063e4da53e8146103ab578063f0552c54146103e1578063f2b2a09614610401578063f2fde38b1461042157600080fd5b80638da5cb5b146102c55780639ce85dff146102e3578063afe7b30214610305578063c2c9aa7a14610337578063d9caed121461037857600080fd5b806361bc221a1161010457806361bc221a146102405780636cd5d34214610256578063715018a614610278578063758cdcf01461028d5780637fb60eee146102a357600080fd5b8063017e7e581461014c5780631847c06b1461018957806319a86577146101c457806358e15869146101e45780635c975abb1461020457600080fd5b3661014757005b600080fd5b34801561015857600080fd5b5060035461016c90600160a060020a031681565b604051600160a060020a0390911681526020015b60405180910390f35b34801561019557600080fd5b506101b66101a4366004611a3b565b60076020526000908152604090205481565b604051908152602001610180565b3480156101d057600080fd5b5060045461016c90600160a060020a031681565b3480156101f057600080fd5b506101b66101ff366004611a3b565b610441565b34801561021057600080fd5b5060005474010000000000000000000000000000000000000000900460ff165b6040519015158152602001610180565b34801561024c57600080fd5b506101b660015481565b34801561026257600080fd5b50610276610271366004611a5f565b610452565b005b34801561028457600080fd5b50610276610485565b34801561029957600080fd5b506101b660025481565b3480156102af57600080fd5b506102b8610499565b6040516101809190611b06565b3480156102d157600080fd5b50600054600160a060020a031661016c565b3480156102ef57600080fd5b506102f8610841565b6040516101809190611c51565b34801561031157600080fd5b50610325610320366004611a3b565b61097d565b60405160ff9091168152602001610180565b34801561034357600080fd5b5060055460065461035b9190600160a060020a031682565b60408051928352600160a060020a03909116602083015201610180565b34801561038457600080fd5b50610276610393366004611c64565b6109bc565b6102306103a6366004611d4b565b610b84565b3480156103b757600080fd5b506101b66103c6366004611a3b565b600160a060020a031660009081526007602052604090205490565b3480156103ed57600080fd5b506102766103fc366004611e1d565b610bb9565b34801561040d57600080fd5b5061023061041c366004611e5c565b610cde565b34801561042d57600080fd5b5061027661043c366004611a3b565b610dc0565b600061044c82610e53565b92915050565b61045a610e9a565b80156104665780610471565b6802b5e3af16b18800005b60025561047f848484610ef7565b50505050565b61048d610e9a565b6104976000610f67565b565b60606008805480602002602001604051908101604052809291908181526020016000905b82821015610838576000848152602090206040805160608101909152600884029091018054829060ff1660028111156104f8576104f8611aa7565b600281111561050957610509611aa7565b815260200160018201548152602001600282016040518060e001604052908160008201805461053790611ee4565b80601f016020809104026020016040519081016040528092919081815260200182805461056390611ee4565b80156105b05780601f10610585576101008083540402835291602001916105b0565b820191906000526020600020905b81548152906001019060200180831161059357829003601f168201915b505050505081526020016001820180546105c990611ee4565b80601f01602080910402602001604051908101604052809291908181526020018280546105f590611ee4565b80156106425780601f1061061757610100808354040283529160200191610642565b820191906000526020600020905b81548152906001019060200180831161062557829003601f168201915b5050505050815260200160028201805461065b90611ee4565b80601f016020809104026020016040519081016040528092919081815260200182805461068790611ee4565b80156106d45780601f106106a9576101008083540402835291602001916106d4565b820191906000526020600020905b8154815290600101906020018083116106b757829003601f168201915b505050505081526020016003820180546106ed90611ee4565b80601f016020809104026020016040519081016040528092919081815260200182805461071990611ee4565b80156107665780601f1061073b57610100808354040283529160200191610766565b820191906000526020600020905b81548152906001019060200180831161074957829003601f168201915b5050505050815260200160048201805461077f90611ee4565b80601f01602080910402602001604051908101604052809291908181526020018280546107ab90611ee4565b80156107f85780601f106107cd576101008083540402835291602001916107f8565b820191906000526020600020905b8154815290600101906020018083116107db57829003601f168201915b50505091835250506005919091015460ff8082166020808501919091526101009092041660409092019190915291529183525060019290920191016104bd565b50505050905090565b6060600060405180606001604052806040518060400160405280600481526020017f4e6f6e650000000000000000000000000000000000000000000000000000000081525081526020016040518060400160405280600981526020017f50726f626174696f6e000000000000000000000000000000000000000000000081525081526020016040518060400160405280600881526020017f417070726f766564000000000000000000000000000000000000000000000000815250815250905060006008600760006109103390565b600160a060020a0316600160a060020a03168152602001908152602001600020548154811061094157610941611f21565b6000918252602090912060089091020160070154610100900460ff16905081816003811061097157610971611f21565b60200201519250505090565b6000600861098a83610e53565b8154811061099a5761099a611f21565b6000918252602090912060089091020160070154610100900460ff1692915050565b6109c4610e9a565b600160a060020a03831615610ad957600160a060020a038216158015906109f45750600160a060020a0382163b15155b15610ade576040517fa9059cbb000000000000000000000000000000000000000000000000000000008152600160a060020a0384811660048301526024820183905283169063a9059cbb906044016020604051808303816000875af1158015610a61573d6000803e3d6000fd5b505050506040513d601f19601f82011682018060405250810190610a859190611f3a565b610ad95760405160e560020a62461bcd02815260206004820152601560248201527f4552433230205472616e73666572206661696c6564000000000000000000000060448201526064015b60405180910390fd5b505050565b600083600160a060020a03168260405160006040518083038185875af1925050503d8060008114610b2b576040519150601f19603f3d011682016040523d82523d6000602084013e610b30565b606091505b505090508061047f5760405160e560020a62461bcd02815260206004820152601660248201527f56616c7565205472616e73666572206661696c65642e000000000000000000006044820152606401610ad0565b6000610b8e610fc4565b6005543390610b9e908290611032565b610bac8188888888886110a7565b5060019695505050505050565b610bc1610fc4565b600654600160a060020a031615801590610c025750600654600160a060020a031633600160a060020a03161480610c025750600054600160a060020a031633145b610c515760405160e560020a62461bcd02815260206004820152600e60248201527f4e6f7420617574686f72697a65640000000000000000000000000000000000006044820152606401610ad0565b8060ff16600103610c9d57610c65826112b1565b604051600160a060020a038316907f2357e65ee335b2eaa66320de625fac0b6bd4d4e30ed11b2f88c227d0c875697990600090a25050565b610ca6826113af565b604051600160a060020a038316907ff48f7ffebba51db7883b4acc519bc167419a218bc87db7900e1b5900100ca1e990600090a25050565b33600081815260076020526040812054909190610cfa86611826565b60088281548110610d0d57610d0d611f21565b90600052602060002090600802016002016002019081610d2d9190611faa565b50610d3785611826565b60088281548110610d4a57610d4a611f21565b90600052602060002090600802016002016003019081610d6a9190611faa565b50610d7484611826565b60088281548110610d8757610d87611f21565b90600052602060002090600802016002016004019081610da79190611faa565b50610db482600254611032565b50600195945050505050565b610dc8610e9a565b600160a060020a038116610e475760405160e560020a62461bcd02815260206004820152602660248201527f4f776e61626c653a206e6577206f776e657220697320746865207a65726f206160448201527f64647265737300000000000000000000000000000000000000000000000000006064820152608401610ad0565b610e5081610f67565b50565b600160a060020a038116600090815260076020526040812054600880549091908110610e8157610e81611f21565b9060005260206000209060080201600101549050919050565b600054600160a060020a031633146104975760405160e560020a62461bcd02815260206004820181905260248201527f4f776e61626c653a2063616c6c6572206973206e6f7420746865206f776e65726044820152606401610ad0565b604051806040016040528084600014610f105784610f1a565b67016345785d8a00005b8152600160a060020a03938416602091820152815160055501516006805491841673ffffffffffffffffffffffffffffffffffffffff199283161790556004805492909316911617905550565b60008054600160a060020a0383811673ffffffffffffffffffffffffffffffffffffffff19831681178455604051919092169283917f8be0079c531659141344cd1fd0a4f28419497f9722a3daafe3b4186f6b6457e09190a35050565b60005474010000000000000000000000000000000000000000900460ff16156104975760405160e560020a62461bcd02815260206004820152601060248201527f5061757361626c653a20706175736564000000000000000000000000000000006044820152606401610ad0565b60045460035460408051808201909152601481527f416c6c6f77616e6365206e6f7420656e6f7567680000000000000000000000006020820152600160a060020a039283169261047f92849287929091169061109f908790600161109787873061184f565b9291906118e6565b92919061190f565b6110b0866119b4565b6000146040518060400160405280601181526020017f416c7265616479207369676e656420757000000000000000000000000000000081525081819061110c5760405160e560020a62461bcd028152600401610ad09190611c51565b506001805490600061111d83612070565b909155505060018054600160a060020a038a1660009081526007602052604090819020829055805160608101909152909160089190819081526020018381526020016040518060e001604052806111738d611826565b81526020016111818c611826565b815260200161118f8b611826565b815260200161119d8a611826565b81526020016111ab89611826565b815260006020808301829052600160409093018390529290935284548082018655948352912082516008909402018054929390929091839160ff1916908360028111156111fa576111fa611aa7565b02179055506020820151600182015560408201518051600283019081906112219082611faa565b50602082015160018201906112369082611faa565b506040820151600282019061124b9082611faa565b50606082015160038201906112609082611faa565b50608082015160048201906112759082611faa565b5060a08201516005909101805460c09093015160ff9081166101000261ffff199094169216919091179190911790555050505050505050505050565b6112ba816119b4565b6001146040518060400160405280601081526020017f4e6f74206f6e2070726f626174696f6e000000000000000000000000000000008152508181906113165760405160e560020a62461bcd028152600401610ad09190611c51565b50600061132284610e53565b905060026008828154811061133957611339611f21565b906000526020600020906008020160020160050160016101000a81548160ff021916908360ff16021790555060026008828154811061137a5761137a611f21565b60009182526020909120600890910201805460ff191660018360028111156113a4576113a4611aa7565b021790555050505050565b60006113ba82610e53565b116040518060400160405280600281526020017f31380000000000000000000000000000000000000000000000000000000000008152508181906114145760405160e560020a62461bcd028152600401610ad09190611c51565b50600160a060020a03831660009081526007602052604081205460088054909190811061144357611443611f21565b6000918252602090912060408051606081019091526008909202018054829060ff16600281111561147657611476611aa7565b600281111561148757611487611aa7565b815260200160018201548152602001600282016040518060e00160405290816000820180546114b590611ee4565b80601f01602080910402602001604051908101604052809291908181526020018280546114e190611ee4565b801561152e5780601f106115035761010080835404028352916020019161152e565b820191906000526020600020905b81548152906001019060200180831161151157829003601f168201915b5050505050815260200160018201805461154790611ee4565b80601f016020809104026020016040519081016040528092919081815260200182805461157390611ee4565b80156115c05780601f10611595576101008083540402835291602001916115c0565b820191906000526020600020905b8154815290600101906020018083116115a357829003601f168201915b505050505081526020016002820180546115d990611ee4565b80601f016020809104026020016040519081016040528092919081815260200182805461160590611ee4565b80156116525780601f1061162757610100808354040283529160200191611652565b820191906000526020600020905b81548152906001019060200180831161163557829003601f168201915b5050505050815260200160038201805461166b90611ee4565b80601f016020809104026020016040519081016040528092919081815260200182805461169790611ee4565b80156116e45780601f106116b9576101008083540402835291602001916116e4565b820191906000526020600020905b8154815290600101906020018083116116c757829003601f168201915b505050505081526020016004820180546116fd90611ee4565b80601f016020809104026020016040519081016040528092919081815260200182805461172990611ee4565b80156117765780601f1061174b57610100808354040283529160200191611776565b820191906000526020600020905b81548152906001019060200180831161175957829003601f168201915b50505091835250506005919091015460ff808216602084015261010090910416604090910152905250905060006117ac85610e53565b90506000826040015160c0015160ff166002036117c7575060015b826040015160c0015160ff166001036117de575060005b80600883815481106117f2576117f2611f21565b906000526020600020906008020160020160050160016101000a81548160ff021916908360ff160217905550505050505050565b6060816040516020016118399190611c51565b6040516020818303038152906040529050919050565b6040517fdd62ed3e000000000000000000000000000000000000000000000000000000008152600160a060020a03838116600483015282811660248301526000919085169063dd62ed3e90604401602060405180830381865afa1580156118ba573d6000803e3d6000fd5b505050506040513d601f19601f820116820180604052508101906118de919061209a565b949350505050565b60006118f58486101584611a04565b60ff8216156119045783611906565b845b95945050505050565b60008415611904576040517f23b872dd000000000000000000000000000000000000000000000000000000008152600160a060020a0384811660048301528381166024830152604482018790528516906323b872dd906064016020604051808303816000875af1158015611987573d6000803e3d6000fd5b505050506040513d601f19601f820116820180604052508101906119ab9190611f3a565b61190457600080fd5b600160a060020a03811660009081526007602052604081205460088054829081106119e1576119e1611f21565b6000918252602090912060089091020160070154610100900460ff169392505050565b8082610ad95760405160e560020a62461bcd028152600401610ad09190611c51565b600160a060020a0381168114610e5057600080fd5b600060208284031215611a4d57600080fd5b8135611a5881611a26565b9392505050565b60008060008060808587031215611a7557600080fd5b843593506020850135611a8781611a26565b92506040850135611a9781611a26565b9396929550929360600135925050565b60e060020a634e487b7102600052602160045260246000fd5b6000815180845260005b81811015611ae657602081850181015186830182015201611aca565b506000602082860101526020601f19601f83011685010191505092915050565b6020808252825182820181905260009190604090818501908084028601830187850186805b84811015611c4257603f198a850301865282516060815160038110611b615760e060020a634e487b710285526021600452602485fd5b80875250898201518a8701528882015191508089870152815160e08083890152611b8f610140890183611ac0565b91508b840151605f196080818b860301818c0152611bad8584611ac0565b94508d870151925060a0828c870301818d0152611bca8685611ac0565b955086880151965060c09350828c870301848d0152611be98688611ac0565b9650818801519550828c880301858d0152611c048787611ac0565b965060ff81890151166101008d0152505050808501519450505050611c2f61012087018360ff169052565b9689019694505091870191600101611b2b565b50919998505050505050505050565b602081526000611a586020830184611ac0565b600080600060608486031215611c7957600080fd5b8335611c8481611a26565b92506020840135611c9481611a26565b929592945050506040919091013590565b60e060020a634e487b7102600052604160045260246000fd5b600082601f830112611ccf57600080fd5b813567ffffffffffffffff80821115611cea57611cea611ca5565b604051601f8301601f19908116603f01168101908282118183101715611d1257611d12611ca5565b81604052838152866020858801011115611d2b57600080fd5b836020870160208301376000602085830101528094505050505092915050565b600080600080600060a08688031215611d6357600080fd5b853567ffffffffffffffff80821115611d7b57600080fd5b611d8789838a01611cbe565b96506020880135915080821115611d9d57600080fd5b611da989838a01611cbe565b95506040880135915080821115611dbf57600080fd5b611dcb89838a01611cbe565b94506060880135915080821115611de157600080fd5b611ded89838a01611cbe565b93506080880135915080821115611e0357600080fd5b50611e1088828901611cbe565b9150509295509295909350565b60008060408385031215611e3057600080fd5b8235611e3b81611a26565b9150602083013560ff81168114611e5157600080fd5b809150509250929050565b600080600060608486031215611e7157600080fd5b833567ffffffffffffffff80821115611e8957600080fd5b611e9587838801611cbe565b94506020860135915080821115611eab57600080fd5b611eb787838801611cbe565b93506040860135915080821115611ecd57600080fd5b50611eda86828701611cbe565b9150509250925092565b600281046001821680611ef857607f821691505b602082108103611f1b5760e060020a634e487b7102600052602260045260246000fd5b50919050565b60e060020a634e487b7102600052603260045260246000fd5b600060208284031215611f4c57600080fd5b81518015158114611a5857600080fd5b601f821115610ad9576000818152602081206020601f86010481016020861015611f835750805b6020601f860104820191505b81811015611fa257828155600101611f8f565b505050505050565b815167ffffffffffffffff811115611fc457611fc4611ca5565b611fd881611fd28454611ee4565b84611f5c565b602080601f8311600181146120115760008415611ff55750858301515b60028086026008870290910a6000190419821617865550611fa2565b600085815260208120601f198616915b8281101561204057888601518255948401946001909101908401612021565b508582101561206057878501516008601f88160260020a60001904191681555b5050505050600202600101905550565b6000600182016120935760e060020a634e487b7102600052601160045260246000fd5b5060010190565b6000602082840312156120ac57600080fd5b505191905056fea2646970667358221220b945d4ca646686e50c8fff0cdcee13dc8143b65028b54f407a69cd3fc7f416c864736f6c63430008130033",
  "devdoc": {
    "events": {
      "Paused(address)": {
        "details": "Emitted when the pause is triggered by `account`."
      },
      "Unpaused(address)": {
        "details": "Emitted when the pause is lifted by `account`."
      }
    },
    "kind": "dev",
    "methods": {
      "becomeAJobber(string,string,string,string,string)": {
        "details": "User sign up to be probation member. o Caller's current membership status must be null. o Must send along with call the sufficient value for signup fee. Note: Fee is denominated in stablecoin e.g cUSD"
      },
      "constructor": {
        "details": "We made an initial push to the jobbers array. This is to ensure  any unregistered user have a default id of 0."
      },
      "myStatus()": {
        "details": "View - Returns membership status of caller Using an array of string literal in memory, we return membership status."
      },
      "owner()": {
        "details": "Returns the address of the current owner."
      },
      "paused()": {
        "details": "Returns true if the contract is paused, and false otherwise."
      },
      "renounceOwnership()": {
        "details": "Leaves the contract without owner. It will not be possible to call `onlyOwner` functions anymore. Can only be called by the current owner. NOTE: Renouncing ownership will leave the contract without an owner, thereby removing any functionality that is only available to the owner."
      },
      "transferOwnership(address)": {
        "details": "Transfers ownership of the contract to a new account (`newOwner`). Can only be called by the current owner."
      },
      "updateProfileInfo(string,string,string)": {
        "details": "Jobbers can only update field, profileURI and avatar after sign up It costs them something to do so"
      },
      "upgradeOrDowngradeUser(address,uint8)": {
        "details": "Upgrade or downgrade'target' o 'target' must be the probation member. o Upgrader must be approved client."
      }
    },
    "stateVariables": {
      "ids": {
        "details": "Membership zone"
      },
      "mShip": {
        "details": "Membership controller"
      }
    },
    "version": 1
  },
  "userdoc": {
    "kind": "user",
    "methods": {},
    "version": 1
  },
  "storageLayout": {
    "storage": [
      {
        "astId": 2242,
        "contract": "contracts/main/jobbers/Jobbers.sol:Jobbers",
        "label": "_owner",
        "offset": 0,
        "slot": "0",
        "type": "t_address"
      },
      {
        "astId": 2365,
        "contract": "contracts/main/jobbers/Jobbers.sol:Jobbers",
        "label": "_paused",
        "offset": 20,
        "slot": "0",
        "type": "t_bool"
      },
      {
        "astId": 1170,
        "contract": "contracts/main/jobbers/Jobbers.sol:Jobbers",
        "label": "counter",
        "offset": 0,
        "slot": "1",
        "type": "t_uint256"
      },
      {
        "astId": 1172,
        "contract": "contracts/main/jobbers/Jobbers.sol:Jobbers",
        "label": "updateFee",
        "offset": 0,
        "slot": "2",
        "type": "t_uint256"
      },
      {
        "astId": 1174,
        "contract": "contracts/main/jobbers/Jobbers.sol:Jobbers",
        "label": "feeTo",
        "offset": 0,
        "slot": "3",
        "type": "t_address"
      },
      {
        "astId": 1177,
        "contract": "contracts/main/jobbers/Jobbers.sol:Jobbers",
        "label": "feeDenom",
        "offset": 0,
        "slot": "4",
        "type": "t_contract(IERC20)2533"
      },
      {
        "astId": 1181,
        "contract": "contracts/main/jobbers/Jobbers.sol:Jobbers",
        "label": "mShip",
        "offset": 0,
        "slot": "5",
        "type": "t_struct(MembershipBase)855_storage"
      },
      {
        "astId": 1186,
        "contract": "contracts/main/jobbers/Jobbers.sol:Jobbers",
        "label": "ids",
        "offset": 0,
        "slot": "7",
        "type": "t_mapping(t_address,t_uint256)"
      },
      {
        "astId": 1190,
        "contract": "contracts/main/jobbers/Jobbers.sol:Jobbers",
        "label": "jobbers",
        "offset": 0,
        "slot": "8",
        "type": "t_array(t_struct(Membership)850_storage)dyn_storage"
      }
    ],
    "types": {
      "t_address": {
        "encoding": "inplace",
        "label": "address",
        "numberOfBytes": "20"
      },
      "t_array(t_struct(Membership)850_storage)dyn_storage": {
        "base": "t_struct(Membership)850_storage",
        "encoding": "dynamic_array",
        "label": "struct ICommon.Membership[]",
        "numberOfBytes": "32"
      },
      "t_bool": {
        "encoding": "inplace",
        "label": "bool",
        "numberOfBytes": "1"
      },
      "t_bytes_storage": {
        "encoding": "bytes",
        "label": "bytes",
        "numberOfBytes": "32"
      },
      "t_contract(IERC20)2533": {
        "encoding": "inplace",
        "label": "contract IERC20",
        "numberOfBytes": "20"
      },
      "t_enum(Tier)841": {
        "encoding": "inplace",
        "label": "enum ICommon.Tier",
        "numberOfBytes": "1"
      },
      "t_mapping(t_address,t_uint256)": {
        "encoding": "mapping",
        "key": "t_address",
        "label": "mapping(address => uint256)",
        "numberOfBytes": "32",
        "value": "t_uint256"
      },
      "t_struct(JobberData)870_storage": {
        "encoding": "inplace",
        "label": "struct ICommon.JobberData",
        "members": [
          {
            "astId": 857,
            "contract": "contracts/main/jobbers/Jobbers.sol:Jobbers",
            "label": "name",
            "offset": 0,
            "slot": "0",
            "type": "t_bytes_storage"
          },
          {
            "astId": 859,
            "contract": "contracts/main/jobbers/Jobbers.sol:Jobbers",
            "label": "aka",
            "offset": 0,
            "slot": "1",
            "type": "t_bytes_storage"
          },
          {
            "astId": 861,
            "contract": "contracts/main/jobbers/Jobbers.sol:Jobbers",
            "label": "field",
            "offset": 0,
            "slot": "2",
            "type": "t_bytes_storage"
          },
          {
            "astId": 863,
            "contract": "contracts/main/jobbers/Jobbers.sol:Jobbers",
            "label": "profileURI",
            "offset": 0,
            "slot": "3",
            "type": "t_bytes_storage"
          },
          {
            "astId": 865,
            "contract": "contracts/main/jobbers/Jobbers.sol:Jobbers",
            "label": "avatar",
            "offset": 0,
            "slot": "4",
            "type": "t_bytes_storage"
          },
          {
            "astId": 867,
            "contract": "contracts/main/jobbers/Jobbers.sol:Jobbers",
            "label": "ratings",
            "offset": 0,
            "slot": "5",
            "type": "t_uint8"
          },
          {
            "astId": 869,
            "contract": "contracts/main/jobbers/Jobbers.sol:Jobbers",
            "label": "level",
            "offset": 1,
            "slot": "5",
            "type": "t_uint8"
          }
        ],
        "numberOfBytes": "192"
      },
      "t_struct(Membership)850_storage": {
        "encoding": "inplace",
        "label": "struct ICommon.Membership",
        "members": [
          {
            "astId": 844,
            "contract": "contracts/main/jobbers/Jobbers.sol:Jobbers",
            "label": "status",
            "offset": 0,
            "slot": "0",
            "type": "t_enum(Tier)841"
          },
          {
            "astId": 846,
            "contract": "contracts/main/jobbers/Jobbers.sol:Jobbers",
            "label": "avatarId",
            "offset": 0,
            "slot": "1",
            "type": "t_uint256"
          },
          {
            "astId": 849,
            "contract": "contracts/main/jobbers/Jobbers.sol:Jobbers",
            "label": "other",
            "offset": 0,
            "slot": "2",
            "type": "t_struct(JobberData)870_storage"
          }
        ],
        "numberOfBytes": "256"
      },
      "t_struct(MembershipBase)855_storage": {
        "encoding": "inplace",
        "label": "struct ICommon.MembershipBase",
        "members": [
          {
            "astId": 852,
            "contract": "contracts/main/jobbers/Jobbers.sol:Jobbers",
            "label": "probFee",
            "offset": 0,
            "slot": "0",
            "type": "t_uint256"
          },
          {
            "astId": 854,
            "contract": "contracts/main/jobbers/Jobbers.sol:Jobbers",
            "label": "upgrader",
            "offset": 0,
            "slot": "1",
            "type": "t_address"
          }
        ],
        "numberOfBytes": "64"
      },
      "t_uint256": {
        "encoding": "inplace",
        "label": "uint256",
        "numberOfBytes": "32"
      },
      "t_uint8": {
        "encoding": "inplace",
        "label": "uint8",
        "numberOfBytes": "1"
      }
    }
  }
}