{
  "address": "0xFd2Cb1b3FcE0fBb504841d3103389a0F166594a2",
  "abi": [
    {
      "inputs": [
        {
          "internalType": "address",
          "name": "factory",
          "type": "address"
        }
      ],
      "stateMutability": "nonpayable",
      "type": "constructor"
    },
    {
      "inputs": [
        {
          "internalType": "address",
          "name": "",
          "type": "address"
        }
      ],
      "name": "HPMZeroAddress",
      "type": "error"
    },
    {
      "anonymous": false,
      "inputs": [
        {
          "indexed": true,
          "internalType": "address",
          "name": "owner",
          "type": "address"
        },
        {
          "indexed": true,
          "internalType": "address",
          "name": "approved",
          "type": "address"
        },
        {
          "indexed": true,
          "internalType": "uint256",
          "name": "tokenId",
          "type": "uint256"
        }
      ],
      "name": "Approval",
      "type": "event"
    },
    {
      "anonymous": false,
      "inputs": [
        {
          "indexed": true,
          "internalType": "address",
          "name": "owner",
          "type": "address"
        },
        {
          "indexed": true,
          "internalType": "address",
          "name": "operator",
          "type": "address"
        },
        {
          "indexed": false,
          "internalType": "bool",
          "name": "approved",
          "type": "bool"
        }
      ],
      "name": "ApprovalForAll",
      "type": "event"
    },
    {
      "anonymous": false,
      "inputs": [
        {
          "indexed": true,
          "internalType": "address",
          "name": "previousOwner",
          "type": "address"
        },
        {
          "indexed": true,
          "internalType": "address",
          "name": "newOwner",
          "type": "address"
        }
      ],
      "name": "OwnershipTransferred",
      "type": "event"
    },
    {
      "anonymous": false,
      "inputs": [
        {
          "indexed": false,
          "internalType": "address",
          "name": "account",
          "type": "address"
        }
      ],
      "name": "Paused",
      "type": "event"
    },
    {
      "anonymous": false,
      "inputs": [
        {
          "indexed": true,
          "internalType": "address",
          "name": "from",
          "type": "address"
        },
        {
          "indexed": true,
          "internalType": "address",
          "name": "to",
          "type": "address"
        },
        {
          "indexed": true,
          "internalType": "uint256",
          "name": "tokenId",
          "type": "uint256"
        }
      ],
      "name": "Transfer",
      "type": "event"
    },
    {
      "anonymous": false,
      "inputs": [
        {
          "indexed": false,
          "internalType": "address",
          "name": "account",
          "type": "address"
        }
      ],
      "name": "Unpaused",
      "type": "event"
    },
    {
      "inputs": [
        {
          "internalType": "address",
          "name": "to",
          "type": "address"
        },
        {
          "internalType": "uint256",
          "name": "tokenId",
          "type": "uint256"
        }
      ],
      "name": "approve",
      "outputs": [],
      "stateMutability": "nonpayable",
      "type": "function"
    },
    {
      "inputs": [
        {
          "internalType": "address",
          "name": "owner",
          "type": "address"
        }
      ],
      "name": "balanceOf",
      "outputs": [
        {
          "internalType": "uint256",
          "name": "",
          "type": "uint256"
        }
      ],
      "stateMutability": "view",
      "type": "function"
    },
    {
      "inputs": [
        {
          "internalType": "uint256",
          "name": "tokenId",
          "type": "uint256"
        }
      ],
      "name": "burn",
      "outputs": [
        {
          "internalType": "bool",
          "name": "",
          "type": "bool"
        }
      ],
      "stateMutability": "nonpayable",
      "type": "function"
    },
    {
      "inputs": [
        {
          "internalType": "uint256",
          "name": "tokenId",
          "type": "uint256"
        }
      ],
      "name": "getApproved",
      "outputs": [
        {
          "internalType": "address",
          "name": "",
          "type": "address"
        }
      ],
      "stateMutability": "view",
      "type": "function"
    },
    {
      "inputs": [
        {
          "internalType": "address",
          "name": "owner",
          "type": "address"
        },
        {
          "internalType": "address",
          "name": "operator",
          "type": "address"
        }
      ],
      "name": "isApprovedForAll",
      "outputs": [
        {
          "internalType": "bool",
          "name": "",
          "type": "bool"
        }
      ],
      "stateMutability": "view",
      "type": "function"
    },
    {
      "inputs": [
        {
          "internalType": "address",
          "name": "to",
          "type": "address"
        },
        {
          "internalType": "uint256",
          "name": "tokenId",
          "type": "uint256"
        }
      ],
      "name": "mint",
      "outputs": [
        {
          "internalType": "bool",
          "name": "",
          "type": "bool"
        }
      ],
      "stateMutability": "nonpayable",
      "type": "function"
    },
    {
      "inputs": [],
      "name": "name",
      "outputs": [
        {
          "internalType": "string",
          "name": "",
          "type": "string"
        }
      ],
      "stateMutability": "view",
      "type": "function"
    },
    {
      "inputs": [
        {
          "internalType": "address",
          "name": "operator",
          "type": "address"
        },
        {
          "internalType": "address",
          "name": "from",
          "type": "address"
        },
        {
          "internalType": "uint256",
          "name": "tokenId",
          "type": "uint256"
        },
        {
          "internalType": "bytes",
          "name": "data",
          "type": "bytes"
        }
      ],
      "name": "onERC721Received",
      "outputs": [
        {
          "internalType": "bytes4",
          "name": "",
          "type": "bytes4"
        }
      ],
      "stateMutability": "nonpayable",
      "type": "function"
    },
    {
      "inputs": [],
      "name": "owner",
      "outputs": [
        {
          "internalType": "address",
          "name": "",
          "type": "address"
        }
      ],
      "stateMutability": "view",
      "type": "function"
    },
    {
      "inputs": [
        {
          "internalType": "uint256",
          "name": "tokenId",
          "type": "uint256"
        }
      ],
      "name": "ownerOf",
      "outputs": [
        {
          "internalType": "address",
          "name": "",
          "type": "address"
        }
      ],
      "stateMutability": "view",
      "type": "function"
    },
    {
      "inputs": [],
      "name": "pause",
      "outputs": [],
      "stateMutability": "nonpayable",
      "type": "function"
    },
    {
      "inputs": [],
      "name": "paused",
      "outputs": [
        {
          "internalType": "bool",
          "name": "",
          "type": "bool"
        }
      ],
      "stateMutability": "view",
      "type": "function"
    },
    {
      "inputs": [],
      "name": "renounceOwnership",
      "outputs": [],
      "stateMutability": "nonpayable",
      "type": "function"
    },
    {
      "inputs": [
        {
          "internalType": "address",
          "name": "from",
          "type": "address"
        },
        {
          "internalType": "address",
          "name": "to",
          "type": "address"
        },
        {
          "internalType": "uint256",
          "name": "tokenId",
          "type": "uint256"
        }
      ],
      "name": "safeTransferFrom",
      "outputs": [],
      "stateMutability": "nonpayable",
      "type": "function"
    },
    {
      "inputs": [
        {
          "internalType": "address",
          "name": "from",
          "type": "address"
        },
        {
          "internalType": "address",
          "name": "to",
          "type": "address"
        },
        {
          "internalType": "uint256",
          "name": "tokenId",
          "type": "uint256"
        },
        {
          "internalType": "bytes",
          "name": "data",
          "type": "bytes"
        }
      ],
      "name": "safeTransferFrom",
      "outputs": [],
      "stateMutability": "nonpayable",
      "type": "function"
    },
    {
      "inputs": [
        {
          "internalType": "address",
          "name": "operator",
          "type": "address"
        },
        {
          "internalType": "bool",
          "name": "approved",
          "type": "bool"
        }
      ],
      "name": "setApprovalForAll",
      "outputs": [],
      "stateMutability": "nonpayable",
      "type": "function"
    },
    {
      "inputs": [
        {
          "internalType": "bytes4",
          "name": "interfaceId",
          "type": "bytes4"
        }
      ],
      "name": "supportsInterface",
      "outputs": [
        {
          "internalType": "bool",
          "name": "",
          "type": "bool"
        }
      ],
      "stateMutability": "view",
      "type": "function"
    },
    {
      "inputs": [],
      "name": "symbol",
      "outputs": [
        {
          "internalType": "string",
          "name": "",
          "type": "string"
        }
      ],
      "stateMutability": "view",
      "type": "function"
    },
    {
      "inputs": [
        {
          "internalType": "uint256",
          "name": "tokenId",
          "type": "uint256"
        }
      ],
      "name": "tokenURI",
      "outputs": [
        {
          "internalType": "string",
          "name": "",
          "type": "string"
        }
      ],
      "stateMutability": "view",
      "type": "function"
    },
    {
      "inputs": [
        {
          "internalType": "address",
          "name": "from",
          "type": "address"
        },
        {
          "internalType": "address",
          "name": "to",
          "type": "address"
        },
        {
          "internalType": "uint256",
          "name": "tokenId",
          "type": "uint256"
        }
      ],
      "name": "transferFrom",
      "outputs": [],
      "stateMutability": "nonpayable",
      "type": "function"
    },
    {
      "inputs": [
        {
          "internalType": "address",
          "name": "newOwner",
          "type": "address"
        }
      ],
      "name": "transferOwnership",
      "outputs": [],
      "stateMutability": "nonpayable",
      "type": "function"
    },
    {
      "inputs": [],
      "name": "unpause",
      "outputs": [],
      "stateMutability": "nonpayable",
      "type": "function"
    },
    {
      "stateMutability": "payable",
      "type": "receive"
    }
  ],
  "transactionHash": "0x2878278fe179601521401ee8a3485d1f1feadcb92a2e31280b9dac0f46c322ae",
  "args": [
    "0xD33c63E09c928A173e6771E05E1e8E5eb9db3E99"
  ],
  "numDeployments": 4,
  "solcInputHash": "4e4d922129ceb6d1d924ffd58b3fb43b",
  "bytecode": "0x60806040523480156200001157600080fd5b5060405162002119380380620021198339810160408190526200003491620002dd565b6040518060400160405280601781526020017f4869576f726b2050726f626174696f6e204d656d6265720000000000000000008152506040518060400160405280600381526020017f48504d0000000000000000000000000000000000000000000000000000000000815250620000cc620000bd62000111640100000000026401000000009004565b64010000000062000115810204565b6001620000da8382620003e6565b506002620000e98282620003e6565b50506007805460ff19169055506200010a8164010000000062000165810204565b50620004b9565b3390565b60008054600160a060020a03838116600160a060020a0319831681178455604051919092169283917f8be0079c531659141344cd1fd0a4f28419497f9722a3daafe3b4186f6b6457e09190a35050565b620001786401000000006200022b810204565b600160a060020a03811662000214576040517f08c379a000000000000000000000000000000000000000000000000000000000815260206004820152602660248201527f4f776e61626c653a206e6577206f776e657220697320746865207a65726f206160448201527f646472657373000000000000000000000000000000000000000000000000000060648201526084015b60405180910390fd5b620002288164010000000062000115810204565b50565b6200023e64010000000062000111810204565b600160a060020a03166200025a640100000000620002ce810204565b600160a060020a031614620002cc576040517f08c379a000000000000000000000000000000000000000000000000000000000815260206004820181905260248201527f4f776e61626c653a2063616c6c6572206973206e6f7420746865206f776e657260448201526064016200020b565b565b600054600160a060020a031690565b600060208284031215620002f057600080fd5b8151600160a060020a03811681146200030857600080fd5b9392505050565b7f4e487b7100000000000000000000000000000000000000000000000000000000600052604160045260246000fd5b6002810460018216806200035357607f821691505b6020821081036200038d577f4e487b7100000000000000000000000000000000000000000000000000000000600052602260045260246000fd5b50919050565b601f821115620003e1576000818152602081206020601f86010481016020861015620003bc5750805b6020601f860104820191505b81811015620003dd57828155600101620003c8565b5050505b505050565b815167ffffffffffffffff8111156200040357620004036200030f565b6200041b816200041484546200033e565b8462000393565b602080601f8311600181146200045757600084156200043a5750858301515b60028086026008870290910a6000190419821617865550620003dd565b600085815260208120601f198616915b82811015620004885788860151825594840194600190910190840162000467565b5085821015620004a957878501516008601f88160260020a60001904191681555b5050505050600202600101905550565b611c5080620004c96000396000f3fe608060405260043610610156576000357c0100000000000000000000000000000000000000000000000000000000900480636352211e116100c857806395d89b411161008c57806395d89b4114610398578063a22cb465146103ad578063b88d4fde146103cd578063c87b56dd146103ed578063e985e9c51461040d578063f2fde38b1461045657600080fd5b80636352211e1461030257806370a0823114610322578063715018a6146103505780638456cb59146103655780638da5cb5b1461037a57600080fd5b806323b872dd1161011a57806323b872dd146102555780633f4ba83a1461027557806340c10f191461028a57806342842e0e146102aa57806342966c68146102ca5780635c975abb146102ea57600080fd5b806301ffc9a71461016557806306fdde031461019a578063081812fc146101bc578063095ea7b3146101f4578063150b7a021461021657600080fd5b3661016057600080fd5b600080fd5b34801561017157600080fd5b506101856101803660046116ea565b610476565b60405190151581526020015b60405180910390f35b3480156101a657600080fd5b506101af610513565b6040516101919190611757565b3480156101c857600080fd5b506101dc6101d736600461176a565b6105a5565b604051600160a060020a039091168152602001610191565b34801561020057600080fd5b5061021461020f36600461179a565b6105cc565b005b34801561022257600080fd5b5061023c6102313660046117c4565b600095945050505050565b604051600160e060020a03199091168152602001610191565b34801561026157600080fd5b5061021461027036600461185f565b610708565b34801561028157600080fd5b5061021461073c565b34801561029657600080fd5b506101856102a536600461179a565b61074e565b3480156102b657600080fd5b506102146102c536600461185f565b61076b565b3480156102d657600080fd5b506101856102e536600461176a565b610786565b3480156102f657600080fd5b5060075460ff16610185565b34801561030e57600080fd5b506101dc61031d36600461176a565b6107a2565b34801561032e57600080fd5b5061034261033d36600461189b565b61080a565b604051908152602001610191565b34801561035c57600080fd5b506102146108a7565b34801561037157600080fd5b506102146108b9565b34801561038657600080fd5b50600054600160a060020a03166101dc565b3480156103a457600080fd5b506101af6108c9565b3480156103b957600080fd5b506102146103c83660046118b6565b6108d8565b3480156103d957600080fd5b506102146103e8366004611921565b6108e7565b3480156103f957600080fd5b506101af61040836600461176a565b610922565b34801561041957600080fd5b506101856104283660046119fd565b600160a060020a03918216600090815260066020908152604080832093909416825291909152205460ff1690565b34801561046257600080fd5b5061021461047136600461189b565b610996565b6000600160e060020a031982167f80ac58cd0000000000000000000000000000000000000000000000000000000014806104d95750600160e060020a031982167f5b5e139f00000000000000000000000000000000000000000000000000000000145b8061050d57507f01ffc9a700000000000000000000000000000000000000000000000000000000600160e060020a03198316145b92915050565b60606001805461052290611a30565b80601f016020809104026020016040519081016040528092919081815260200182805461054e90611a30565b801561059b5780601f106105705761010080835404028352916020019161059b565b820191906000526020600020905b81548152906001019060200180831161057e57829003601f168201915b5050505050905090565b60006105b082610a29565b50600090815260056020526040902054600160a060020a031690565b60006105d7826107a2565b905080600160a060020a031683600160a060020a0316036106685760405160e560020a62461bcd02815260206004820152602160248201527f4552433732313a20617070726f76616c20746f2063757272656e74206f776e6560448201527f720000000000000000000000000000000000000000000000000000000000000060648201526084015b60405180910390fd5b33600160a060020a038216148061068457506106848133610428565b6106f95760405160e560020a62461bcd02815260206004820152603e60248201527f4552433732313a20617070726f76652063616c6c6572206973206e6f7420746f60448201527f6b656e206f776e6572206e6f7220617070726f76656420666f7220616c6c0000606482015260840161065f565b6107038383610a90565b505050565b6107123382610b0b565b6107315760405160e560020a62461bcd02815260040161065f90611a83565b610703838383610b8a565b610744610bea565b61074c610c47565b565b6000610758610bea565b6107628383610c99565b50600192915050565b610703838383604051806020016040528060008152506108e7565b6000610790610bea565b61079982610cb3565b5060015b919050565b600081815260036020526040812054600160a060020a03168061050d5760405160e560020a62461bcd02815260206004820152601860248201527f4552433732313a20696e76616c696420746f6b656e2049440000000000000000604482015260640161065f565b6000600160a060020a03821661088b5760405160e560020a62461bcd02815260206004820152602960248201527f4552433732313a2061646472657373207a65726f206973206e6f74206120766160448201527f6c6964206f776e65720000000000000000000000000000000000000000000000606482015260840161065f565b50600160a060020a031660009081526004602052604090205490565b6108af610bea565b61074c6000610d67565b6108c1610bea565b61074c610dc4565b60606002805461052290611a30565b6108e3338383610e01565b5050565b6108f13383610b0b565b6109105760405160e560020a62461bcd02815260040161065f90611a83565b61091c84848484610ed2565b50505050565b606061092d82610a29565b600061094460408051602081019091526000815290565b90506000815111610964576040518060200160405280600081525061098f565b8061096e84610f08565b60405160200161097f929190611ae0565b6040516020818303038152906040525b9392505050565b61099e610bea565b600160a060020a038116610a1d5760405160e560020a62461bcd02815260206004820152602660248201527f4f776e61626c653a206e6577206f776e657220697320746865207a65726f206160448201527f6464726573730000000000000000000000000000000000000000000000000000606482015260840161065f565b610a2681610d67565b50565b600081815260036020526040902054600160a060020a0316610a265760405160e560020a62461bcd02815260206004820152601860248201527f4552433732313a20696e76616c696420746f6b656e2049440000000000000000604482015260640161065f565b6000818152600560205260409020805473ffffffffffffffffffffffffffffffffffffffff1916600160a060020a0384169081179091558190610ad2826107a2565b600160a060020a03167f8c5be1e5ebec7d5bd14f71427d1e84f3dd0314c0f7b2291e5b200ac8c7c3b92560405160405180910390a45050565b600080610b17836107a2565b905080600160a060020a031684600160a060020a03161480610b5e5750600160a060020a0380821660009081526006602090815260408083209388168352929052205460ff165b80610b82575083600160a060020a0316610b77846105a5565b600160a060020a0316145b949350505050565b60075460ff16610bdf5760405160e560020a62461bcd02815260206004820152600b60248201527f4e6f7420616c6c6f776564000000000000000000000000000000000000000000604482015260640161065f565b610703838383610fa8565b600054600160a060020a0316331461074c5760405160e560020a62461bcd02815260206004820181905260248201527f4f776e61626c653a2063616c6c6572206973206e6f7420746865206f776e6572604482015260640161065f565b610c4f611193565b6007805460ff191690557f5db9ee0a495bf2e6ff9c91a7834c1ba4fdd244a5e8aa4e537bd38aeae4b073aa335b604051600160a060020a03909116815260200160405180910390a1565b6108e38282604051806020016040528060008152506111e8565b6000610cbe826107a2565b9050610ccc8160008461121e565b610cd7600083610a90565b600160a060020a0381166000908152600460205260408120805460019290610d00908490611b3e565b9091555050600082815260036020526040808220805473ffffffffffffffffffffffffffffffffffffffff1916905551839190600160a060020a038416907fddf252ad1be2c89b69c2b068fc378daa952ba7f163c4a11628f55a4df523b3ef908390a45050565b60008054600160a060020a0383811673ffffffffffffffffffffffffffffffffffffffff19831681178455604051919092169283917f8be0079c531659141344cd1fd0a4f28419497f9722a3daafe3b4186f6b6457e09190a35050565b610dcc61129a565b6007805460ff191660011790557f62e78cea01bee320cd4e420270b5ea74000d11b0c9f74754ebdbfc544b05a258610c7c3390565b81600160a060020a031683600160a060020a031603610e655760405160e560020a62461bcd02815260206004820152601960248201527f4552433732313a20617070726f766520746f2063616c6c657200000000000000604482015260640161065f565b600160a060020a03838116600081815260066020908152604080832094871680845294825291829020805460ff191686151590811790915591519182527f17307eab39ab6107e8899845ad3d59bd9653f200f220920489ca2b5937696c31910160405180910390a3505050565b610edd848484610b8a565b610ee9848484846112f0565b61091c5760405160e560020a62461bcd02815260040161065f90611b51565b60606000610f1583611426565b600101905060008167ffffffffffffffff811115610f3557610f356118f2565b6040519080825280601f01601f191660200182016040528015610f5f576020820181803683370190505b5090508181016020015b600019017f3031323334353637383961626364656600000000000000000000000000000000600a86061a8153600a8504945084610f6957509392505050565b82600160a060020a0316610fbb826107a2565b600160a060020a03161461103a5760405160e560020a62461bcd02815260206004820152602560248201527f4552433732313a207472616e736665722066726f6d20696e636f72726563742060448201527f6f776e6572000000000000000000000000000000000000000000000000000000606482015260840161065f565b600160a060020a0382166110b85760405160e560020a62461bcd028152602060048201526024808201527f4552433732313a207472616e7366657220746f20746865207a65726f2061646460448201527f7265737300000000000000000000000000000000000000000000000000000000606482015260840161065f565b6110c383838361121e565b6110ce600082610a90565b600160a060020a03831660009081526004602052604081208054600192906110f7908490611b3e565b9091555050600160a060020a0382166000908152600460205260408120805460019290611125908490611bae565b9091555050600081815260036020526040808220805473ffffffffffffffffffffffffffffffffffffffff1916600160a060020a0386811691821790925591518493918716917fddf252ad1be2c89b69c2b068fc378daa952ba7f163c4a11628f55a4df523b3ef91a4505050565b60075460ff1661074c5760405160e560020a62461bcd02815260206004820152601460248201527f5061757361626c653a206e6f7420706175736564000000000000000000000000604482015260640161065f565b6111f28383611508565b6111ff60008484846112f0565b6107035760405160e560020a62461bcd02815260040161065f90611b51565b60075460ff16156107035760405160e560020a62461bcd02815260206004820152602b60248201527f4552433732315061757361626c653a20746f6b656e207472616e73666572207760448201527f68696c6520706175736564000000000000000000000000000000000000000000606482015260840161065f565b60075460ff161561074c5760405160e560020a62461bcd02815260206004820152601060248201527f5061757361626c653a2070617573656400000000000000000000000000000000604482015260640161065f565b6000600160a060020a0384163b1561141b576040517f150b7a02000000000000000000000000000000000000000000000000000000008152600160a060020a0385169063150b7a029061134d903390899088908890600401611bc1565b6020604051808303816000875af1925050508015611388575060408051601f3d908101601f1916820190925261138591810190611bfd565b60015b6113e8573d8080156113b6576040519150601f19603f3d011682016040523d82523d6000602084013e6113bb565b606091505b5080516000036113e05760405160e560020a62461bcd02815260040161065f90611b51565b805181602001fd5b600160e060020a0319167f150b7a0200000000000000000000000000000000000000000000000000000000149050610b82565b506001949350505050565b6000807a184f03e93ff9f4daa797ed6e38ed64bf6a1f010000000000000000831061146f577a184f03e93ff9f4daa797ed6e38ed64bf6a1f010000000000000000830492506040015b6d04ee2d6d415b85acef8100000000831061149b576d04ee2d6d415b85acef8100000000830492506020015b662386f26fc1000083106114b957662386f26fc10000830492506010015b6305f5e10083106114d1576305f5e100830492506008015b61271083106114e557612710830492506004015b606483106114f7576064830492506002015b600a831061050d5760010192915050565b600160a060020a0382166115615760405160e560020a62461bcd02815260206004820181905260248201527f4552433732313a206d696e7420746f20746865207a65726f2061646472657373604482015260640161065f565b600081815260036020526040902054600160a060020a0316156115c95760405160e560020a62461bcd02815260206004820152601c60248201527f4552433732313a20746f6b656e20616c7265616479206d696e74656400000000604482015260640161065f565b600160a060020a0382166000908152600460205260409020546001036116345760405160e560020a62461bcd02815260206004820152601060248201527f4d756c7469706c6520617474656d707400000000000000000000000000000000604482015260640161065f565b6116406000838361121e565b600160a060020a0382166000908152600460205260408120805460019290611669908490611bae565b9091555050600081815260036020526040808220805473ffffffffffffffffffffffffffffffffffffffff1916600160a060020a03861690811790915590518392907fddf252ad1be2c89b69c2b068fc378daa952ba7f163c4a11628f55a4df523b3ef908290a45050565b600160e060020a031981168114610a2657600080fd5b6000602082840312156116fc57600080fd5b813561098f816116d4565b60005b8381101561172257818101518382015260200161170a565b50506000910152565b60008151808452611743816020860160208601611707565b601f01601f19169290920160200192915050565b60208152600061098f602083018461172b565b60006020828403121561177c57600080fd5b5035919050565b8035600160a060020a038116811461079d57600080fd5b600080604083850312156117ad57600080fd5b6117b683611783565b946020939093013593505050565b6000806000806000608086880312156117dc57600080fd5b6117e586611783565b94506117f360208701611783565b935060408601359250606086013567ffffffffffffffff8082111561181757600080fd5b818801915088601f83011261182b57600080fd5b81358181111561183a57600080fd5b89602082850101111561184c57600080fd5b9699959850939650602001949392505050565b60008060006060848603121561187457600080fd5b61187d84611783565b925061188b60208501611783565b9150604084013590509250925092565b6000602082840312156118ad57600080fd5b61098f82611783565b600080604083850312156118c957600080fd5b6118d283611783565b9150602083013580151581146118e757600080fd5b809150509250929050565b7f4e487b7100000000000000000000000000000000000000000000000000000000600052604160045260246000fd5b6000806000806080858703121561193757600080fd5b61194085611783565b935061194e60208601611783565b925060408501359150606085013567ffffffffffffffff8082111561197257600080fd5b818701915087601f83011261198657600080fd5b813581811115611998576119986118f2565b604051601f8201601f19908116603f011681019083821181831017156119c0576119c06118f2565b816040528281528a60208487010111156119d957600080fd5b82602086016020830137600060208483010152809550505050505092959194509250565b60008060408385031215611a1057600080fd5b611a1983611783565b9150611a2760208401611783565b90509250929050565b600281046001821680611a4457607f821691505b602082108103611a7d577f4e487b7100000000000000000000000000000000000000000000000000000000600052602260045260246000fd5b50919050565b6020808252602e908201527f4552433732313a2063616c6c6572206973206e6f7420746f6b656e206f776e6560408201527f72206e6f7220617070726f766564000000000000000000000000000000000000606082015260800190565b60008351611af2818460208801611707565b835190830190611b06818360208801611707565b01949350505050565b7f4e487b7100000000000000000000000000000000000000000000000000000000600052601160045260246000fd5b8181038181111561050d5761050d611b0f565b60208082526032908201527f4552433732313a207472616e7366657220746f206e6f6e20455243373231526560408201527f63656976657220696d706c656d656e7465720000000000000000000000000000606082015260800190565b8082018082111561050d5761050d611b0f565b6000600160a060020a03808716835280861660208401525083604083015260806060830152611bf3608083018461172b565b9695505050505050565b600060208284031215611c0f57600080fd5b815161098f816116d456fea2646970667358221220d3c7447c58b029fda0c2bb3de37ad7078a57bdb465ad438e5ead469413ff11a064736f6c63430008130033",
  "devdoc": {
    "author": ": Bobeu Github: https://github.com/bobeu",
    "events": {
      "Approval(address,address,uint256)": {
        "details": "Emitted when `owner` enables `approved` to manage the `tokenId` token."
      },
      "ApprovalForAll(address,address,bool)": {
        "details": "Emitted when `owner` enables or disables (`approved`) `operator` to manage all of its assets."
      },
      "Paused(address)": {
        "details": "Emitted when the pause is triggered by `account`."
      },
      "Transfer(address,address,uint256)": {
        "details": "Emitted when `tokenId` token is transferred from `from` to `to`."
      },
      "Unpaused(address)": {
        "details": "Emitted when the pause is lifted by `account`."
      }
    },
    "kind": "dev",
    "methods": {
      "approve(address,uint256)": {
        "details": "See {IERC721-approve}."
      },
      "balanceOf(address)": {
        "details": "See {IERC721-balanceOf}."
      },
      "burn(uint256)": {
        "details": "Burns 'tokenId' Note - Owner's privilege"
      },
      "getApproved(uint256)": {
        "details": "See {IERC721-getApproved}."
      },
      "isApprovedForAll(address,address)": {
        "details": "See {IERC721-isApprovedForAll}."
      },
      "name()": {
        "details": "See {IERC721Metadata-name}."
      },
      "onERC721Received(address,address,uint256,bytes)": {
        "details": "Whenever an {IERC721} `tokenId` token is transferred to this contract via {IERC721-safeTransferFrom} by `operator` from `from`, this function is called. It must return its Solidity selector to confirm the token transfer. If any other value is returned or the interface is not implemented by the recipient, the transfer will be reverted. The selector can be obtained in Solidity with `IERC721Receiver.onERC721Received.selector`."
      },
      "owner()": {
        "details": "Returns the address of the current owner."
      },
      "ownerOf(uint256)": {
        "details": "See {IERC721-ownerOf}."
      },
      "pause()": {
        "details": "Halts contract execution "
      },
      "paused()": {
        "details": "Returns true if the contract is paused, and false otherwise."
      },
      "renounceOwnership()": {
        "details": "Leaves the contract without owner. It will not be possible to call `onlyOwner` functions anymore. Can only be called by the current owner. NOTE: Renouncing ownership will leave the contract without an owner, thereby removing any functionality that is only available to the owner."
      },
      "safeTransferFrom(address,address,uint256)": {
        "details": "See {IERC721-safeTransferFrom}."
      },
      "safeTransferFrom(address,address,uint256,bytes)": {
        "details": "See {IERC721-safeTransferFrom}."
      },
      "setApprovalForAll(address,bool)": {
        "details": "See {IERC721-setApprovalForAll}."
      },
      "supportsInterface(bytes4)": {
        "details": "See {IERC165-supportsInterface}."
      },
      "symbol()": {
        "details": "See {IERC721Metadata-symbol}."
      },
      "tokenURI(uint256)": {
        "details": "See {IERC721Metadata-tokenURI}."
      },
      "transferFrom(address,address,uint256)": {
        "details": "See {IERC721-transferFrom}."
      },
      "transferOwnership(address)": {
        "details": "Transfers ownership of the contract to a new account (`newOwner`). Can only be called by the current owner."
      },
      "unpause()": {
        "details": "Continues contract execution "
      }
    },
    "version": 1
  },
  "userdoc": {
    "kind": "user",
    "methods": {
      "mint(address,uint256)": {
        "notice": "Mint HiWork Probationary Membership NFT Owner's privilege. o 'TokenId' must not have been approved before now. o No user can have more than one approved membership NFT."
      }
    },
    "notice": "HiWork Probationary Membership Token",
    "version": 1
  },
  "storageLayout": {
    "storage": [
      {
        "astId": 3581,
        "contract": "contracts/tokens/erc721/Probation.sol:Probation",
        "label": "_owner",
        "offset": 0,
        "slot": "0",
        "type": "t_address"
      },
      {
        "astId": 1840,
        "contract": "contracts/tokens/erc721/Probation.sol:Probation",
        "label": "_name",
        "offset": 0,
        "slot": "1",
        "type": "t_string_storage"
      },
      {
        "astId": 1842,
        "contract": "contracts/tokens/erc721/Probation.sol:Probation",
        "label": "_symbol",
        "offset": 0,
        "slot": "2",
        "type": "t_string_storage"
      },
      {
        "astId": 1846,
        "contract": "contracts/tokens/erc721/Probation.sol:Probation",
        "label": "_owners",
        "offset": 0,
        "slot": "3",
        "type": "t_mapping(t_uint256,t_address)"
      },
      {
        "astId": 1850,
        "contract": "contracts/tokens/erc721/Probation.sol:Probation",
        "label": "_balances",
        "offset": 0,
        "slot": "4",
        "type": "t_mapping(t_address,t_uint256)"
      },
      {
        "astId": 1854,
        "contract": "contracts/tokens/erc721/Probation.sol:Probation",
        "label": "_tokenApprovals",
        "offset": 0,
        "slot": "5",
        "type": "t_mapping(t_uint256,t_address)"
      },
      {
        "astId": 1860,
        "contract": "contracts/tokens/erc721/Probation.sol:Probation",
        "label": "_operatorApprovals",
        "offset": 0,
        "slot": "6",
        "type": "t_mapping(t_address,t_mapping(t_address,t_bool))"
      },
      {
        "astId": 3483,
        "contract": "contracts/tokens/erc721/Probation.sol:Probation",
        "label": "_paused",
        "offset": 0,
        "slot": "7",
        "type": "t_bool"
      }
    ],
    "types": {
      "t_address": {
        "encoding": "inplace",
        "label": "address",
        "numberOfBytes": "20"
      },
      "t_bool": {
        "encoding": "inplace",
        "label": "bool",
        "numberOfBytes": "1"
      },
      "t_mapping(t_address,t_bool)": {
        "encoding": "mapping",
        "key": "t_address",
        "label": "mapping(address => bool)",
        "numberOfBytes": "32",
        "value": "t_bool"
      },
      "t_mapping(t_address,t_mapping(t_address,t_bool))": {
        "encoding": "mapping",
        "key": "t_address",
        "label": "mapping(address => mapping(address => bool))",
        "numberOfBytes": "32",
        "value": "t_mapping(t_address,t_bool)"
      },
      "t_mapping(t_address,t_uint256)": {
        "encoding": "mapping",
        "key": "t_address",
        "label": "mapping(address => uint256)",
        "numberOfBytes": "32",
        "value": "t_uint256"
      },
      "t_mapping(t_uint256,t_address)": {
        "encoding": "mapping",
        "key": "t_uint256",
        "label": "mapping(uint256 => address)",
        "numberOfBytes": "32",
        "value": "t_address"
      },
      "t_string_storage": {
        "encoding": "bytes",
        "label": "string",
        "numberOfBytes": "32"
      },
      "t_uint256": {
        "encoding": "inplace",
        "label": "uint256",
        "numberOfBytes": "32"
      }
    }
  }
}